:040000008031102813
:100008007E14803140017F08F0004E011010700806
:100018004001FF007E10090080311228DF30840083
:1000280087308500B4308600003087000D30873176
:10003800F5278031EE01EF01A03084000030850003
:1000480014308A31DF227E1040018B31492B400168
:100058008D01FF309200410125082A06031D3A2828
:1000680024082906031D3A2823082806031D9E296B
:1000780022082506031D462821082406031D4628B4
:1000880020082306031D9E29400112109214121500
:1000980092116F08D8006E08D7008731AA278031DF
:1000A80040015708AF005808B0005908B100410195
:1000B80027084001D800410126084001D7008731B0
:1000C800AA27803140015708DD005808DE0059088A
:1000D800DF008731EC27803140015D08AC005E0805
:1000E800AD005F08AE008631B426803140012C088F
:1000F800A3002D08A4002E08A500410137084001DF
:10010800A000410138084001A1004101390840011F
:10011800A2008C31F124803140012008E50021083B
:10012800E6002208E7006F08D8006E08D70087317C
:10013800AA27803140015708A3005808A40059088D
:10014800A50041013A084001A00041013B084001D7
:10015800A10041013C084001A2008C31F12480310A
:1001680040012008AF002108B0002208B10065084E
:10017800AC006608AD006708AE008631B426803151
:1001880040012C08E2002D08E3002E08E400620874
:10019800A3006308A4006408A5000030A000803014
:1001A800A100BF30A2008C31F12480314001200829
:1001B800C9002108CA002208CB008B31C123803135
:1001C80041013D0840014907E00041013E08400166
:1001D8004A3DE100600846018C0040016108460183
:1001E8008D0040016F08D8006E08D7008731AA2714
:1001F800803140015708AF005808B0005908B100D5
:10020800410127084001D800410126084001D700D4
:100218008731AA27803140015708DD005808DE00E1
:100228005908DF008731EC27803140015D08AC00B8
:100238005E08AD005F08AE008631B426803140010B
:100248002C08A3002D08A4002E08A500410137089A
:100258004001A000410138084001A10041013908CE
:100268004001A2008C31F124803140012008E500D2
:100278002108E6002208E7006F08D8006E08D700BA
:100288008731AA27803140015708A3005808A400E5
:100298005908A50041013A084001A00041013B0866
:1002A8004001A10041013C084001A2008C31F12429
:1002B800803140012008AF002108B0002208B100B9
:1002C8006508AC006608AD006708AE008631B42644
:1002D800803140012C08E2002D08E3002E08E400DC
:1002E8006208A3006308A4006408A5000030A00009
:1002F8008030A100BF30A2008C31F1248031400150
:100308002008C9002108CA002208CB008B31C1236C
:1003180041013D0840014907E00041013E08400114
:100328004A3DE1006008460190004001610846012D
:100338009100080040016F08803AE0007F306002B9
:10034800031DA8299C306E020318002B40011210CF
:100358009214121592116F08D8006E08D7008731D1
:10036800AA27803140015708AF005808B000590843
:10037800B100410127084001D80041012608400189
:10038800D7008731AA27803140015708DD00580877
:10039800DE005908DF008731EC27803140015D0815
:1003A800AC005E08AD005F08AE008631B42680312F
:1003B80040012C08A3002D08A4002E08A500410127
:1003C80037084001A000410138084001A10041015F
:1003D80039084001A2008C31F12480314001200805
:1003E800E5002108E6002208E7006F08D8006E083B
:1003F800D7008731AA27803140015708A300580841
:10040800A4005908A50041013A084001A000410193
:100418003B084001A10041013C084001A2008C3189
:10042800F124803140012008AF002108B0002208E3
:10043800B1006508AC006608AD006708AE008631FB
:10044800B426803140012C08E2002D08E3002E0874
:10045800E4006208A3006308A4006408A500003053
:10046800A0008030A100BF30A2008C31F12480317F
:1004780040012008C9002108CA002208CB008B319E
:10048800C123803141013D0840014907E000410195
:100498003E0840014A3DE100600846018C004001E9
:1004A800610846018D0040016F08D8006E08D7002A
:1004B8008731AA27803140015708AF005808B0009B
:1004C8005908B100410127084001D8004101260818
:1004D8004001D7008731AA27803140015708DD0045
:1004E8005808DE005908DF008731EC2780314001C9
:1004F8005D08AC005E08AD005F08AE008631B4262A
:10050800803140012C08A3002D08A4002E08A50066
:10051800410137084001A000410138084001A1000D
:10052800410139084001A2008C31F1248031400199
:100538002008E5002108E6002208E7006F08D80037
:100548006E08D7008731AA27803140015708A300D9
:100558005808A4005908A50041013A084001A00024
:1005680041013B084001A10041013C084001A200B3
:100578008C31F124803140012008AF002108B000FF
:100588002208B1006508AC006608AD006708AE0037
:100598008631B426803140012C08E2002D08E300A2
:1005A8002E08E4006208A3006308A4006408A500FC
:1005B8000030A0008030A100BF30A2008C31F124AF
:1005C800803140012008C9002108CA002208CB0058
:1005D8008B31C12341013D0840014907E000410139
:1005E8003E0840014A3DE100600846019000400194
:1005F800610846019100080040016F08803AE00058
:1006080080306002031D0A2B65306E02031C362CF5
:10061800400112149210121192156F08D8006E083A
:10062800D7008731AA27803140015708AF00580802
:10063800B0005908B100410127084001D800410124
:1006480026084001D7008731AA2780314001570882
:10065800DD005808DE005908DF008731EC278031BB
:1006680040015D08AC005E08AD005F08AE00863151
:10067800B426803140012C08A3002D08A4002E08C0
:10068800A500410137084001A00041013808400198
:10069800A100410139084001A2008C31F1248031C8
:1006A80040012008E5002108E6002208E7006F085D
:1006B800D8006E08D7008731AA2780314001570833
:1006C800A3005808A4005908A50041013A084001B0
:1006D800A00041013B084001A10041013C08400144
:1006E800A2008C31F124803140012008AF0021089C
:1006F800B0002208B1006508AC006608AD006708C4
:10070800AE008631B426803140012C08C9002D087E
:10071800CA002E08CB008B31C123803141013D082E
:1007280040014907E00041013E0840014A3DE1001F
:10073800600846018C004001610846018D004001B7
:100748006F08D8006E08D7008731AA27803140018A
:100758005708AF005808B0005908B10041012708F0
:100768004001D800410126084001D7008731AA2757
:10077800803140015708DD005808DE005908DF00C5
:100788008731EC27803140015D08AC005E08AD0080
:100798005F08AE008631B426803140012C08A300E2
:1007A8002D08A4002E08A500410137084001A0002B
:1007B800410138084001A100410139084001A20067
:1007C8008C31F124803140012008E5002108E60041
:1007D8002208E7006F08D8006E08D7008731AA27DB
:1007E800803140015708A3005808A4005908A50003
:1007F80041013A084001A00041013B084001A10025
:1008080041013C084001A2008C31F12480314001B3
:100818002008AF002108B0002208B1006508AC002C
:100828006608AD006708AE008631B4268031400105
:100838002C08C9002D08CA002E08CB008B31C12313
:1008480041013D0840014907E00041013E084001DF
:100858004A3DE100600846019000400161084601F8
:100868009100080040011210921412119215EF1F06
:100878008E2D6F08D8006E08D7008731AA278031DF
:1008880040015708AF005808B0005908B1004101AD
:1008980027084001D800410126084001D7008731C8
:1008A800AA27803140015708DD005808DE005908A2
:1008B800DF008731EC27803140015D08AC005E081D
:1008C800AD005F08AE008631B426803140012C08A7
:1008D800A3002D08A4002E08A500410137084001F7
:1008E800A000410138084001A10041013908400138
:1008F800A2008C31F124803140012008E500210854
:10090800E6002208E7006F08D8006E08D700873194
:10091800AA27803140015708A3005808A4005908A5
:10092800A50041013A084001A00041013B084001EF
:10093800A10041013C084001A2008C31F124803122
:1009480040012008AF002108B0002208B100650866
:10095800AC006608AD006708AE008631B426803169
:1009680040012C08E2002D08E3002E08E40062088C
:10097800A3006308A4006408A5000030A00080302C
:10098800A100BF30A2008C31F12480314001200841
:10099800C9002108CA002208CB008B31C12380314D
:1009A80041013D0840014907E00041013E0840017E
:1009B8004A3DE100600846018C004001610846019B
:1009C8008D0040016F08D8006E08D7008731AA272C
:1009D800803140015708AF005808B0005908B100ED
:1009E800410127084001D800410126084001D700ED
:1009F8008731AA27803140015708DD005808DE00FA
:100A08005908DF008731EC27803140015D08AC00D0
:100A18005E08AD005F08AE008631B4268031400123
:100A28002C08A3002D08A4002E08A50041013708B2
:100A38004001A000410138084001A10041013908E6
:100A48004001A2008C31F124803140012008E500EA
:100A58002108E6002208E7006F08D8006E08D700D2
:100A68008731AA27803140015708A3005808A400FD
:100A78005908A50041013A084001A00041013B087E
:100A88004001A10041013C084001A2008C31F12441
:100A9800803140012008AF002108B0002208B100D1
:100AA8006508AC006608AD006708AE008631B4265C
:100AB800803140012C08E2002D08E3002E08E400F4
:100AC8006208A3006308A4006408A5000030A00021
:100AD8008030A100BF30A2008C31F1248031400168
:100AE8002008C9002108CA002208CB008B31C12385
:100AF80041013D0840014907E00041013E0840012D
:100B08004A3DE10060084601900040016108460145
:100B18009100080040016F08D8006E08D70087319F
:100B2800AA27803140015708AF005808B00059087B
:100B3800B100410127084001D800410126084001C1
:100B4800D7008731AA27803140015708DD005808AF
:100B5800DE005908DF008731EC27803140015D084D
:100B6800AC005E08AD005F08AE008631B426803167
:100B780040012C08A3002D08A4002E08A50041015F
:100B880037084001A000410138084001A100410197
:100B980039084001A2008C31F1248031400120083D
:100BA800E5002108E6002208E7006F08D8006E0873
:100BB800D7008731AA27803140015708A300580879
:100BC800A4005908A50041013A084001A0004101CC
:100BD8003B084001A10041013C084001A2008C31C2
:100BE800F124803140012008AF002108B00022081C
:100BF800B1006508AC006608AD006708AE00863134
:100C0800B426803140012C08C9002D08CA002E08DE
:100C1800CB008B31C123803141013D084001490798
:100C2800E00041013E0840014A3DE10060084601FC
:100C38008C004001610846018D0040016F08D80012
:100C48006E08D7008731AA27803140015708AF00C6
:100C58005808B0005908B100410127084001D800E0
:100C6800410126084001D7008731AA278031400179
:100C78005708DD005808DE005908DF008731EC27E7
:100C8800803140015D08AC005E08AD005F08AE0031
:100C98008631B426803140012C08A3002D08A40019
:100CA8002E08A500410137084001A000410138087D
:100CB8004001A100410139084001A2008C31F12412
:100CC800803140012008E5002108E6002208E700FD
:100CD8006F08D8006E08D7008731AA2780314001F5
:100CE8005708A3005808A4005908A50041013A086C
:100CF8004001A00041013B084001A10041013C081E
:100D08004001A2008C31F124803140012008AF005D
:100D18002108B0002208B1006508AC006608AD00E3
:100D28006708AE008631B426803140012C08C9001E
:100D38002D08CA002E08CB008B31C12341013D0884
:100D480040014907E00041013E0840014A3DE100F9
:100D580060084601900040016108460191000800C2
:100D680040012C08B2002D08B3002E08B40003106F
:100D7800330D340DB5003508B8002F08B20030081F
:100D8800B3003108B4000310330D340DB500350835
:100D9800B70038080319DC2E370838020318E32E89
:100DA8003803FF3A3707B20019303202031CE32E2A
:100DB8002F08AC003008AD003108AE000800370835
:100DC80003190800380837020318F22E3703FF3AD0
:100DD8003807B20019303202031808000630B20092
:100DE8003208B600AE1BB617B11B3617AD17FF3069
:100DF800AC05FF30AD050030AE05B017FF30AF05CC
:100E0800FF30B0050030B1053708380203182E2F1F
:100E18000130AF35B00DB10D890B0D2F0130B70280
:100E2800370838060319292F0130B6023608073962
:100E38000319292F0C2F0130AE36AD0CAC0C890BE1
:100E4800202F0130B2003208B807380837060319D6
:100E5800532F1F2F380837020318532F0130AC3592
:100E6800AD0DAE0D890B332F0130B80237083806A7
:100E780003194F2F0130B6023608073903194F2FCF
:100E8800322F0130B136B00CAF0C890B462F013030
:100E9800B2003208B70738083706031D452FB61FBA
:100EA800652FFF30AC06FF30AD06FF30AE060130CF
:100EB800AC07003003180130AD07003003180130CB
:100EC800AE07361F772FFF30AF06FF30B006FF3072
:100ED800B1060130AF07003003180130B007003009
:100EE80003180130B107B6012C08AF072D08B03D33
:100EF8002E08B13DB11F922FFF30AF06FF30B0066C
:100F0800FF30B1060130AF07003003180130B007D9
:100F1800003003180130B107B601B60A2F08F100F6
:100F28003008F2003108F3003808B2003208F40043
:100F38003608B3003308F5008A31E522710840010C
:100F4800AC007208AD007308AE0008004001DC0177
:100F5800D81FB52FD709D809D70A0319D80ADC0131
:100F6800DC0A5708F1005808F200F3018E30DA0065
:100F78005A08F4005C08DB005B08F5008A31E522BA
:100F880071084001D7007208D8007308D90008001A
:100F98007908F1007A08F200F3018E30FC007C0831
:100FA800F400F5018A31E5227108F9007208FA00A7
:100FB8007308FB000800003470344234E7347B3493
:100FC8003E345A34E4343E34BC3402340134003400
:100FD80040015F085E045D04031908008030DF06E5
:0E0FE8000800FE0012001E00FE0BF62F003463
:1015BE00640080010131890BE02A0034740803199C
:1015CE00ED2A730872047104031DFE2A0030F10027
:1015DE000030F2000030F30008000130F60076080B
:1015EE00F4070130F336F20CF10C890BF92AFE30B8
:1015FE0073050319172BF42A0130F6007608F40749
:10160E000130F107003003180130F20700300318E3
:10161E000130F3070130F336F20CF10C890B122B6B
:10162E00FF3073050319242B032B0130F402013014
:10163E00F135F20DF30D890B1F2BF21B2A2B023005
:10164E00740203181C2B7418322BFF30F1057F30F7
:10165E00F205FF30F3050310F40C7408F600F701E1
:10166E00F8011030F635F70DF80D890B392B760889
:10167E00F1047708F2047808F304750803190800DA
:10168E00F317080051011308F8390638930040018A
:10169E008C017E01B80140011110911411119115A8
:1016AE00111291168D01FF307E01C300FF304001F3
:1016BE0092000130450190008E17F0308E050E0815
:1016CE008F3940388E00FF308D0009307E01980032
:1016DE000930990046018E170E120F308E04440108
:1016EE001E08FC3901389E000A307E019A000A302D
:1016FE009B004601921712120F30920444011E08ED
:10170E00F33904389E004E0110101A148B170B1764
:10171E001A1444010E08CF3920388E001108F03902
:10172E00013891000E1540011210121100304601C1
:10173E008D00C8308C0000309100C83090002930E8
:10174E004001ED009630EC007F30890BAC2BEC0B9A
:10175E00AC2BED0BAC2B8D31A5258B3180312B2095
:10176E008B3140016F084101A70040016E08410115
:10177E00A600B22B40014908CD004A08CE004B0806
:10178E00CF0003104E0D4F0DD0005008D600560856
:10179E00031DDA2B0030CC000030CB000030CA0025
:1017AE000030C90008004908CD004A08CE004B0899
:1017BE00CF001730CF36CE0CCD0C890BE12B4D0858
:1017CE00D0005008D100CA17FF30C905FF30CA0536
:1017DE000030CB054908D2004A08D3004B08D4008C
:1017EE00D5018E30D602D61F182C5608803A8F3E61
:1017FE0003180A2C0030CC000030CB000030CA0099
:10180E000030C90008000130D536D40CD30CD20CF0
:10181E00890B0B2C0130CD004D08D6070319312C46
:10182E000A2C18305602031C2E2C0030CC0000302F
:10183E00CB000030CA000030C90008000130D2359C
:10184E00D30DD40DD50D890B262C0130D60256089A
:10185E00031D252C510803193F2CD209D309D40995
:10186E00D509D20A0319D30A0319D40A0319D50AC2
:10187E005508CC005408CB005308CA005208C900C2
:10188E00080040013C08BF003D08C0003E08C100F2
:10189E000310400D410DC2004208C7004708031D4A
:1018AE005F2C0030B9000030BA000030BB000800D9
:1018BE003908BF003A08C0003B08C1000310400DB4
:1018CE00410DC2004208C8004808031D752C0030A7
:1018DE00B9000030BA000030BB0008000030C40070
:1018EE000030C5000030C60089304807BF003F08F1
:1018FE00C7023C08BF003D08C0003E08C1001030C2
:10190E00C136C00CBF0C890B872C3F08C2004208A1
:10191E00C8003908BF003A08C0003B08C1001030AB
:10192E00C136C00CBF0C890B972C3F08C200420871
:10193E00C8068030BF003F08C805BD17FF30BC0584
:10194E00FF30BD050030BE05BA17FF30B905FF30B8
:10195E00BA050030BB051830BF003F08C300013088
:10196E00C435C50DC60D890BB72C3B083E02031DB1
:10197E00C62C3A083D02031DC62C39083C02031C36
:10198E00CF2C3908BC023A08BD3B3B08BE3B441481
:10199E000130BC35BD0DBE0D890BD02C0130C302FC
:1019AE00031DB62C4408F1004508F2004608F3006A
:1019BE004708BF003F08F4004808C0004008F50083
:1019CE008A31E52271084001B9007208BA00730825
:1019DE00BB00080040012008F9002108FA00220887
:1019EE00FB0003107A0D7B0DFC007C08A600260878
:1019FE00031D082D0030A0000030A1000030A20011
:101A0E0008002308F9002408FA002508FB0003103B
:101A1E007A0D7B0DFC007C08AB002B08031D1E2DE0
:101A2E000030A0000030A1000030A20008002B08FA
:101A3E007B3EF9007908A6072008F9002108FA0074
:101A4E002208FB001030FB36FA0CF90C890B2A2DFC
:101A5E007908FC007C08AB002308F9002408FA0082
:101A6E002508FB001030FB36FA0CF90C890B3A2DC9
:101A7E007908FC007C08AB068030F9007908AB05CC
:101A8E00A117A417FF30A305FF30A4050030A5054C
:101A9E000030A7000030A8000030A9000730F90080
:101AAE007908AA00201C612D2308A7072408A83D49
:101ABE002508A93D0130A236A10CA00C890B622D80
:101ACE000130A335A40DA50D890B682D0130AA0296
:101ADE00031D592D0930F9007908AA00201C7D2D0F
:101AEE002308A7072408A83D2508A93D0130A236E2
:101AFE00A10CA00C890B7E2D0130A936A80CA70CC9
:101B0E00890B842D0130AA02031D752D2708F100C3
:101B1E002808F2002908F3002608F9007908F400D5
:101B2E002B08FA007A08F5008A31E5227108400187
:101B3E00A0007208A1007308A200080044018C01E5
:101B4E008D01400116141A30890BAB2D0032400165
:101B5E0016108C1CB02D44010E1440018C18B42D9F
:101B6E0044010E1024304001B900F430BA0049305F
:101B7E00BB0044010D08FA000C08F9008731CC2790
:101B8E008D3179084001BC007A08BD007B08BE008B
:101B9E008C3148248D31400139084101B10040019A
:101BAE003A084101B20040013B084101B3003F0930
:101BBE004001DD00410140094001DE00DD0A03194C
:101BCE00DE0A410131084001A30041013208400103
:101BDE00A400410133084001A500D030A00004301C
:101BEE00A1004730A2008C31F1248D314001200834
:101BFE00BC002108BD002208BE000030B900003034
:101C0E00BA004030BB008C3148248D314001390878
:101C1E00C9003A08CA003B08CB008B31C1238D3175
:101C2E0040015D084907D7005E084A3DD80087315C
:101C3E00AA278D31400157084101A80040015808DC
:101C4E004101A900400159084101AA0044018C013B
:101C5E008D01400116151A30890B332E00324001CA
:101C6E0016118C1D382E44010E1440018C193C2E79
:101C7E0044010E1024304001B900F430BA0049304E
:101C8E00BB0044010D08FA000C08F9008731CC277F
:101C9E008D3179084001BC007A08BD007B08BE007A
:101CAE008C3148248D31400139084101AE0040018C
:101CBE003A084101AF0040013B084101B0003F0925
:101CCE004001DD00410140094001DE00DD0A03193B
:101CDE00DE0A41012E084001A30041012F084001F8
:101CEE00A400410130084001A500D030A00004300E
:101CFE00A1004730A2008C31F1248D314001200823
:101D0E00BC002108BD002208BE000030B900003022
:101D1E00BA004030BB008C3148248D314001390867
:101D2E00C9003A08CA003B08CB008B31C1238D3164
:101D3E0040015D084907D7005E084A3DD80087314B
:101D4E00AA278D31400157084101A30040015808D0
:101D5E004101A400400159084101A50044018C0134
:101D6E008D01400116161A30890BBB2E0032400130
:101D7E0016128C1EC02E44010E1440018C1AC42E55
:101D8E0044010E1024304001B900F430BA0049303D
:101D9E00BB0044010D08FA000C08F9008731CC276E
:101DAE008D3179084001BC007A08BD007B08BE0069
:101DBE008C3148248D31400139084101AB0040017E
:101DCE003A084101AC0040013B084101AD003F091A
:101DDE004001DD00410140094001DE00DD0A03192A
:101DEE00DE0A41012B084001A30041012C084001ED
:101DFE00A40041012D084001A500D030A000043000
:101E0E00A1004730A2008C31F1248D314001200811
:101E1E00BC002108BD002208BE000030B900003011
:101E2E00BA004030BB008C3148248D314001390856
:101E3E00C9003A08CA003B08CB008B31C1238D3153
:101E4E0040015D084907D7005E084A3DD80087313A
:101E5E00AA278D31400157084101A00040015808C2
:101E6E004101A100400159084101A200280840018A
:101E7E00A300410129084001A40041012A084001A4
:101E8E00A5000030A0000030A1000030A2008C316F
:101E9E00F1248D3140012008AF002108B000220846
:101EAE00B100410123084001A30041012408400173
:101EBE00A400410125084001A5000030A0007A30A1
:101ECE00A1004430A2008C31F1248D314001200854
:101EDE00AC002108AD002208AE008631B4268D314B
:101EEE0040012C08DF002D08E0002E08E100410122
:101EFE0028084001AF00410129084001B00041010E
:101F0E002A084001B100410123084001AC00410103
:101F1E0024084001AD00410125084001AE00863184
:101F2E00B4268D3140012C08E2002D08E3002E0866
:101F3E00E4005F08AF006008B0006108B100410125
:101F4E0020084001A300410121084001A4004101E5
:101F5E0022084001A5000030A000FA30A100443054
:101F6E00A2008C31F1248D3140012008AC002108F3
:101F7E00AD002208AE008631B4268D3140012C080A
:101F8E00BC002D08BD002E08BE006208AF0063081D
:101F9E00B0006408B100410120084001AC004101CD
:101FAE0021084001AD00410122084001AE008631FA
:101FBE00B4268D3140012C08B9002D08BA002E0828
:101FCE00BB008C3148248D3140013908C9003A08D4
:101FDE00CA003B08CB008B31C12340014A08EF00F9
:101FEE004908EE006E08183EEE00FC306F3DEF0023
:021FFE000800D9
:020000040001F9
:0A000E008C3FFD3F9F3FFF3FFF3F87
:00000001FF
