:08000000803102288731FD2F39
:100F920051011308F83906389300400193178E0166
:100FA20042011E129E169D159F151E1540309B0074
:100FB2004130F6000030F7007708803AF4008030C4
:100FC2007402031DE62F5C3076020318D92F7608CF
:100FD20042019A009E100930F5001E30F400E43000
:100FE200890BF12FF40BF12FF50BF12F00320130A9
:0E0FF200F6070030F73DDD2F40018731C92F93
:020000040001F9
:0A000E008C3FFD3F9F3FFF3FFF3F87
:00000001FF
