:0400000080317728AC
:100008007E14803140017F08FD007E014A1C722861
:10001800400168084101BF00400167084101BE0076
:1000280040016A08F7006908F60041013F08F1003D
:100038003E08F0006430F2000030F30094310724E9
:1000480080317108F9007008F8009531A7258031D2
:1000580077084101B7007608B6003E09FB003F0962
:10006800FC00FB0A0319FC0A400169087B074101EF
:10007800BE0040016A087C3D4101BF00B430F60073
:100088000030F7003F08F1003E08F0005330F2005E
:100098000030F3009431072480317108F9007008AA
:1000A800F8009531A725803177084101BD00760811
:1000B800BC003D08F1003C08F00088310220803186
:1000C800400196140B30FB006230890B6928FB0B4A
:1000D80069280032400196107E01CA017D0840015E
:1000E800FF007E100900803179288731FC27803194
:1000F800E9008731FD278031EA00F430840093302D
:100108008500D73086000030870013309331D32321
:100118008031D93084009330850045308600013025
:1001280087000C309331D3238031E701E801A030F8
:1001380084000030850022309331CD238031203077
:1001480084000130850025309331CD237E10400195
:100158008031AE2851011308F839063893007E0122
:100168005A15CF1740018D017E014310400112142A
:100178007E01C3104001921410307E019A004001A4
:100188008C017E013810400111107E01B810400129
:1001980091107E013813B81340018E017E014E1074
:1001A800CE104E11CE114E16CE16400113169316D0
:1001B8007E014E13400113177E01CE1340019317A1
:1001C8008F017E015910400114107E01D9104001A1
:1001D80094107E015911400114157E01D911400176
:1001E800941142019D179E161E129F111E11333045
:1001F8009B0041019317131313161308F33904389E
:1002080093001A12FC309A057E014914CA014E0166
:100218000C1216168B1789316D21803101309631F9
:10022800D22680310C309631D226803105304101FA
:10023800D4000F30D300F130890B2029D30B2029AB
:10024800D40B2029400116144101620840016707B8
:10025800E700410163084001683DE8008E31292626
:10026800803141016609D3006709D400D30A031914
:10027800D40A34085307B0003508543DB10031089A
:100288004001AD00410130084001AC0094313E24EA
:10029800803140012C08B5002D08B6002E08B700A3
:1002A800410157084001B200410158084001B3001C
:1002B800410159084001B4008A311A2280314001B5
:1002C8003208DF003308E0003408E10088312520D7
:1002D8008031400160084101AF0040015F084101E1
:1002E800AE0040016A08803A4101D3002D08803AE7
:1002F8005302031D82292C084001690203188B2927
:1003080041012008A3002108A4002208102A410165
:1003180031084001AD00410130084001AC00943182
:100328003E24803140012C08B2002D08B3002E086D
:10033800B400410161084001AD004101600840017D
:10034800AC0094313E24803140012C08B5002D08C2
:10035800B6002E08B7008A311A22803140013208CF
:100368004201D100400133084201D2004001340863
:100378004201D300410120084001D2004101210877
:100388004001D300410122084001D4004201450840
:100398004001C200420146084001C300420147082B
:1003A8004001C400410157084001B200410158080A
:1003B8004001B300410159084001B400420151080D
:1003C8004001B500420152084001B60042015308FD
:1003D8004001B7008A311A22803140013208C50035
:1003E8003308C6003408C7008831C4208031400172
:1003F8004208D5004308D6004408D7008B31A7230C
:100408008031400152084101A300400153084101D5
:10041800A400400154084101A5002F084001AD0087
:1004280041012E084001AC0094313E248031400146
:100438002C08D5002D08D6002E08D70041016308E6
:100448004001AD00410162084001AC0094313E24F6
:10045800803140012C08D2002D08D3002E08D4008A
:100468008B31A7238031400152084201D40040015A
:1004780053084201D500400154084201D6005408EF
:100488004001D500420155084001D60042015608F6
:100498004001D700410123084001D200410124084E
:1004A8004001D300410125084001D4008B31A72326
:1004B800803140015208DF005308E0005408E10091
:1004C80088312520803140016008E8005F08E70096
:1004D8006A08803A4101D30040016808803A410126
:1004E8005302031D7A2A4001670869020318822A09
:1004F80040016A08E8006908E700872A4001E81F08
:10050800872AE701E80141012308A0002408A10087
:100518002508A200400168084101AD0040016708B4
:100528004101AC001B304001B3009830B4004101D8
:100538003F084001B60041013E084001B5004101B5
:1005480035084001B800410134084001B700353092
:100558008C319D2480314001A70135304101D30001
:1005680053084001A80001309431F42480312B3025
:100578004001B3009830B400410167084001B6005B
:10058800410166084001B5006808B8006708B7006F
:1005980025308C319D2480314001A701253041014F
:1005A800D30053084001A80002309431F42480316C
:1005B80040010E1F042B4101400841040319EE2A93
:1005C800FD2A400119140F19EE2A01304101C0001B
:1005D8000030C1004101400841040319E52A4001E7
:1005E8001910042B400199148E1BFD2A4101C001EA
:1005F800C1014101400341040319F62A4001991041
:100608001E30410164066504031D9A2F6708803A6D
:10061800D30080305302031D132B0A3066020318DF
:100628002E2C4101E71B2E2C00304001B300B400F2
:1006380094318D2480314001330842019A009E1C78
:10064800232B00304001B300B40094318D24803155
:100658004001330842019A009E1C302B4101670873
:100668004001B400410166084001B30094318D2473
:1006780080314001330842019A009E1C412B6430AE
:100688004001A4000030A500410135084001A70041
:10069800410134084001A6008731AA278031400172
:1006A8002508B4002408B30094318D24803140011A
:1006B800330842019A009E1C5F2B0A304001A400B7
:1006C8000030A500410135084001A7004101340868
:1006D8004001A6008731AA27803140012508B400CF
:1006E8002408B30094318D2480314001330842013D
:1006F8009A009E1C7D2B0A304001A4000030A50002
:10070800410135084001A700410134084001A60015
:100718008731AA27803140012508AE002408AD00A2
:100728000A30AF000030B0009431222480314001FB
:100738002D094101D30040012E094101D400D30AFB
:100748000319D40A340853074001B300410135089E
:10075800543D4001B40094318D2480314001330868
:1007680042019A009E1CB62B64304001A400003060
:10077800A500410137084001A700410136084001A2
:10078800A6008731AA27803140012508B400240833
:10079800B30094318D2480314001330842019A001E
:1007A8009E1CD42B0A304001A4000030A500410152
:1007B80037084001A700410136084001A6008731EB
:1007C800AA27803140012508B4002408B3009431D9
:1007D8008D2480314001330842019A009E1CF22B7F
:1007E8000A304001A4000030A5004101370840014B
:1007F800A700410136084001A6008731AA278031A9
:1008080040012508AE002408AD000A30AF000030D2
:10081800B00094312224803140012D094101D300D8
:1008280040012E094101D400D30A0319D40A36081D
:1008380053074001B30041013708543D4001B4005B
:1008480094318D2480314001330842019A009E1C66
:100858002B2C942F41016708803AD3008030530233
:10086800031D382C0A306602031C1D2E410167083F
:10087800803AD30080305302031D442C6430660252
:1008880003181D2E00304001B300B40094318D24AC
:1008980080314001330842019A009E1C512C0A30D5
:1008A8004001A4000030A500410167084001A700ED
:1008B800410166084001A6008731AA27803140011E
:1008C8002508B4002408B30094318D2480314001F8
:1008D800330842019A009E1C6F2C0A304001A40084
:1008E8000030A500410167084001A70041016608E2
:1008F8004001A6008731AA27803140012508AE00B3
:100908002408AD000A30AF000030B0009431222432
:10091800803140012D094101D30040012E094101D8
:10092800D400D30A0319D40A660853074001B30058
:1009380041016708543D4001B40094318D24803151
:100948004001330842019A009E1CA82C64304001E3
:10095800A4000030A500410135084001A70041016D
:1009680034084001A6008731AA27803140012508B4
:10097800B4002408B30094318D2480314001330839
:1009880042019A009E1CC62C0A304001A400003087
:10099800A500410135084001A70041013408400184
:1009A800A6008731AA27803140012508B400240811
:1009B800B30094318D2480314001330842019A00FC
:1009C8009E1CE42C0A304001A4000030A50041011F
:1009D80035084001A700410134084001A6008731CD
:1009E800AA27803140012508AE002408AD000A304E
:1009F800AF000030B00094312224803140012D092D
:100A08004101D30040012E094101D400D30A031942
:100A1800D40A340853074001B30041013508543D56
:100A28004001B40094318D248031400133084201E3
:100A38009A009E1C1D2D64304001A4000030A500C2
:100A4800410137084001A700410136084001A600CE
:100A58008731AA27803140012508B4002408B30053
:100A680094318D2480314001330842019A009E1C44
:100A78003B2D64304001A4000030A5004101370837
:100A88004001A700410136084001A6008731AA2786
:100A9800803140012508AE002408AD006430AF0065
:100AA8000030B00094312224803140012D094101E9
:100AB800D30040012E094101D400D30A0319D40AF6
:100AC800360853074201D70041013708543D420117
:100AD800D8000A304001A4000030A500420158089F
:100AE8004001A700420157084001A6008731AA2704
:100AF800803140012508B4002408B30094318D24C6
:100B080080314001330842019A009E1C892D6430CF
:100B18004001A4000030A500410137084001A700AA
:100B2800410136084001A6008731AA2780314001DB
:100B38002508AE002408AD006430AF000030B000D6
:100B480094312224803140012D094101D300400114
:100B58002E094101D400D30A0319D40A36085307D1
:100B68004201D70041013708543D4201D8006430A2
:100B78004001A4000030A500410137084001A7004A
:100B8800410136084001A6008731AA27803140017B
:100B98002508AE002408AD006430AF000030B00076
:100BA80094312224803140012D084101D3004001B5
:100BB8002E084101D4000A304001A4000030A500ED
:100BC800420158084001A700420157084001A60009
:100BD8008731AA27803140012508AE002408AD00DE
:100BE8000A30AF000030B000943122248031400137
:100BF8002D0841015307D50040012E084101543DFD
:100C0800D600D509D609D50A0319D60A36085507D4
:100C18004001B30041013708563D4001B40094310A
:100C28008D2480314001330842019A009E1C1A2EFF
:100C3800942F41016708803AD30080305302031D86
:100C4800272E64306602031C962F41016708803AFC
:100C5800D30083305302031D332EE8306602031895
:100C6800962F64304001A4000030A50041016708B8
:100C78004001A700410166084001A6008731AA2764
:100C8800803140012508B4002408B30094318D2434
:100C980080314001330842019A009E1C512E0A30CF
:100CA8004001A4000030A500410167084001A700E9
:100CB800410166084001A6008731AA27803140011A
:100CC8002508B4002408B30094318D2480314001F4
:100CD800330842019A009E1C6F2E0A304001A4007E
:100CE8000030A500410167084001A70041016608DE
:100CF8004001A6008731AA27803140012508AE00AF
:100D08002408AD000A30AF000030B000943122242E
:100D1800803140012D094101D30040012E094101D4
:100D2800D400D30A0319D40A660853074001B30054
:100D380041016708543D4001B40094318D2480314D
:100D48004001330842019A009E1CA82E64304001DD
:100D5800A4000030A500410135084001A700410169
:100D680034084001A6008731AA27803140012508B0
:100D7800B4002408B30094318D2480314001330835
:100D880042019A009E1CC62E0A304001A400003081
:100D9800A500410135084001A70041013408400180
:100DA800A6008731AA27803140012508B40024080D
:100DB800B30094318D2480314001330842019A00F8
:100DC8009E1CE42E0A304001A4000030A500410119
:100DD80035084001A700410134084001A6008731C9
:100DE800AA27803140012508AE002408AD000A304A
:100DF800AF000030B00094312224803140012D0929
:100E08004101D30040012E094101D400D30A03193E
:100E1800D40A340853074001B30041013508543D52
:100E28004001B40094318D248031400133084201DF
:100E38009A009E1C1D2F64304001A4000030A500BC
:100E4800410137084001A700410136084001A600CA
:100E58008731AA27803140012508B4002408B3004F
:100E680094318D2480314001330842019A009E1C40
:100E78003B2F0A304001A4000030A500410137088B
:100E88004001A700410136084001A6008731AA2782
:100E9800803140012508B4002408B30094318D2422
:100EA80080314001330842019A009E1C592F0A30B4
:100EB8004001A4000030A500410137084001A70007
:100EC800410136084001A6008731AA278031400138
:100ED8002508AE002408AD000A30AF000030B0008D
:100EE80094312224803140012D094101D300400171
:100EF8002E094101D400D30A0319D40A360853072E
:100F08004001B30041013708543D4001B400943119
:100F18008D2480314001330842019A009E1C922F93
:100F28007E309A004101E401E501A02F6408013EEA
:100F3800E4000030653DE50068304101D300E4304D
:100F4800890BA42FD30BA42F000032294001AA013A
:100F5800A51FB52FA409A509A40A0319A50AAA0162
:100F6800AA0AA71FC02FA609A709A60A0319A70A34
:100F78000130A8002808AA06AB01AC012408250402
:100F88000319EF2FA901A90AA51BD42F0130A435F5
:100F9800A50D890BCB2F0130A8002808A907C82F59
:100FA8000130AB35AC0D890BD52F25082702031D61
:100FB800DF2F24082602031CE62F2408A602250892
:100FC800A73B2B140130A536A40C890BE72F013061
:100FD800A902031DD42F2A080319F72FAB09AC095E
:100FE800AB0A0319AC0A2C08A5002B08A4000800BA
:040FF800703400341D
:1010040070080A3EF0000030713DF1007108803A2A
:10101400F20041016908803A7202031D132868082E
:101024007002031C1F28A0300032890B16280130DF
:101034004101E8070030E93D082801304101E8009A
:101044000030E900080040015F08E3006008E400A4
:101054006108E5000310640D650DE60066084101B2
:10106400C7004708031D402800304001E20000305B
:10107400E1000030E0000030DF00080040015F08BC
:10108400E3006008E4006108E5001730E536E40C8D
:10109400E30C890B48286308E60066084101C20096
:1010A4004001E017FF30DF05FF30E0050030E105C7
:1010B4005F084101C300400160084101C4004001D0
:1010C40061084101C500C6018E30C702C71F8A28C6
:1010D4004708803A8F3E0318792800304001E20027
:1010E4000030E1000030E0000030DF000800013093
:1010F4004101C636C50CC40CC30C890B7A280130D7
:101104004001E30063084101C7070319A6287928B1
:1011140018304702031CA22800304001E2000030CE
:10112400E1000030E0000030DF0008000130410140
:10113400C335C40DC50DC60D890B99280130C702EE
:1011440041014708031D982842080319B428C3091C
:10115400C409C509C609C30A0319C40A0319C50A7F
:101164000319C60A46084001E2004101450840014E
:10117400E100410144084001E0004101430840010D
:10118400DF00080040014508C8004608C9004708B8
:10119400CA000310490D4A0DCB004B08D00050087B
:1011A400031DDB280030C2000030C3000030C4003F
:1011B40008004208C8004308C9004408CA000310D4
:1011C400490D4A0DCB004B08D1005108031DF128ED
:1011D4000030C2000030C3000030C40008000030FA
:1011E400CD000030CE000030CF0089305107C80058
:1011F4004808D0024508C8004608C9004708CA0084
:101204001030CA36C90CC80C890B03294808CB0016
:101214004B08D1004208C8004308C9004408CA006A
:101224001030CA36C90CC80C890B13294808CB00E6
:101234004B08D1068030C8004808D105C617FF30D6
:10124400C505FF30C6050030C705C317FF30C2050A
:10125400FF30C3050030C4051830C8004808CC006E
:101264000130CD35CE0DCF0D890B3329440847020B
:10127400031D422943084602031D42294208450230
:10128400031C4B294208C5024308C63B4408C73B1C
:101294004D140130C535C60DC70D890B4C290130DD
:1012A400CC02031D32294D08A4004E08A5004F08A6
:1012B400A6005008C8004808A7005108C9004908FA
:1012C400A8009531F92540012408C2002508C3006F
:1012D4002608C40008004001931113119310131041
:1012E400911311138E110E118E100E108C130C13FA
:1012F4003A304001A7002330890B7E29A70B7E29B1
:101304003A304001A7002330890B8629A70B862990
:101314003A304001A7002330890B8E29A70B8E2970
:101324003A304001A7002330890B9629A70B962950
:101334003A304001A7002330890B9E29A70B9E2930
:101344003A304001A7002330890BA629A70BA62910
:101354004001A801A80A043028020318D9298E11D3
:101364000E118E140E148C130C138E110E118E1478
:101374000E148C170C130D30890BBE29000040018C
:101384008E110E118E140E148C130C133A3040016E
:10139400A7002330890BCC29A70BCC2901304001AD
:1013A400A7002708A80704302802031CB1298E11BE
:1013B4000E118E140E108C130C138E110E118E142C
:1013C4000E108C170C130D30890BE6290000400118
:1013D4008E110E118E140E108C130C133A30400122
:1013E400A7002330890BF429A70BF42928304001E6
:1013F400A7002708A80028089631D2268931103082
:101404004001A7002708A80028089631D226893170
:101414004001A801A80A28089631D22689310F3044
:101424004001A7002708A80028089631D226080002
:1014340040013208B8003308B9003408BA00031078
:10144400390D3A0DBB003B08BC003C08031D312A92
:101454000030B2000030B3000030B400080035089A
:10146400B8003608B9003708BA000310390D3A0D30
:10147400BB003B08C1004108031D472A0030B200ED
:101484000030B3000030B400080041087B3EB800CF
:101494003808BC073208B8003308B9003408BA0069
:1014A4001030BA36B90CB80C890B532A3808BB0073
:1014B4003B08C1003508B8003608B9003708BA003F
:1014C4001030BA36B90CB80C890B632A3808BB0043
:1014D4003B08C1068030B8003808C105B317B617F9
:1014E400FF30B505FF30B6050030B7050030BD004C
:1014F4000030BE000030BF000730B8003808C0001C
:10150400321C8A2A3508BD073608BE3D3708BF3D60
:101514000130B436B30CB20C890B8B2A0130B535CB
:10152400B60DB70D890B912A0130C002031D822A22
:101534000930B8003808C000321CA62A3508BD0797
:101544003608BE3D3708BF3D0130B436B30CB20C8B
:10155400890BA72A0130BF36BE0CBD0C890BAD2AFE
:101564000130C002031D9E2A3D08A4003E08A500C8
:101574003F08A6003C08B8003808A7004108B90095
:101584003908A8009531F92540012408B20025083E
:10159400B3002608B4000800410145084001A40036
:1015A400410146084001A500410147084001A60049
:1015B4000030A7000030A8000030A90095312F2585
:1015C4008A310318F22A21304201A3000030A4001A
:1015D40000304101C5000030C6000030C7000800DB
:1015E4004101470846044504031D052B22304201EE
:1015F400A3000030A40000304101C5000030C60043
:101604000030C700080000304001D2008030D30011
:10161400BF30D4000030B2000030B3004030B4001A
:10162400C830E6006608A700410145084001A4004F
:10163400410146084001A500410147084001A600B8
:1016440095316B258A3140012408B5002508B60080
:101654002608B7008A311A228A3140013208D5009F
:101664003308D6003408D7008B31A7238A314001D0
:1016740052084101C500400153084101C600400120
:1016840054084101C700FF30C807FF30C93D450871
:101694004001DF00410146084001E00041014708E4
:1016A4004001E1000030E2009830E3000830E4003B
:1016B4000030E50096315E268A3140015F08410121
:1016C400C500400160084101C600400161084101B4
:1016D400C70045084001D200410146084001D3003B
:1016E400410147084001D4007230B2003130B300E8
:1016F4003F30B400410149084001AD0041014808B0
:101704004001AC0094313E248A3140012C08B500DC
:101714002D08B6002E08B7008A311A228A314001FA
:101724003208D5003308D6003408D7008B31A723FC
:10173400400152084101C500400153084101C6005F
:10174400400154084101C700080040015208D80074
:101754005308D9005408DA000310590D5A0DDB0060
:101764005B08DE005508D8005608D9005708DA008F
:101774000310590D5A0DDB005B08DD005E080319E8
:10178400CF2B5D085E020318D62B5E03FF3A5D077C
:10179400D80019305802031CD62B5508D20056081D
:1017A400D3005708D40008005D08031908005E0838
:1017B4005D020318E52B5D03FF3A5E07D80019307C
:1017C4005802031808000630D8005808DC00D41B5F
:1017D400DC17D71B5C17D317FF30D205FF30D305B6
:1017E4000030D405D617FF30D505FF30D6050030BC
:1017F400D7055D085E020318212C0130D535D60DBE
:10180400D70D890B002C0130DD025D085E0603193B
:101814001C2C0130DC025C08073903191C2CFF2B3B
:101824000130D436D30CD20C890B132C0130D800E0
:101834005808DE075E085D060319462C122C5E0864
:101844005D020318462C0130D235D30DD40D890B1B
:10185400262C0130DE025D085E060319422C01309D
:10186400DC025C0807390319422C252C0130D736D9
:10187400D60CD50C890B392C0130D8005808DD075B
:101884005E085D06031D382CDC1F582CFF30D20681
:10189400FF30D306FF30D4060130D20700300318DE
:1018A4000130D307003003180130D4075C1F6A2CC1
:1018B400FF30D506FF30D606FF30D7060130D507F6
:1018C400003003180130D607003003180130D70761
:1018D400DC015208D5075308D63D5408D73DD71F1D
:1018E400852CFF30D506FF30D606FF30D7060130F1
:1018F400D507003003180130D60700300318013033
:10190400D707DC01DC0A5508A4005608A5005708CF
:10191400A6005E08D8005808A7005C08D90059083A
:10192400A8009531F92540012408D2002508D300E8
:101934002608D40008004001C4003530B900390835
:10194400BD0040013408BA003308B900B30A0319D2
:10195400B40A390884003A0885000008BB003B0833
:10196400C50045080319222E253045060319C72C46
:101974004508B90044088600013087003908810011
:101984000130B9003908C407A32CC201C301C10145
:10199400D02C41150130B3070030B43D3308840026
:1019A400340885000008303A0319CB2CD92C3308AD
:1019B40084003408850000089331E5238C31031C2E
:1019C400142D4001C201C3010A304001AD000030B2
:1019D400AE004308B0004208AF00943122248C3199
:1019E40040012E08C3002D08C200330884003408C7
:1019F40085000008D03EB900FF3003180030BA005B
:101A04003908C2073A08C33D0130B3070030B43D7A
:101A1400330884003408850000089331E5238C31B1
:101A24000318E62C40013408BA003308B900B30A9D
:101A34000319B40A390884003A0885000008C5006F
:101A4400003A0319222E643A03192C2D0D3A031976
:101A54002C2DA32C40013D0886008701403FBF0088
:101A6400413FC0000230B9003908BD07C01F432DF3
:101A74000330B9003908C104BF09C009BF0A0319FA
:101A8400C00AC501C50A053045060319682D450875
:101A9400B900BA01B935BA0D393039078400983024
:101AA4003A3D8500003FBB00013FBC003C084002BA
:101AB400031D5E2D3B083F02031C682D0130B90055
:101AC4003908C50705304506031D492D420843045E
:101AD4000319742D410803390319742DFF30C2070B
:101AE400FF30C33D4508B900BA01B91BBA033A082F
:101AF400803ABB004308803A3B02031D832D420811
:101B040039020318902D40014508B900BA01B91BE8
:101B1400BA033908C2023A08C33B932D4001C201FB
:101B2400C301411DBA2D410803390319A52D2D30D8
:101B3400B90044088600013087003908810001306B
:101B4400B9003908C407420843040319E22D3030B0
:101B5400B90044088600013087003908810001304B
:101B6400B9003908C407FF30C207FF30C33DA52DB3
:101B7400420843040319D22D2030B90044088600DA
:101B840001308700390881000130B9003908C407E1
:101B9400FF30C207FF30C33D42084304031DBE2D7E
:101BA400410803390319E22D2D30B9004408860099
:101BB40001308700390881000130B9003908C407B1
:101BC4004508B9003908BE00FF30B9003908BE071E
:101BD4003E0A0319A32C0A30AC000030AD003E08C5
:101BE400B900BA01B935BA0D3930390784009830D3
:101BF4003A3D8500003FA400013FA5004008A7002E
:101C04003F08A6009431BF248C3140012508AF0061
:101C14002408AE00943160248C3140012C08303EFD
:101C2400BB003B08C5004508B900440886000130E4
:101C34008700390881000130B9003908C407E62D4E
:101C440040014408860001308700810108001530F6
:101C540041019E003530890B2D2E000041011314E3
:101C64001318322E0D08CA00CB014A08BA004B08DB
:101C7400BB003B08CB003A08CA004A08CB00CA01A3
:101C84004A08BA004B08BB000C083A07CA003B08D4
:101C940003183B0ACB004A08BA004B08BB003B08B8
:101CA4004001AD0041013A084001AC0094313E24AA
:101CB4008E3140012C08B5002D08B6002E08B7005F
:101CC4000030B200C630B3004230B4008A311A2268
:101CD4008E3140013208C5003308C6003408C700FD
:101CE4000030C2008030C3004430C4008831C420B6
:101CF4008E3140014208DF004308E0004408E1005F
:101D0400883125208E31400160084101B500400131
:101D14005F084101B40014309E003530890B902EC9
:101D24000000410113141318952E0D08CA00CB01AD
:101D34004A08B8004B08B9003908CB003808CA0073
:101D44004A08CB00CA014A08B8004B08B9000C087D
:101D54003807CA0039080318390ACB004A08B80002
:101D64004B08B90000304001C2008030C300443049
:101D7400C4000030B200A030B3004030B4004101D0
:101D840039084001AD00410138084001AC009431EC
:101D94003E248E3140012C08B5002D08B6002E08D3
:101DA400B7008A311A228E3140013208C500330847
:101DB400C6003408C7008831C4208E31400142086F
:101DC4004101A900400143084101AA00400144081F
:101DD4004101AB0000304001D2008030D300BF305D
:101DE400D400410129084001C20041012A084001F0
:101DF400C30041012B084001C40041015A084001BD
:101E0400C50041015B084001C60041015C08400176
:101E1400C7008831C4208E3140014208D5004308F0
:101E2400D6004408D7008B31A7238E3140015208D5
:101E34004101D000400153084101D1004001540840
:101E44004101D20050084001C20041015108400143
:101E5400C300410152084001C40041015D08400132
:101E6400C50041015E084001C60041015F08400110
:101E7400C7008831C4208E31400142084101A600C8
:101E8400400143084101A700400144084101A80062
:101E940042014B084001C20042014C084001C3000A
:101EA40042014D084001C400410126084001C5001B
:101EB400410127084001C600410128084001C7002C
:101EC4008831C4208E31400142084101C5004001DF
:101ED40043084101C600400144084101C7008A315A
:101EE400CE228E3141014508D0004608D100470872
:101EF400D20042014E084001C20042014F08400195
:101F0400C300420150084001C4000030C5008030C5
:101F1400C6003F30C7008831C4208E3140014208DA
:101F2400D2004308D3004408D400420148084001C9
:101F3400C200420149084001C30042014A0840016D
:101F4400C400410150084001C5004101510840014D
:101F5400C600410152084001C7008831C4208E31B7
:101F640040014208D5004308D6004408D7008B310D
:101F7400A7238E31400152084101CD00400153088E
:101F84004101CE00400154084101CF004D084001F9
:101F9400C20041014E084001C30041014F08400105
:101FA400C4000030C5008030C6003F30C70088310F
:101FB400C4208E31400142084201A0004001430880
:101FC4004201A100400144084201A200200840014E
:101FD400DF00420121084001E000420122084001E3
:101FE400E1008831252040015F08EF3E4101E60011
:101FF400FE304001603D4101E700080094318E2C21
:102004009431902C9431922C9431942C9431962CBC
:102014009431982C94319A2C94319C2C94319E2C8C
:042024009431A02C27
:10279A00640080010131890BCE2B0034FE00120047
:1027AA001E00FE0BD42B0034FF345C3442349034C8
:1027BA007834453440341C34463400349534433438
:1027CA004001A500A4013A3025020318F22B30304B
:1027DA002502031CF22BA401A40A240C08000734C6
:1027EA001E3440340034A034403440341C3446345F
:1027FA00053400340C340034013400341834003405
:10280A0001340034F401F501701C0F2C7208F4072E
:10281A007308F53D0130F235F30D890B102C0130A8
:10282A00F136F00C890B152C70087104031D092C64
:10283A007508F1007408F00008004001B101B20106
:10284A002D1C2B2C2F08B1073008B23D0130AF35B3
:10285A00B00D890B2C2C0130AE36AD0C890B312C06
:10286A002D082E04031D252C3208AE003108AD00B8
:10287A0008004001B101AD1F492CAC09AD09AC0AF1
:10288A000319AD0AB101B10A2C08A4002D08A5004C
:10289A00A6018E30AF002F08A7003108B00030081B
:1028AA00A8009531F92540012408AC002508AD009F
:1028BA002608AE00080040012C082D040319882CB4
:1028CA00B101B10AAD1B732C0130AC35AD0D890BCA
:1028DA006A2C0130B0003008B107672C2D082F028E
:1028EA00031D792C2C082E02031C7F2C2C08AE0207
:1028FA002D08AF3B0130AD36AC0C890B802C013072
:10290A00B102031D732C2F08AD002E08AC0008007D
:10291A00A62C3030A12C3130A12C3230A12C3330EE
:10292A00A12C3430A12C3530A12C3630A12C3730D3
:10293A00A12C3830A12C39304101B2000030B3004B
:10294A00B62C40013408003A0319AC2CB62C3308D3
:10295A0084000A3004020318B62C90310435003E74
:10296A008200410133084001B400410132084001AC
:10297A00B30008004001AA01AB0124082504031989
:10298A00EF2CA901A90AA51BD42C0130A435A50D49
:10299A00890BCB2C0130A8002808A907C82C0130C4
:1029AA00AA35AB0D890BD52C25082702031DDF2C70
:1029BA0024082602031CE62C2408A6022508A73BA5
:1029CA002A140130A536A40C890BE72C0130A90280
:1029DA00031DD42C2B08A5002A08A40008004001D6
:1029EA00AA00062D2708803E022D2708C03E022D88
:1029FA002708943E022D2708D43EA9002908AB00D7
:102A0A00142D2A08013A0319F72C033A0319FA2C50
:102A1A00013A0319FD2C073A0319002D142D2B082E
:102A2A009631D22694314001280886000130870069
:102A3A0001080319080040012808860001308700B0
:102A4A00010897316727943101304001A90029080C
:102A5A00A807182D4001A61F462D2409AA002509FA
:102A6A00AB002609AC00AA0A0319AB0A0319AC0A7F
:102A7A0000302A07A40000302B3DA50080302C3DF1
:102A8A00A600A91F5C2D2709AA002809AB0029095D
:102A9A00AC00AA0A0319AB0A0319AC0A00302A07C8
:102AAA00A70000302B3DA80080302C3DA9008030C3
:102ABA00A6068030A90629082602031D0800280850
:102ACA002502031D080027082402080040012608E1
:102ADA0025042404031D7E2D270886008701003063
:102AEA00C03FC13F0030A4000030A5000030A6005E
:102AFA00080026087F39A800A901A835A90D2708CA
:102B0A00860087012808C03F2908C13F250D250DE9
:102B1A000139A800A901270886008701280881042D
:102B2A0041312908810427088600870182308107FC
:102B3A004131FF30813D7F31260880393F38A60078
:102B4A00A51308004001A101F71FB22DF609F709E4
:102B5A00F60A0319F70AA101A10AF91FBD2DF809FE
:102B6A00F909F80A0319F90A0130FA007A08A106E4
:102B7A00A201A301760877040319EC2DA001A00A8B
:102B8A00F71BD12D0130F635F70D890BC82D013011
:102B9A00FA007A08A007C52D0130A235A30D890BCA
:102BAA00D22D77087902031DDC2D76087802031CE2
:102BBA00E32D7608F8027708F93B22140130F7363C
:102BCA00F60C890BE42D0130A002031DD12D21083A
:102BDA000319F42DA209A309A20A0319A30A2308B7
:102BEA00F7002208F6000800400127080319022E00
:102BFA00260825042404031D132E0030A4000030E7
:102C0A00A5000030A60008000130A9002908A7077E
:102C1A000130A636A50CA40C890B0E2EFE30260513
:102C2A0003192C2E092E0130A9002908A707013003
:102C3A00A407003003180130A5070030031801303B
:102C4A00A6070130A636A50CA40C890B272EFF3047
:102C5A0026050319392E182E0130A7020130A43592
:102C6A00A50DA60D890B342EA51B3F2E0230270277
:102C7A000318312E2718472EFF30A4057F30A505EB
:102C8A00FF30A6050310A70C2708A900AA01AB016B
:102C9A001030A935AA0DAB0D890B4E2E2908A404B4
:102CAA002A08A5042B08A604280803190800A61751
:102CBA00080040016508AE006408AD000330AF00AB
:102CCA000030B000943122249631400162082D0769
:102CDA00840063082E3D8500003F4101C200013F88
:102CEA00C300023FC4004001640865040319C52EED
:102CFA00FF304001E407FF30E53D6508AE00640897
:102D0A00AD000330AF000030B00094312224963178
:102D1A00400162082D07840063082E3D8500003FAC
:102D2A00D200013FD300023FD400410142084001D2
:102D3A00B200410143084001B30041014408400187
:102D4A00B4005F08B5006008B6006108B7008A31B0
:102D5A001A22963140013208D5003308D6003408C9
:102D6A00D7008B31A7239631400152084101C20096
:102D7A00400153084101C300400154084101772E24
:102D8A00410142084001DF00410143084001E000DF
:102D9A00410144084001E10008004001A6008C13EB
:102DAA000C132608A4000730A436890BD92E240850
:102DBA000139A500A50DA50DA50D0E082506F739A3
:102DCA0025068E002608A4000630A436890BEA2EB2
:102DDA0024080139A500A50DA50D0E082506FB3905
:102DEA0025068E002608A4000530A436890BFA2E83
:102DFA0024080139A500A50D0E082506FD3925066A
:102E0A008E002608A4000430A436890B092F01304D
:102E1A002405A5000E082506FE3925068E00033076
:102E2A00890B152F000040018C170D30890B1B2FC1
:102E3A00000040018C132608A4000330A436890B35
:102E4A00232F24080139A500A50DA50DA50D0E08EF
:102E5A002506F73925068E002608A4000230A43676
:102E6A00890B342F24080139A500A50DA50D0E08DC
:102E7A002506FB3925068E0026360139A400A40D45
:102E8A000E082406FD3924068E0001302605A4000A
:102E9A000E082406FE3924068E000330890B532FB0
:102EAA00000040018C170D30890B592F000040019A
:102EBA008C133A304001A4002330890B622FA40BF3
:102ECA00622F08004001A6008C130C172608A400E4
:102EDA000730A436890B6E2F24080139A500A50DE9
:102EEA00A50DA50D0E082506F73925068E0026081C
:102EFA00A4000630A436890B7F2F24080139A500C7
:102F0A00A50DA50D0E082506FB3925068E002608F7
:102F1A00A4000530A436890B8F2F24080139A50097
:102F2A00A50D0E082506FD3925068E002608A400E3
:102F3A000430A436890B9E2F01302405A5000E0803
:102F4A002506FE3925068E000330890BAA2F0000BC
:102F5A0040018C170D30890BB02F000040018C13F3
:102F6A002608A4000330A436890BB82F2408013997
:102F7A00A500A50DA50DA50D0E082506F7392506F0
:102F8A008E002608A4000230A436890BC92F240813
:102F9A000139A500A50DA50D0E082506FB39250644
:102FAA008E0026360139A400A40D0E082406FD3928
:102FBA0024068E0001302605A4000E082406FE39D8
:102FCA0024068E000330890BE82F000040018C177D
:102FDA000D30890BEE2F000040018C130D30890B48
:102FEA00F42F00003A304001A4002330890BFB2F54
:102FFA00A40BFB2F08000034003400340034803462
:10300A003F34F034FF34BE34E234A9343E348334DE
:10301A007634BE34AE342B343E343C34C334BD34FF
:10302A00D23413343D347834D334BB3441346E341F
:10303A003D342534303433346434203452346634E5
:10304A003D342534303432346434003454343D341D
:10305A002534303433346434203455343D34253403
:10306A003034333464340034013400340A340034E4
:0C307A0064340034E8340334103427348C
:020000040001F9
:0A000E008C3FFD3F9F3FFF3FFF3F87
:00000001FF
