:040000008031A22881
:100008007E14803140017F08B4004308803AB30071
:1000180080303302031D12280D30420203181C28B9
:1000280040014208013EC2000030433DC3009B2806
:1000380040014108803AB30080303302031D26286E
:100048003B3040020318302840014008013EC00000
:100058000030413DC100632840015908803AB3008F
:1000680080303302031D3A283B30580203184428D5
:1000780040015808013ED8000030593DD9005D289C
:1000880040015708803AB30080303302031D4E28E0
:10009800173056020318582840015608013ED6006A
:1000A8000030573DD7005B284001D601D701D80161
:1000B800D901C001C101013083316B238031400176
:1000C800C201C3013230A0008530A1005708A30047
:1000D8005608A2005908A5005808A4004108A7001E
:1000E8004008A60044308031BF208031F3013F3002
:1000F800F4008530F5000230843141248031F30169
:10010800F30A44304001B3003308F400013084316D
:10011800782480310B30F0000030F1003330F200E9
:100128000030F3000030F400F50085310D254E0154
:10013800101040013408FF007E1009008031A42807
:100148004B308400853085001200D4001200D500A1
:100158001200D6001200D7001200D8001200D900F1
:1001680040308400003085001430853151257E10E0
:1001780040018431022C4001B1002230A800280837
:10018800AC002108A9002008A800A00A0319A10AA8
:1001980028088400290885000008AA002A08B20057
:1001A800320803198729253032060319E72832084F
:1001B800A800310886008701280881000130A800BE
:1001C8002808B107C528AD012108A9002008A80002
:1001D800A00A0319A10A2808840029088500000834
:1001E800B200003A03198729643A0319FF280D3A27
:1001F8000319FF28C5282C0886008701403FAF0057
:10020800413FB0000230A8002808AC07B01F1529EC
:100218000330A8002808AD04AF09B009AF0A0319D4
:10022800B00AB201B20A0530320603193A29320877
:10023800A800A901A835A90D283028078400853011
:10024800293D8500003FAA00013FAB002B08300282
:10025800031D30292A082F02031C3A290130A8005F
:100268002808B20705303206031D1B292D0803395B
:10027800031949292D30A80031088600870128086C
:1002880081000130A8002808B1073208A800280812
:10029800AE00FF30A8002808AE072E0A0319C528AB
:1002A8000A30F8000030F9002E08A800A901A83586
:1002B800A90D2830280784008530293D8500003F96
:1002C800F000013FF1003008F3002F08F2008431FC
:1002D800AD2480317108FB007008FA008431E124F4
:1002E80080317808303E4001AA002A08B20032085E
:1002F800A800310886008701280881000130A8007D
:100308002808B1074D2931088600870181010800B6
:1003180040019310131114109410941114118E109D
:100328000E110F108F108F110F113A304001B800C5
:100338002330890B9D29B80B9D293A304001B8001C
:100348002330890BA529B80BA5293A304001B800FC
:100358002330890BAD29B80BAD293A304001B800DC
:100368002330890BB529B80BB5293A304001B800BC
:100378002330890BBD29B80BBD293A304001B8009C
:100388002330890BC529B80BC5294001B901B90A21
:10039800043039020318F8298E100E110F148F1427
:1003A8008F110F118E100E110F148F148F150F113E
:1003B8000D30890BDD29000040018E100E110F143D
:1003C8008F148F110F113A304001B8002330890B78
:1003D800EB29B80BEB2901304001B8003808B90700
:1003E80004303902031CD0298E100E110F148F10FF
:1003F8008F110F118E100E110F148F108F150F11F2
:100408000D30890B052A000040018E100E110F14C3
:100418008F108F110F113A304001B8002330890B2B
:10042800132AB80B132A28304001B8003808B9003D
:1004380039088231D422813110304001B80038089F
:10044800B90039088231D42281314001B901B90A91
:1004580039088231D42281310F304001B800380880
:10046800B90039088231D4220800F20040018F1106
:100478000F157208F0000730F036890B402A700813
:100488000139F100F10D0E087106FD3971068E0073
:100498007208F0000630F036890B4F2A70080139CF
:1004A800F100F10DF10D0E087106FB3971068E0091
:1004B8007208F0000530F036890B5F2A01307005AC
:1004C800F1000F087106FE3971068F007208F000FE
:1004D8000430F036890B6D2A70080139F100F10DEE
:1004E8000F087106FD3971068F000330890B7A2ACF
:1004F800000040018F150D30890B802A0000400153
:100508008F117208F0000330F036890B882A7008C2
:100518000139F100F10D0E087106FD3971068E00E2
:100528007208F0000230F036890B972A70080139FA
:10053800F100F10DF10D0E087106FB3971068E0000
:100548007208F0000130F036890BA72A01307005D7
:10055800F1000F087106FE3971068F007208013923
:10056800F000F00D0F087006FD3970068F0003309B
:10057800890BBC2A000040018F150D30890BC22A57
:10058800000040018F110D30890BC82A00003A3055
:10059800F0002330890BCE2AF00BCE2A0000080089
:1005A8004001B7008F110F113708B5000730B53675
:1005B800890BDB2A35080139B600B60D0E08360658
:1005C800FD3936068E003708B5000630B536890B7A
:1005D800EA2A35080139B600B60DB60D0E083606FA
:1005E800FB3936068E003708B5000530B536890B5D
:1005F800FA2A01303505B6000F083606FE393606E8
:100608008F003708B5000430B536890B082B35083C
:100618000139B600B60D0F083606FD3936068F00CB
:100628000330890B152B000040018F150D30890B05
:100638001B2B000040018F113708B5000330B53679
:10064800890B232B35080139B600B60D0E0836067E
:10065800FD3936068E003708B5000230B536890BED
:10066800322B35080139B600B60DB60D0E08360620
:10067800FB3936068E003708B5000130B536890BD0
:10068800422B01303505B6000F083606FE3936060E
:100698008F0037080139B500B50D0F083506FD394B
:1006A80035068F000330890B572B000040018F154A
:1006B8000D30890B5D2B000040018F113A3040014D
:1006C800B5002330890B662BB50B662B0800F200AA
:1006D80040018F110F117208F0000730F036890BB6
:1006E800722B70080139F100F10D0E087106FD3901
:1006F80071068E007208F0000630F036890B812BE7
:1007080070080139F100F10DF10D0E087106FB3981
:1007180071068E007208F0000530F036890B912BB7
:1007280001307005F1000F087106FE3971068F005F
:100738007208F0000430F036890B9F2B70080139DD
:10074800F100F10D0F087106FD3971068F000330B5
:10075800890BAC2B000040018F150D30890BB22B93
:10076800000040018F117208F0000330F036890B49
:10077800BA2B70080139F100F10D0E087106FD3928
:1007880071068E007208F0000230F036890BC92B12
:1007980070080139F100F10DF10D0E087106FB39F1
:1007A80071068E007208F0000130F036890BD92BE3
:1007B80001307005F1000F087106FE3971068F00CF
:1007C80072080139F000F00D0F087006FD39700647
:1007D8008F000330890BEE2B000040018F150D3080
:1007E800890BF42B000040018F113A30F0002330C0
:1007F800890BFC2BF00BFC2B00000800510113089F
:10080800F8390638930040018C017E01B801400197
:1008180091018E018F017E01CE01D9014E01101088
:100828001A148B170B171A14303044018E04110850
:10083800F039013891000E154001550844018D002A
:100848004001540844018C000E1481318C218431FC
:1008580001308231D42284310C308231D422843167
:1008680029304001BF009630BE007F30890B3A2CFA
:10087800BE0B3A2CBF0B3A2C402CF700522C7308B5
:10088800803E4E2C7308C03E4E2C7308943E4E2C6E
:100898007308D43EF6007608F800602C7708013A11
:1008A8000319432C033A0319462C013A0319492C1E
:1008B800073A03194C2C602C780883316B23843158
:1008C800740884007508850012000319080074086C
:1008D800840075088500000882313922843101308E
:1008E800F4070030F53D642CF600892C7308803E2F
:1008F800852C7308C03E852C7308943E852C73089C
:10090800D43EF5007508F700972C7608013A0319CC
:100918007A2C033A03197D2C013A0319802C073AE3
:100928000319832C972C770883316B23843174083F
:1009380086008701010803190800740886008701EA
:1009480001088231392284310130F5007508F40735
:100958009B2CF501F601700871040319DC2CF701D2
:10096800F70AF11BC12C0130F035F10D890BB82CB9
:100978000130F4007408F707B52C0130F535F60D91
:10098800890BC22C71087302031DCC2C70087202EB
:10099800031CD32C7008F2027108F33B7514013064
:1009A800F136F00C890BD42C0130F702031DC12C51
:1009B8007608F1007508F000080078087904031932
:1009C800082DFD01FD0AF91BF32C0130F835F90D4E
:1009D800890BEA2C0130FC007C08FD07E72C79081C
:1009E8007B02031DF92C78087A02031CFF2C780877
:1009F800FA027908FB3B0130F936F80C890B002D17
:100A08000130FD02031DF32C7B08F9007A08F80079
:100A18000800710840015706031D142D700856067A
:100A2800031D080073085906031D1C2D720858067B
:100A3800031D080075084106031D242D740840068F
:100A4800031D080016140800013400340A34003469
:100A580064340034E8340334103427342034203428
:100A680020342034253464343A34253464343A3418
:100A78002534643400344D3465346334613474345B
:100A880072346F346E346934633461340034B03492
:100A98003C340B34003432340034640080010131BA
:060AA800890B522D003401
:020000040001F9
:0A000E008C3FFD3F9F3FFF3FFF3F87
:00000001FF
