:040000008031102813
:100008007E14803140017F08F0004E011010700806
:100018004001FF007E100900803112287D308400E5
:1000280086308500B1308600003087000D3086317B
:100038008A268031EB01EC01ED01EE01EF01A030E1
:100048008400003085001130863190267E104001F2
:100058008631082E44018C018D01400116141A3096
:10006800890B34280032400116108C1C39284401B1
:100078000E1440018C183D2844010E102430400114
:10008800B900F430BA004930BB0044010D08FA0049
:100098000C08F90086316A26803179084001BC00D5
:1000A8007A08BD007B08BE008431222480314001DB
:1000B80039084101AE0040013A084101AF00400152
:1000C8003B084101B0003C094001DD0041013D0908
:1000D8004001DE00DD0A0319DE0A41012E08400155
:1000E800A30041012F084001A4004101300840014C
:1000F800A500D030A0000430A1004730A200833111
:100108006E23803140012008BC002108BD00220870
:10011800BE000030B9000030BA004030BB00843166
:100128002224803140013908C9003A08CA003B0836
:10013800CB008431CB24803140015D084907D700CA
:100148005E084A3DD800863148268031400157086C
:100158004101A500400158084101A6004001590885
:100168004101A70044018C018D01400116151A3088
:10017800890BBC280032400116118C1DC12844018E
:100188000E1440018C19C52844010E10243040017A
:10019800B900F430BA004930BB0044010D08FA0038
:1001A8000C08F90086316A26803179084001BC00C4
:1001B8007A08BD007B08BE008431222480314001CA
:1001C80039084101AB0040013A084101AC00400147
:1001D8003B084101AD003C094001DD0041013D09FA
:1001E8004001DE00DD0A0319DE0A41012B08400147
:1001F800A30041012C084001A40041012D08400141
:10020800A500D030A0000430A1004730A2008331FF
:100218006E23803140012008BC002108BD0022085F
:10022800BE000030B9000030BA004030BB00843155
:100238002224803140013908C9003A08CA003B0825
:10024800CB008431CB24803140015D084907D700B9
:100258005E084A3DD800863148268031400157085B
:10026800EB005808EC005908ED0044018C018D01A1
:10027800400116161A30890B3F2900324001161228
:100288008C1E442944010E1440018C1A482944014B
:100298000E1024304001B900F430BA004930BB00D8
:1002A80044010D08FA000C08F90086316A268031ED
:1002B80079084001BC007A08BD007B08BE00843183
:1002C80022248031400139084101A80040013A0840
:1002D8004101A90040013B084101AA003C09400135
:1002E800DD0041013D094001DE00DD0A0319DE0A97
:1002F800410128084001A300410129084001A40048
:1003080041012A084001A500D030A0000430A10016
:100318004730A20083316E23803140012008BC00A1
:100328002108BD002208BE000030B9000030BA0024
:100338004030BB0084312224803140013908C90093
:100348003A08CA003B08CB008431CB2480314001F5
:100358005D084907D7005E084A3DD800863148261F
:100368008031400157084101A0004001580841016F
:10037800A100400159084101A20025084001A3003D
:10038800410126084001A400410127084001A500B9
:100398000030A0000030A1000030A20083316E239D
:1003A800803140012008AF002108B0002208B100C8
:1003B8006B08A3006C08A4006D08A5000030A0001D
:1003C8007A30A1004430A20083316E23803140018D
:1003D8002008AC002108AD002208AE008231782246
:1003E800803140012C08DF002D08E0002E08E100D4
:1003F800410125084001AF00410126084001B00035
:10040800410127084001B1006B08AC006C08AD0041
:100418006D08AE0082317822803140012C08E2005C
:100428002D08E3002E08E4005F08AF006008B00064
:100438006108B100410120084001A30041012108E1
:100448004001A400410122084001A5000030A0009D
:10045800FA30A1004430A20083316E23803140017C
:100468002008AC002108AD002208AE0082317822B5
:10047800803140012C08BC002D08BD002E08BE00AC
:100488006208AF006308B0006408B10041012008A9
:100498004001AC00410121084001AD0041012208A2
:1004A8004001AE0082317822803140012C08B90029
:1004B8002D08BA002E08BB00843122248031400167
:1004C8003908C9003A08CA003B08CB008431CB245C
:1004D80040014A08EF004908EE006E08183EEE0099
:1004E800FC306F3DEF00080040012C08B2002D08D9
:1004F800B3002E08B4000310330D340DB5003508D1
:10050800B8002F08B2003008B3003108B400031057
:10051800330D340DB5003508B70038080319A02A83
:10052800370838020318A72A3803FF3A3707B200FA
:1005380019303202031CA72A2F08AC003008AD007E
:100548003108AE00080037080319080038083702D8
:100558000318B62A3703FF3A3807B20019303202B7
:10056800031808000630B2003208B600AE1BB617F2
:10057800B11B3617AD17FF30AC05FF30AD050030A5
:10058800AE05B017FF30AF05FF30B0050030B1053C
:10059800370838020318F22A0130AF35B00DB10D13
:1005A800890BD12A0130B702370838060319ED2A1A
:1005B8000130B602360807390319ED2AD02A01306E
:1005C800AE36AD0CAC0C890BE42A0130B20032080F
:1005D800B807380837060319172BE32A38083702F3
:1005E8000318172B0130AC35AD0DAE0D890BF72A6A
:1005F8000130B802370838060319132B0130B60248
:10060800360807390319132BF62A0130B136B00C16
:10061800AF0C890B0A2B0130B2003208B707380833
:100628003706031D092BB61F292BFF30AC06FF30F8
:10063800AD06FF30AE060130AC07003003180130BC
:10064800AD07003003180130AE07361F3B2BFF30D3
:10065800AF06FF30B006FF30B1060130AF070030FB
:1006680003180130B007003003180130B107B60194
:100678002C08AF072D08B03D2E08B13DB11F562BF1
:10068800FF30AF06FF30B006FF30B1060130AF07CC
:10069800003003180130B007003003180130B107EB
:1006A800B601B60A2F08F1003008F2003108F3004D
:1006B8003808B2003208F4003608B3003308F500F1
:1006C8008531522571084001AC007208AD007308ED
:1006D800AE00080040012008F9002108FA002208AD
:1006E800FB0003107A0D7B0DFC007C08A600260891
:1006F800031D852B0030A0000030A1000030A200AF
:1007080008002308F9002408FA002508FB00031054
:100718007A0D7B0DFC007C08AB002B08031D9B2B7E
:100728000030A0000030A1000030A20008002B0813
:100738007B3EF9007908A6072008F9002108FA008D
:100748002208FB001030FB36FA0CF90C890BA72B9A
:100758007908FC007C08AB002308F9002408FA009B
:100768002508FB001030FB36FA0CF90C890BB72B67
:100778007908FC007C08AB068030F9007908AB05E5
:10078800A117A417FF30A305FF30A4050030A50565
:100798000030A7000030A8000030A9000730F90099
:1007A8007908AA00201CDE2B2308A7072408A83DE7
:1007B8002508A93D0130A236A10CA00C890BDF2B1E
:1007C8000130A335A40DA50D890BE52B0130AA0234
:1007D800031DD62B0930F9007908AA00201CFA2B32
:1007E8002308A7072408A83D2508A93D0130A236FB
:1007F800A10CA00C890BFB2B0130A936A80CA70C67
:10080800890B012C0130AA02031DF22B2708F100E5
:100818002808F2002908F3002608F9007908F400EE
:100828002B08FA007A08F500853152257108400135
:10083800A0007208A1007308A200080040013C084B
:10084800BF003D08C0003E08C1000310400D410D27
:10085800C2004208C7004708031D392C0030B90000
:100868000030BA000030BB0008003908BF003A0861
:10087800C0003B08C1000310400D410DC2004208F2
:10088800C8004808031D4F2C0030B9000030BA00DA
:100898000030BB0008000030C4000030C500003044
:1008A800C60089304807BF003F08C7023C08BF00A0
:1008B8003D08C0003E08C1001030C136C00CBF0C56
:1008C800890B612C3F08C2004208C8003908BF00E4
:1008D8003A08C0003B08C1001030C136C00CBF0C3C
:1008E800890B712C3F08C2004208C8068030BF003F
:1008F8003F08C805BD17FF30BC05FF30BD050030F7
:10090800BE05BA17FF30B905FF30BA050030BB0580
:100918001830BF003F08C3000130C435C50DC60DEF
:10092800890B912C3B083E02031DA02C3A083D027E
:10093800031DA02C39083C02031CA92C3908BC0251
:100948003A08BD3B3B08BE3B44140130BC35BD0DE5
:10095800BE0D890BAA2C0130C302031D902C44083C
:10096800F1004508F2004608F3004708BF003F08B9
:10097800F4004808C0004008F50085315225710888
:100988004001B9007208BA007308BB0008004001B2
:100998004908CD004A08CE004B08CF0003104E0D81
:1009A8004F0DD0005008D6005608031DE42C003027
:1009B800CC000030CB000030CA000030C90008006D
:1009C8004908CD004A08CE004B08CF001730CF3673
:1009D800CE0CCD0C890BEB2C4D08D0005008D10063
:1009E800CA17FF30C905FF30CA050030CB054908D2
:1009F800D2004A08D3004B08D400D5018E30D60265
:100A0800D61F222D5608803A8F3E0318142D003029
:100A1800CC000030CB000030CA000030C90008000C
:100A28000130D536D40CD30CD20C890B152D0130DE
:100A3800CD004D08D60703193B2D142D183056024A
:100A4800031C382D0030CC000030CB000030CA0029
:100A58000030C90008000130D235D30DD40DD50DB2
:100A6800890B302D0130D6025608031D2F2D510851
:100A78000319492DD209D309D409D509D20A031972
:100A8800D30A0319D40A0319D50A5508CC00540807
:100A9800CB005308CA005208C9000800740803199B
:100AA8005A2D730872047104031D6B2D0030F10078
:100AB8000030F2000030F30008000130F60076083C
:100AC800F4070130F336F20CF10C890B662DFE3079
:100AD80073050319842D612D0130F6007608F4079B
:100AE8000130F107003003180130F2070030031815
:100AF8000130F3070130F336F20CF10C890B7F2D2E
:100B0800FF3073050319912D702D0130F402013067
:100B1800F135F20DF30D890B8C2DF21B972D023058
:100B280074020318892D74189F2DFF30F1057F304A
:100B3800F205FF30F3050310F40C7408F600F70112
:100B4800F8011030F635F70DF80D890BA62D76084B
:100B5800F1047708F2047808F3047508031908000B
:100B6800F317080040016D0841012706031DC62D33
:100B780040016C0841012606031DC62D40016B0883
:100B880041012506031DDE2D220840016D06031DC7
:100B9800D72D4101210840016C06031DD72D4101C5
:100BA800200840016B06031DDE2D1714971017113E
:100BB8009715080040016F08803AF1007F307102F4
:100BC800031DE82D9C306E020318F02D4001171408
:100BD800971017119715080040016F08803AF10027
:100BE80080307102031DFA2D65306E02031C022E3F
:100BF8004001171097141715971108004001171492
:100C0800971017159711080040018C017E01B80153
:100C180040011110911411119115111291168D01A5
:100C28007E01C301400192014E0110101A148B1766
:100C38000B171A1444010E08CF3920388E001108FA
:100C4800F039013891000E15400117149710171547
:100C5800971129304001EA009630E9007F30890B6E
:100C6800332EE90B332EEA0B332E80312E208631BA
:100C78008531B625863140016F084101A400400145
:100C88006E084101A300392E4001DC01D81F532E04
:100C9800D709D809D70A0319D80ADC01DC0A57088A
:100CA800F1005808F200F3018E30DA005A08F40017
:100CB8005C08DB005B08F5008531522571084001AE
:100CC800D7007208D8007308D90008007908F10025
:100CD8007A08F200F3018E30FC007C08F400F5017C
:100CE800853152257108F9007208FA007308FB0073
:100CF8000800003470344234E7347B343E345A34CC
:100D0800E4343E34BC34023401340034FE001200B2
:100D18001E00FE0B8B2E0034640080010131890B0C
:040D2800912E0034D4
:020000040001F9
:0A000E008C3FFD3F9F3FFF3FFF3F87
:00000001FF
