:0400000080312D28F6
:100008007E14803140017F08F10042011908F00098
:100018007008F60041307606031D142840011714B5
:1000280042307606031D1A28400117104330760621
:10003800031D20284001971444307606031D262806
:10004800400197104E018F1271084001FF007E1089
:10005800090080312F28F6017E10400180313428B4
:1000680051011308F8390638930040018D017E01CB
:10007800C301400192018E017E01CE018030400112
:10008800930017307D01CB0042019D171E111E12EF
:100098001D169F1133309B004E018F1299160B17B6
:0400A8008B17552835
:020000040001F9
:0A000E008C3FFD3F9F3FFF3FFF3F87
:00000001FF
