:040000008031102813
:100008007E14803140017F08F0004E011010700806
:100018004001FF007E100900803112288531382503
:100028008031CF0085313925D000C901CA01CB0103
:10003800CC01CD01CE017E104001813173294001F0
:10004800AF002430A6002608AA0040012308A70014
:100058002208A600A20A0319A30A26088400270872
:1000680085000008A8002808B200320803196D2985
:100078002530320603194C283208A6002F088600BE
:100088008701260881000130A6002608AF07292825
:10009800B001B101AC0122088400230885000008E2
:1000A800853127258031031C8A284001B001B10120
:1000B8000A30F1000030F20040013108F400300845
:1000C800F3008431E524803172084001B1007108E1
:1000D800B00022088400230885000008D03EA6004E
:1000E800FF3003180030A7002608B0072708B13DE5
:1000F8000130A2070030A33D2208840023088500B0
:10010800000885312725803103185C284001230821
:10011800A7002208A600A20A0319A30A2608840039
:10012800270885000008B200003A03196D29643ACF
:100138000319A2280D3A0319A228292840012A08E0
:1001480086008701403FAD00413FAE000230A60067
:100158002608AA07AE1FB9280330A6002608AC0453
:10016800AD09AE09AD0A0319AE0AB201B20A0530EB
:1001780032060319DE283208A600A701A635A70D06
:100188000030260784008530273D8500003FA80001
:10019800013FA90029082E02031DD42828082D0292
:1001A800031CDE280130A6002608B20705303206F7
:1001B800031DBF28300831040319EA282C08033925
:1001C8000319EA28FF30B007FF30B13D3208A60016
:1001D800A701A61BA7032708803AA8003108803A80
:1001E8002802031DF92830082602031806294001B1
:1001F8003208A600A701A61BA7032608B0022708F5
:10020800B13B09294001B001B1013008310403199B
:1002180020292030A6002F088600870126088100A3
:100228000130A6002608AF07FF30B007FF30B13D08
:1002380030083104031D0D292C08033903192F290F
:100248002D30A6002F08860087012608810001307E
:10025800A6002608AF073208A6002608AB00FF3024
:10026800A6002608AB072B0A031929280A30F9002B
:100278000030FA002B08A600A701A635A70D00300C
:10028800260784008530273D8500003FF100013FA7
:10029800F2002E08F4002D08F30084318424803104
:1002A8007208FC007108FB008431B8248031790899
:1002B800303E4001A8002808B2003208A6002F08E6
:1002C80086008701260881000130A6002608AF07AE
:1002D800332940012F088600870181010800510158
:1002E8001308F8390638930040018E018F017E010A
:1002F800CE01D90140018C017E01B80140011110E5
:1003080091148D017E01C3014001920144010E0840
:10031800CF3920388E001108F039013891000E15B8
:1003280082314522813101308331852381310C307E
:1003380083318523813105304001B8000F30B70083
:10034800F130890BA529B70BA529B80BA5294401BC
:100358008C018D01400116141A30890BB129003225
:10036800400116108C1CB62944010E1440018C184B
:10037800BA2944010E1040014F09B7005009B800CE
:10038800B70A0319B80A6430F1000030F2004401DA
:100398000D08F4000C08F3008431842481314001F5
:1003A80037087107C9003808723DCA004A08803A00
:1003B800B70080303702031DE32904304902031CCB
:1003C800182A40014A08803AB70081303702031DD5
:1003D800EF29903049020318182A4001971717137C
:1003E8001930A2008530A3004A08A5004908A400D6
:1003F8003930803123208131F40139304001B70090
:100408003708F500013084314F2481310E30400126
:10041800B7003708F4003530F5008530F6000130B4
:10042800843118248131382A400197131717013075
:10043800833185238131F4010A30F5008530F600D7
:10044800013084311824813129304001B8009630B8
:10045800B7007F30890B2E2AB70B2E2AB80B2E2A0D
:10046800013083318523813129304001B80096302D
:10047800B7007F30890B3E2AB70B3E2AB80B3E2ABD
:10048800AB294001931114109410131294111411F4
:100498008E110F108F100E128F110F113A30F400B9
:1004A8002330890B552AF40B552A00003A30F40002
:1004B8002330890B5D2AF40B5D2A00003A30F400E2
:1004C8002330890B652AF40B652A00003A30F400C2
:1004D8002330890B6D2AF40B6D2A00003A30F400A2
:1004E8002330890B752AF40B752A00003A30F40082
:1004F8002330890B7D2AF40B7D2A0000F501F50ACB
:10050800043075020318B02A40018E110F108F14A1
:100518000E168F110F118E110F108F140E168F15C6
:100528000F110D30890B962A000040018E110F1013
:100538008F140E168F110F113A30F4002330890BE7
:10054800A32AF40BA32A00000130F4007408F5076D
:1005580004307502031C882A40018E110F108F1475
:100568000E128F110F118E110F108F140E128F157E
:100578000F110D30890BBE2A000040018E110F109B
:100588008F140E128F110F113A30F4002330890B9B
:10059800CB2AF40BCB2A00002830F4007408F500AD
:1005A80075088331852382311030F4007408F50012
:1005B8007508833185238231F501F50A7508833181
:1005C800852382310F30F4007408F50075088331F3
:1005D80085230800F30040018F110F157308F100FF
:1005E8000730F136890BF52A71080139F200F20D4E
:1005F800F20DF20D0E087206F73972068E007308B6
:10060800F1000630F136890B062B01307105F20036
:100618000F087206FE3972068F007308F100053064
:10062800F136890B142B71080139F200F20D0F080D
:100638007206FD3972068F007308F1000430F13636
:10064800890B232B71080139F200F20E0E0872068D
:10065800EF3972068E000330890B302B0000400101
:100668008F150D30890B362B000040018F11730850
:10067800F1000330F136890B3E2B71080139F20085
:10068800F20DF20DF20D0E087206F73972068E00A1
:100698007308F1000230F136890B4F2B01307105D8
:1006A800F2000F087206FE3972068F0073360139A0
:1006B800F100F10D0F087106FD3971068F007308FE
:1006C8000139F100F10E0E087106EF3971068E003E
:1006D8000330890B6D2B000040018F150D30890BFD
:1006E800732B000040018F110D30890B792B00000E
:1006F8003A30F1002330890B7F2BF10B7F2B000060
:100708000800F30040018F110F117308F100073042
:10071800F136890B8C2B71080139F200F20DF20DBC
:10072800F20D0E087206F73972068E007308F10092
:100738000630F136890B9D2B01307105F2000F0848
:100748007206FE3972068F007308F1000530F13623
:10075800890BAB2B71080139F200F20D0F087206F4
:10076800FD3972068F007308F1000430F136890BE9
:10077800BA2B71080139F200F20E0E087206EF3931
:1007880072068E000330890BC72B000040018F15BD
:100798000D30890BCD2B000040018F117308F1003B
:1007A8000330F136890BD52B71080139F200F20DAF
:1007B800F20DF20D0E087206F73972068E007308F4
:1007C800F1000230F136890BE62B01307105F20099
:1007D8000F087206FE3972068F0073360139F10070
:1007E800F10D0F087106FD3971068F007308013984
:1007F800F100F10E0E087106EF3971068E00033014
:10080800890B042C000040018F150D30890B0A2C30
:10081800000040018F113A30F1002330890B122C6F
:10082800F10B122C00000800F800292C7408803EF7
:10083800252C7408C03E252C7408943E252C740879
:10084800D43EF7007708F900372C7808013A0319E5
:100858001A2C033A03191D2C013A0319202C073AC4
:100868000319232C372C79088331852384317508A3
:1008780084007608850012000319080075088400B2
:100888007608850000088231EE2284310130F507B0
:100898000030F63D3B2CF700602C7408803E5C2C41
:1008A8007408C03E5C2C7408943E5C2C7408D43EDA
:1008B800F6007608F8006E2C7708013A0319512CD7
:1008C800033A0319542C013A0319572C073A031910
:1008D8005A2C6E2C7808833185238431750886005C
:1008E80087010108031908007508860087010108B7
:1008F8008231EE2284310130F6007608F507722C39
:10090800F601F701710872040319B32CF801F80A0B
:10091800F21B982C0130F135F20D890B8F2C013028
:10092800F5007508F8078C2C0130F635F70D890BA2
:10093800992C72087402031DA32C71087302031CFE
:10094800AA2C7108F3027208F43B76140130F236CF
:10095800F10C890BAB2C0130F802031D982C770899
:10096800F2007608F100080079087A040319E02CEF
:100978004001A101A10AFA1BCB2C0130F935FA0D6F
:10098800890BC22C0130A0002008A107BF2C7A08CF
:100998007C02031DD12C79087B02031CD72C790813
:1009A800FB027A08FC3B0130FA36F90C890BD82C8B
:1009B8000130A102031DCB2C7C08FA007B08F9004A
:1009C8000800F501F601711CED2C7308F507740891
:1009D800F63D0130F335F40D890BEE2C0130F2367B
:1009E800F10C890BF32C71087204031DE72C7608AF
:1009F800F2007508F1000800013400340A340034AC
:100A080064340034E83403341034273446347534FD
:100A1800653472346134203464346534203472347B
:100A280061346E3467346F34003444346934733459
:100A3800743461346E346334693461343D3425343C
:100A4800333464340034F200F1013A30720203188E
:100A5800332D30307202031C332DF101F10A710C71
:0C0A6800080063346D34003403340034A3
:020000040001F9
:0A000E008C3FFD3F9F3FFF3FFF3F87
:00000001FF
