:020000040000FA
:10000000803102288731E62F080064008001013129
:10001000890B062800344001931114109410131218
:10002000941114118E110F108F100E128F110F11C9
:100030003A30F3002330890B1B28F30B1B280000F8
:100040003A30F3002330890B2328F30B23280000D8
:100050003A30F3002330890B2B28F30B2B280000B8
:100060003A30F3002330890B3328F30B3328000098
:100070003A30F3002330890B3B28F30B3B28000078
:100080003A30F3002330890B4328F30B4328000058
:10009000F401F40A043074020318762840018E112A
:1000A0000F108F140E168F110F118E110F108F1449
:1000B0000E168F150F110D30890B5C2800004001C2
:1000C0008E110F108F140E168F110F113A30F3008E
:1000D0002330890B6928F30B692800000130F300F5
:1000E0007308F40704307402031C4E2840018E117B
:1000F0000F108F140E128F110F118E110F108F14FD
:100100000E128F150F110D30890B8428000040014D
:100110008E110F108F140E128F110F113A30F30041
:100120002330890B9128F30B912800002830F3002D
:100130007308F400740891316B2180311030F300A2
:100140007308F400740891316B218031F401F40AD2
:10015000740891316B2180310F30F3007308F40083
:10016000740891316B210800430123084001E70026
:10017000430122084001E600430121084001E50057
:10018000430120084001E4005708E7005608E60054
:100190005508E5005408E4006408D8006508D90053
:1001A0006608DA006708DB001730DB36DA0CD90C9A
:1001B000D80C890BD528FF305805DC0000305905D4
:1001C000DD005C08813EE200FF305D3DE300630836
:1001D000803AD80080305802031DF02817306202A0
:1001E000031808004001E31B4D29FF30D800FF3001
:1001F000D9007F30DA000030DB00620A0329DB37E8
:10020000DA0CD90CD80C890BFF285B08E1005A08DE
:10021000E0005908DF005808DE0064085E05D800D9
:1002200065085F05D90066086005DA0067086105A2
:10023000DB005B085A0459045804031908006408D9
:10024000D8006508D9006608DA006708DB001F30AF
:10025000DB36DA0CD90CD80C890B28295B085A0438
:100260005904580403193C295E08E4075F08E53D7A
:100270006008E63D6108E73D5E09D8005F09D900E6
:100280006009DA006109DB005808E4055908E50552
:100290005A08E6055B08E70583296408D800650865
:1002A000D9006608DA006708DB001F30DB36DA0C9D
:1002B000D90CD80C890B56295B085A0459045804E8
:1002C000031D66290030E70000307E296408D8004D
:1002D0006508D9006608DA006708DB000130D83508
:1002E000D90DDA0DDB0D890B6F295B085A0459040F
:1002F000580403198329BF30E7008030E60000303E
:10030000E5000030E4006708D7006608D6006508FD
:10031000D5006408D40008004101C000BE01BF013F
:1003200040016B084101D40040016A084101D3003B
:10033000400169084101D200400168084101D10033
:1003400054084001BD00410153084001BC00410177
:1003500052084001BB00410151084001BA00003081
:10036000C1000030C0000030BF000030BE0093313B
:100370002A2381310318D52901304101BE00003004
:10038000BF005408F3005308F2005208F10051086E
:10039000F0009D311425813173084101D4007208A9
:1003A000D3007108D2007008D1004101D701D801F3
:1003B00042016B084101C50042016A084101C400C5
:1003C0003E083F04031DE6296E1D012A3E083F0436
:1003D000031DEC292B30ED292D30A8000030A90099
:1003E0002808A0005708203E860002308700200819
:1003F00081000130D7070030D83DFF30C407FF30FF
:10040000C53D5408F3005308F2005208F1005108AA
:10041000F00090317520813170037104031D582A5A
:1004200040016C08BF3E4101A000FF3003180030BE
:10043000A100003021021A30031920020318222AD9
:100440000130232A0030A200A3012208AA002308B9
:10045000AB002A082B040319322A1C30F000A0300C
:10046000F100372A2430F000A030F1004101570894
:10047000203E9D31A5258131FD304101C407FF306B
:10048000C53D2030A00020084001A40041014508DE
:100490004001A600410144084001A5004101400877
:1004A0009F31B02740012508E9002408E800080032
:1004B00041015408F3005308F2005208F1005108BA
:1004C000F00090317520813170087104031DB02A4D
:1004D00040016C08BF3E4101A000FF30031800300E
:1004E000A100003021021A300319200203187A2AD1
:1004F00001307B2A0030A200A3012208AC002308AF
:10050000AD002C082D0403198A2A2030F000A030F9
:10051000F1008F2A2830F000A030F1004101570887
:10052000203E9D31A5258131FD304101C407FF30BA
:10053000C53D2030A00020084001A400410145082D
:100540004001A600410144084001A50041014008C6
:100550009F31B02740012508E9002408E800080081
:100560003F304101DC008030DB000030DA00003039
:10057000D900D501D6015408F3005308F2005208FF
:10058000F1005108F0000030F7000030F6000030B4
:10059000F5000030F4009F311C278131031C012B32
:1005A000902B41304001A3002030A2000030A10078
:1005B0000030A00041015C084001A70041015B0838
:1005C0004001A60041015A084001A5004101590817
:1005D0004001A400883157208131400123084101A6
:1005E000DC00400122084101DB00400121084101FB
:1005F000DA00400120084101D9000130D507003060
:10060000D63D410154084001BD004101530840015D
:10061000BC00410152084001BB00410151084001AA
:10062000BA004130A3002030A2000030A100003009
:10063000A00041015C084001A70041015B084001A6
:10064000A60041015A084001A50041015908400196
:10065000A40088315720813140012308C1002208BD
:10066000C0002108BF002008BE0093312A23813139
:10067000031C6B2BD12A41304001BD002030BC004F
:100680000030BB000030BA0041015C084001C100ED
:1006900041015B084001C00041015A084001BF0010
:1006A000410159084001BE0094316C248131400160
:1006B0003D084101DC0040013C084101DB004001F4
:1006C0003B084101DA0040013A084101D900FF30FE
:1006D000D507FF30D63D410154084001BD0041011E
:1006E00053084001BC00410152084001BB004101D8
:1006F00051084001BA0041015C084001C1004101BC
:100700005B084001C00041015A084001BF0041019F
:1007100059084001BE0093312A238131031C3B2B31
:1007200040016C084101A000A1012008F600210849
:10073000F7009D31C425813176084101A2002208CD
:10074000C6004608A0002008C30067304606031D07
:10075000C12B42016C086D04031DB22B0130EC006B
:100760000030ED006D08803A4101A0008030200289
:10077000031DBD2B013042016C02031CCC2B420136
:10078000C42B4201ED1BCC2B6D084101C20042017C
:100790006C084101C100D12B06304101C10000307D
:1007A000C20067304606031DFA2B5608803AA000A7
:1007B0007F302002031DDE2BFC305502031CF52B7D
:1007C00041014108FF3EA000FF30423DA100210849
:1007D000803AA2005608803A2202031DF12B5508E8
:1007E0002002031CF52B6630F62B65304101A0007A
:1007F0002008C3004208B9004108B8006730460627
:10080000031D072C663043060319D61F0B2C01303D
:10081000B8070030B93D66304306031D232CD61FB0
:100820001B2C3F30DC008030DB000030DA00003071
:10083000D900D501D601673046060319232C550887
:10084000B8075608B93DCF01D0015408CA00530873
:10085000C9005208C8005108C7005C08A7005B081F
:10086000A6005A08A5005908A4005008803AA00024
:100870003908803A2002031D3F2C38084F02031824
:100880000F2D41015C084001BD0041015B084001A2
:10089000BC0041015A084001BB0041015908400118
:1008A000BA0041014A084001C10041014908400124
:1008B000C000410148084001BF0041014708400114
:1008C000BE0094316C24813140013D08D7003C08C2
:1008D000D6003B08D5003A08D4008031B4208131DD
:1008E000400157084101CE00400156084101CD00AA
:1008F000400155084101CC00400154084101CB00A2
:100900004E08F3004D08F2004C08F1004B08F000CF
:100910009031ED20813171084101BD007008BC00AB
:100920004E084001A70041014D084001A6004101C9
:100930004C084001A50041014B084001A4004101C1
:100940005C084001A30041015B084001A200410195
:100950005A084001A100410159084001A000883116
:100960005720813140012308BD002208BC00210826
:10097000BB002008BA0041014A084001C100410102
:1009800049084001C000410148084001BF00410141
:1009900047084001BE009D318625813140013D0858
:1009A0004101CA0040013C084101C90040013B0827
:1009B0004101C80040013A084101C70041304001EF
:1009C000BD002030BC000030BB000030BA00410147
:1009D0005C084001C10041015B084001C0004101C9
:1009E0005A084001BF00410159084001BE0094313E
:1009F0006C24813140013D084101DC0040013C088C
:100A00004101DB0040013B084101DA0040013A08A6
:100A10004101D9000130CF070030D03D352C4030A6
:100A20004001A300A030A2000030A1000030A000CF
:100A300041015C084001A70041015B084001A6009C
:100A400041015A084001A500410159084001A40094
:100A5000883157208131400123084101CE004001F7
:100A600022084101CD00400121084101CC00400194
:100A700020084101CB004A084001BD00410149085E
:100A80004001BC00410148084001BB00410147084A
:100A90004001BA0041014E084001C10041014D082A
:100AA0004001C00041014C084001BF0041014B081A
:100AB0004001BE0093312A2381310318622D00309A
:100AC00041017C2D41014A08F3004908F200480821
:100AD000F1004708F0004E08F7004D08F6004C08FA
:100AE000F5004B08F4009F311C278131031C832D36
:100AF00041013C18832D0030CE000030CD00003085
:100B0000CC000030CB0041014E08F3004D08F2004C
:100B10004C08F1004B08F0005408F7005308F600A9
:100B20005208F5005108F4009531FF258131730812
:100B30004101CA007208C9007108C8007008C700E6
:100B40002708DC002608DB002508DA002408D90085
:100B5000653043060319B12D5608BB005508BA008D
:100B6000B32DBA01BB01B601B701B401B501CF0184
:100B7000D001E12E41015C084001BD0041015B084C
:100B80004001BC0041015A084001BB004101590825
:100B90004001BA0041014A084001C1004101490831
:100BA0004001C000410148084001BF004101470821
:100BB0004001BE0094316C24813140013D08D700D2
:100BC0003C08D6003B08D5003A08D4008031B42058
:100BD0008131400157084101CE00400156084101D2
:100BE000CD00400155084101CC00400154084101AD
:100BF000CB004E08F3004D08F2004C08F1004B0802
:100C0000F0009031ED20813171084101BD00700884
:100C1000BC006E1A192E3C083D04031D192E6730C6
:100C200046060319BB1F192E0130B4070030B53D2D
:100C30005F2E360837040319BB1F332E2E30A00059
:100C40005708203E860002308700200881000130CE
:100C5000D7070030D83DFF30C407FF30C53D013015
:100C6000B6000030B7003408350403194D2E30307B
:100C7000A0005708203E860002308700200881002F
:100C80000130D7070030D83DFF30C407FF30C53DE5
:100C9000FF30B407FF30B53D332E3C08303EA00096
:100CA0005708203E8600023087002008810001306E
:100CB000D7070030D83DFF30C407FF30C53D4E0890
:100CC0004001A70041014D084001A60041014C0828
:100CD0004001A50041014B084001A40041015C080E
:100CE0004001A30041015B084001A20041015A08F4
:100CF0004001A100410159084001A000883157205E
:100D0000813140012308BD002208BC002108BB003E
:100D10002008BA0041014A084001C10041014908C8
:100D20004001C000410148084001BF00410147089F
:100D30004001BE009D318625813140013D084101C1
:100D4000CA0040013C084101C90040013B08410183
:100D5000C80040013A084101C70041304001BD00D0
:100D60002030BC000030BB000030BA0041015C08FC
:100D70004001C10041015B084001C00041015A0827
:100D80004001BF00410159084001BE0094316C246C
:100D9000813140013D084101DC0040013C08410136
:100DA000DB0040013B084101DA0040013A08410103
:100DB000D900FF30BA07FF30BB3D0130CF0700300C
:100DC000D03D5008803AA0003908803A2002031D27
:100DD000EB2E38084F020318F92E41015808803ACB
:100DE000A00080302002031DF72E4B305702031C59
:100DF000BA2D41013608370403196E1E0C2F2E3010
:100E0000A0005708203E860002308700200881009D
:100E10000130D7070030D83D5708203E8600023009
:100E20008700810165304306031DCE2F4F30CF0070
:100E30000030D0004F08203E86000230870081013C
:100E4000BE01BF01D61F2D2F0130BE000030BF00F4
:100E5000D509D609D50A0319D60A0230C1000030D7
:100E6000C200550856040319692FFF304101CF070E
:100E7000FF30D03D0A30F0000030F1005608F3009A
:100E80005508F2009E31D72681317008303E41016D
:100E9000A0004F08203E8600023087002008810015
:100EA0000A30F0000030F1005608F3005508F20057
:100EB00088310620813171084101D6007008D500C3
:100EC000FF30C107FF30C23DFF30C407FF30C53DD2
:100ED000312F4208803AA00080302002031D722F7B
:100EE000013041020318352FFF304101CF07FF3099
:100EF000D03D3E083F04031D7F2F2B30802F2D3027
:100F0000AE000030AF002E08A0004F08203E860043
:100F10000230870020088100FF30C407FF30C53D44
:100F2000FF30CF07FF30D03D40016C08BF3E41018C
:100F3000A000FF3003180030A100003021021A3059
:100F4000031920020318A62F0130A72F0030A2009A
:100F5000A3012208B2002308B30032083304031DA2
:100F6000B32F6530B42F4530B0000030B1003008E9
:100F7000A0004F08203E8600023087002008810034
:100F8000FF30C407FF30C53D4F08203EF00002305F
:100F9000F1005708203E9D31A525813120304101C7
:100FA000A00020084001A400410145084001A6001E
:100FB000410144084001A500410140089F31B0278C
:100FC00040012508E9002408E80008004101EE017D
:100FD000EF0164308400013085000A308031052043
:100FE00087314301A001A101A201A30120308400A7
:100FF0000230850050308031052040018A31832A3B
:10100C00F601F11F1028F009F109F00A0319F10A91
:10101C00F601F60AF31F1B28F209F309F20A031969
:10102C00F30A0130F4007408F606F701F8017008B1
:10103C00710403194A28F501F50AF11B2F28013018
:10104C00F035F10D890B26280130F4007408F507F2
:10105C0023280130F735F80D890B302871087302FD
:10106C00031D3A2870087202031C41287008F20212
:10107C007108F33B77140130F136F00C890B4228E0
:10108C000130F502031D2F28760803195228F709A1
:10109C00F809F70A0319F80A7808F1007708F00044
:1010AC000800400123088039A8002808AD0023352A
:1010BC00A8002808B300A21B3314330803197328A3
:1010CC00330A031D71280030A3000030A200003049
:1010DC00A1000030A000A2177B280030A300003034
:1010EC00A2000030A1000030A00027088039A80021
:1010FC002808AD062735A8002808B200A61B321414
:10110C00320803199628320A031D94280030A700D0
:10111C000030A6000030A5000030A400A6179E28C1
:10112C000030A7000030A6000030A5000030A4005D
:10113C003208031D3308031DAC280030A300003017
:10114C00A2000030A1000030A00008002008A80078
:10115C002808F00026089D31672588317108400168
:10116C00B9007008B8003808A800A901AA01AB01A1
:10117C002B08B1002A08B0002908AF002808AE00DF
:10118C003908A800A901AA01AB012B08B7002A084D
:10119C00B6002908B5002808B4002108A8002808C2
:1011AC00F00025089D316725883171084001B90090
:1011BC007008B8003808A800A901AA01AB012808DA
:1011CC00AE072908AF3D2A08B03D2B08B13D3908C0
:1011DC00A800A901AA01AB012808B4072908B53D4C
:1011EC002A08B63D2B08B73D2208A8002808F000B5
:1011FC0024089D316725883171084001B9007008B9
:10120C00B8003808A800A901AA01AB012808AE074C
:10121C002908AF3D2A08B03D2B08B13D3908A8007C
:10122C00A901AA01AB012808B4072908B53D2A0871
:10123C00B63D2B08B73D0830AE35AF0DB00DB10D36
:10124C00890B22292108A8002808F00024089D31C8
:10125C006725883171084001B9007008B80038085A
:10126C00AE073908AF3D0030B03DB13D2008A800B5
:10127C002808F00025089D31672588317108400148
:10128C00B9007008B8003808AE073908AF3D003017
:10129C00B03DB13D0830AE35AF0DB00DB10D890B81
:1012AC0051292008A8002808F00024089D31672542
:1012BC00883171084001B9007008B8003808AE07D1
:1012CC003908AF3D0030B03DB13D2108A8002808D9
:1012DC00F00026089D316725883171084001B9005E
:1012EC007008B8003808B4073908B53D0030B63D71
:1012FC00B73D2208A8002808F00025089D31672575
:10130C00883171084001B9007008B8003808B4077A
:10131C003908B53D0030B63DB73D2208A800280875
:10132C00F00026089D316725883171084001B9000D
:10133C007008B8003808A8003908A900AA01AB0148
:10134C000830A835A90DAA0DAB0D890BA7292808C3
:10135C00B4072908B53D2A08B63D2B08B73D2E0821
:10136C00A8002F08A9003008AA003108AB001830DB
:10137C00AB36AA0CA90CA80C890BBE292808B407FB
:10138C002908B53D2A08B63D2B08B73D0830AE35C7
:10139C00AF0DB00DB10D890BCD2933083207A80064
:1013AC00A901A90D2808823EB800FF30293DB900DB
:1013BC00B61BF5290130B435B50DB60DB70D890B3B
:1013CC00E129B11B34140130AE35AF0DB00DB10DA8
:1013DC00890BEA29FF30B807FF30B93DDE29B2018D
:1013EC00B11F0E2AFF302E05A800FF302F05A900D3
:1013FC00FF303005AA007F303105AB002B082A04E2
:10140C0029042804031D0C2A341C0E2AB201B20A2A
:10141C0032080319372A0130B4070030B53D0030CB
:10142C00B63D0030B73D371C372A3408A8003508C4
:10143C00A9003608AA003708AB000130AC00AB3766
:10144C00AA0CA90CA80CAC0B252A2B08B7002A084F
:10145C00B6002908B5002808B4000130B8070030E0
:10146C00B93D3908803AA80080302802031D402A73
:10147C00FF303802031C4C2A7F304001B70080300B
:10148C00B6000030B5000030B400762A40013908AF
:10149C00803AA80080302802031D562A01303802F9
:1014AC000318632A00304001B7000030B60000304A
:1014BC00B5000030B400AD01762A40013808A80010
:1014CC002808B300FF30B405FF30B5057F30B605F2
:1014DC000030B7053318B6173336A8002808B70004
:1014EC002D08A8002808B7043708A3003608A20066
:1014FC003508A1003408A000080051011308F83980
:10150C00063893007E01CE01D9014E114001131112
:10151C007E0138144001111491147E01B81441015C
:10152C009317131313161308F339043893001A1274
:10153C00FC309A0580310B208A31013091316B21BE
:10154C008A310C3091316B218A3105304101EC002C
:10155C000F30EB00F130890BB12AEB0BB12AEC0BFD
:10156C00B12A013041019E003530890BBB2A0000A5
:10157C00410113141318C02A0D08EB00EC016B0881
:10158C004201E00041016C084201E10061084101A7
:10159C00EC00420160084101EB006B08EC00EB0130
:1015AC006B084201E00041016C084201E10041017D
:1015BC000C08420160074101EB004201610803186D
:1015CC00610A4101EC006B084201E00041016C082A
:1015DC004201E10044304001BD008030BC000030CD
:1015EC00BB000030BA004030A300A030A200003095
:1015FC00A1000030A00042016008F0006108F10079
:10160C00890D893B8909F200F30001309131FE21EB
:10161C008A3173084001A7007208A6007108A50062
:10162C007008A400883157208A3140012308C1007A
:10163C002208C0002108BF002008BE0094316C2491
:10164C008A3140013D084201D30040013C0842016F
:10165C00D20040013B084201D10040013A0842014E
:10166C00D00042304001A300C830A2000030A100DD
:10167C000030A000420153084001A700420152086B
:10168C004001A600420151084001A500420150084A
:10169C004001A400883157208A31400123084201BF
:1016AC00DF00400122084201DE0040012108420116
:1016BC00DD00400120084201DC0041019E01353073
:1016CC00890B662B00004101131413186B2B0D08AA
:1016DC00EB00EC016B084201E20041016C08420195
:1016EC00E30063084101EC00420162084101EB0098
:1016FC006B08EC00EB016B084201E20041016C0845
:10170C004201E30041010C08420162074101EB0078
:10171C00420163080318630A4101EC006B084201A3
:10172C00E20041016C084201E30044304001BD007D
:10173C008030BC000030BB000030BA004030A30049
:10174C00A030A2000030A1000030A00042016208CD
:10175C00F0006308F100890D893B8909F200F30060
:10176C0001309131FE218A3173084001A7007208C3
:10177C00A6007108A5007008A400883157208A3192
:10178C0040012308C1002208C0002108BF00200826
:10179C00BE0094316C248A3140013D084201D700CF
:1017AC0040013C084201D60040013B084201D500F3
:1017BC0040013A084201D40041304001A30080307E
:1017CC00A2000030A1000030A000420157084001E7
:1017DC00A700420156084001A600420155084001ED
:1017EC00A500420154084001A400883157208A31D9
:1017FC00400123084201DB00400122084201DA00CB
:10180C00400121084201D900400120084201D800C2
:10181C001030B100A030B2005F08B6005E08B50011
:10182C005D08B4005C08B30040309E3164268A31F8
:10183C00F301F30A40304101EB006B08F400023075
:10184C009E3198268A3105304101EC000F30EB00B7
:10185C00F130890B2F2CEB0B2F2CEC0B2F2C003099
:10186C004201B100A030B2005B08B6005A08B500C6
:10187C005908B4005808B30040309E3164268A31B0
:10188C0002304101EB006B08F3004030EC006C08B7
:10189C00F40001309E3198268A3105304101EC006C
:1018AC000F30EB00F130890B592CEB0B592CEC0B56
:1018BC00592C42015F084001BD0042015E08400105
:1018CC00BC0042015D084001BB0042015C084001C4
:1018DC00BA00C030F300A030F2000030F10000304C
:1018EC00F00042015B08F7005A08F6005908F500B1
:1018FC005808F4009531FF258A3173084001C10066
:10190C007208C0007108BF007008BE0093312A2312
:10191C008A310318942C40011811962C400118158B
:10192C004030F300A030F2000030F1000030F00045
:10193C0042015B08F7005A08F6005908F5005808F0
:10194C00F4009531FF258A3173084001BD007208FF
:10195C00BC007108BB007008BA0042015F0840016E
:10196C00C10042015E084001C00042015D08400117
:10197C00BF0042015C084001BE0093312A238A312A
:10198C000318CB2C40011815B72A40011811B72A9F
:10199C004201B00040016D0886008701403F4101C3
:1019AC00DD00413FDE005D0884005E08850012000A
:1019BC00253A031DD62F40016D08860087010130A2
:1019CC00810741310318810A4201EA01EB0141010F
:1019DC00EE01EF01FF304201EC00FF30ED00A00101
:1019EC00A101102D6E14012DEE14012D6E15012D7B
:1019FC00EE15012D6E1640016D0886008701013031
:101A0C00810741310318810A102D01304201A000D9
:101A1C000030A100420120082104031D3C2D40018F
:101A2C006D0886008701403F4101DD00413FDE002B
:101A3C005D0884005E0885000008DF00E001600896
:101A4C00003A03192A2D0B2D5F08203A0319FE2C9E
:101A5C00033A0319002D083A0319FC2C063A031912
:101A6C00F82C1D3A0319FA2C0B2D102D41016E1C6C
:101A7C00432DFD30EE05FF30EF0540016D0886006B
:101A8C008701403F4101DD00413FDE005D088400DD
:101A9C005E08850012002A3A031D772D40016D085F
:101AAC00860087010130810741310318810A6E08D5
:101ABC008600013087000108840001308500023067
:101ACC008107003F4201EA00013FEB00EB1FBC2DF8
:101ADC0041016E144201EA09EB09EA0A0319EB0A07
:101AEC00BC2D40016D0886008701403FF600413F48
:101AFC00F7009331C4238C3177084201EB00760850
:101B0C00EA00912D40016D088600870101308107A4
:101B1C0041310318810A40016D0886008701403F5E
:101B2C004101DD00413FDE005D0884005E08850058
:101B3C000008D03EDF00FF3003180030E00000301A
:101B4C0060020A3003195F020318AE2D0130AF2D6D
:101B5C000030E100E20161084201A200410162088B
:101B6C004201A30022082304031D882D40016D08A7
:101B7C0086008701403F4101DD00413FDE005D08EA
:101B8C0084005E08850012002E3A031D472E420188
:101B9C00EC01ED0140016D088600870101308107E1
:101BAC0041310318810A6D0886008701403F4101CD
:101BBC00DD00413FDE005D0884005E0885001200F8
:101BCC002A3A031D022E40016D0886008701013060
:101BDC00810741310318810A6E08860001308700A5
:101BEC00010884000130850002308107003F42016A
:101BFC00EC00013FED00472E40016D088600870187
:101C0C00403FF600413FF7009331C4238C317708F5
:101C1C004201ED007608EC001C2E40016D08860098
:101C2C0087010130810741310318810A40016D0899
:101C3C0086008701403F4101DD00413FDE005D0829
:101C4C0084005E0885000008D03EDF00FF300318DA
:101C5C000030E000003060020A3003195F02031804
:101C6C00392E01303A2E0030E100E20161084201C8
:101C7C00A400410162084201A50024082504031DAB
:101C8C00132E40016D0886008701403F4101DD00A5
:101C9C00413FDE005D0884005E0885000008DF001F
:101CAC00E0015F08F6006008F7009D31C4258C3117
:101CBC0076084101E10061084201AC002C080319CF
:101CCC00AA2E40016D0886008701403F4101DD00CE
:101CDC00413FDE0001305D0784005E0803185E0A98
:101CEC0085000008DF00E0015F08F6006008F700DF
:101CFC009D31C4258C3176084101E1006108420117
:101D0C00AD002D080319AA2E40016D08860087012D
:101D1C00403F4101DD00413FDE0002305D078400A1
:101D2C005E0803185E0A85000008DF00E0015F080A
:101D3C00F6006008F7009D31C4258C31760841010E
:101D4C00E10061084201AE0066302C06031DFC2E3A
:101D5C0040016D0886008701403F4101DD00413F95
:101D6C00DE005D0884005E0885000008DF005F0867
:101D7C004201AF0040016D088600870101308107E8
:101D8C0041310318810A6E08860001308700010872
:101D9C0084000130850004308107003F4201A80017
:101DAC00013FA900023FAA00033FAB002B084001F2
:101DBC00EB0042012A084001EA00420129084001D7
:101DCC00E900420128084001E80042012F084101C6
:101DDC00DD005D084001EC004201300881318C21AE
:101DEC0040016908EE006808ED0008002C30F00096
:101DFC00A030F1000230F2000030F3002C309031B2
:101E0C001B208C3170087104031D9E2F40016D083E
:101E1C0086008701403F4101DD00413FDE0001307B
:101E2C005D0784005E0803185E0A85000008DF0069
:101E3C005F084201AF0040016D0886008701403FFA
:101E4C004101DD00413FDE005D0884005E08850035
:101E5C000008BF3EDF00FF3003180030E000003008
:101E6C0060021A3003195F0203183E2F01303F2F16
:101E7C000030E100E20161084201A6004101620864
:101E8C004201A700260827040319602F40016E08A1
:101E9C008600013087000108840001308500043081
:101EAC008107003F4201A800013FA900023FAA00A0
:101EBC00033F732F40016E08860001308700010834
:101ECC0084000130850004308107003F4201A800E6
:101EDC00013FA900023FAA00033FAB0040016D087F
:101EEC00860087010230810741310318810A4201C3
:101EFC002B084001EB0042012A084001EA00420194
:101F0C0029084001E900420128084001E80042018B
:101F1C002F084101DD005D084001EC004201300852
:101F2C0081318C2140016908EE006808ED00080041
:101F3C0040016D0886008701403F4101DD00413FB3
:101F4C00DE005D0884005E0885001200253A031D42
:101F5C00CA2F40016D08860087010130810741318D
:101F6C000318810A2530F0000030F10042013008DE
:101F7C004101DD005D08F2009F3164270130400112
:101F8C00ED000030EE00080040016D08860087016E
:101F9C000130810741310318810AED01EE0108007F
:101FAC0040016D0886008701403F4101DD00413F43
:101FBC00DE005D0884005E0885000008DF00E0019B
:101FCC005F08F0006008F100420130084101E100B7
:101FDC006108F2009F31642740016D08860087017B
:101FEC000130810741310318810A0130ED000030C6
:101FFC00EE000800F401F501701C08287208F407C3
:10200C007308F53D0130F235F30D890B09280130C9
:10201C00F136F00C890B0E2870087104031D022890
:10202C007508F1007408F0000800F6007608F4005A
:10203C007408F9007108F8007008F7000130F2021A
:10204C000030F33B720A031D3D28730A031D3D2823
:10205C00F001F10108000130F4007408F9070130B7
:10206C00F7070030F83D0130F2020030F33B7908FD
:10207C00860001308700010803195D287708840069
:10208C0078088500120003195D287208730403197F
:10209C005D2877088400780885000008F40079082A
:1020AC00860001308700010874060319312877086F
:1020BC008400780885000008F400F501F409F5099E
:1020CC00F40A0319F50A7908860001308700010823
:1020DC007407F00075080318750AF1000800420136
:1020EC0067084001A500420166084001A4004201B6
:1020FC0065084001A300420164084001A200730876
:10210C00A5007208A4007108A3007008A2002208A0
:10211C00F4002308F5002408F6002508F700173012
:10212C00F736F60CF50CF40C890B9628FF30740579
:10213C00A00000307505A10020082104031DC5284E
:10214C002208F4002308F5002408F6002508F700FF
:10215C000130F435F50DF60DF70D890BAF28770826
:10216C00760475047404031DC0280230F00000309E
:10217C00F10008000330F0000030F1000800200AE4
:10218C002104031DE8282208F4002308F500240884
:10219C00F6002508F7000930F435F50DF60DF70DAE
:1021AC00890BD2287708760475047404031DE02883
:1021BC000130E1280030F800F9017808F0007908C6
:1021CC00F10008000430F0000030F1000800700845
:1021DC00F4007108F5007208F6007308F70003109C
:1021EC00760D770DF8007808FA007A08031D072998
:1021FC000030F3000030F2000030F1000030F0004D
:10220C0008007008F4007108F5007208F6007308F5
:10221C00F7001F30F736F60CF50CF40C890B10296F
:10222C007408F8007808F900F217FF30F005FF3059
:10223C00F105FF30F2050030F3059630FA02FA1F73
:10224C0043297A08803A973E031835290030F30069
:10225C000030F2000030F1000030F00008000130D6
:10226C00F336F20CF10CF00C890B36290130F4002A
:10227C007408FA0703195C29352920307A02031CEB
:10228C0059290030F3000030F2000030F10000302A
:10229C00F00008000130F035F10DF20DF30D890B53
:1022AC0051290130FA027A08031D502979080319C3
:1022BC000800F009F109F209F309F00A0319F10A0F
:1022CC000319F20A0319F30A0800F20040018F11F6
:1022DC000F117208F0000730F036890B7229700864
:1022EC000139F100F10DF10DF10D0E087106F73900
:1022FC0071068E007208F0000630F036890B8329C7
:10230C0001307005F1000F087106FE3971068F005F
:10231C007208F0000530F036890B912970080139EC
:10232C00F100F10D0F087106FD3971068F0072086E
:10233C00F0000430F036890BA02970080139F10047
:10234C00F10E0E087106EF3971068E000330890B01
:10235C00AD29000040018F150D30890BB329000009
:10236C0040018F117208F0000330F036890BBB2945
:10237C0070080139F100F10DF10DF10D0E08710627
:10238C00F73971068E007208F0000230F036890BB6
:10239C00CC2901307005F1000F087106FE39710669
:1023AC008F0072360139F000F00D0F087006FD3900
:1023BC0070068F0072080139F000F00E0E087006DE
:1023CC00EF3970068E000330890BEA2900004001BA
:1023DC008F150D30890BF029000040018F113A3018
:1023EC00F0002330890BF829F00BF82900000800C5
:1023FC00F8007808031DF31F132A7009FA007109FD
:10240C00FB007209FC007309FD00FA0A0319FB0AB0
:10241C000319FC0A0319FD0A1B2A7308FD00720834
:10242C00FC007108FB007008FA0073087204710458
:10243C007004031D2A2A0030F3000030F200003033
:10244C00F1000030F00008009630F4007408F90038
:10245C00FE307D050319512A0130F4007408F90788
:10246C000130FD36FC0CFB0CFA0C890B372A2E2A9A
:10247C000130F4007408F9070130FA070030FB3D15
:10248C000030FC3D0030FD3D0130FD36FC0CFB0CFA
:10249C00FA0C890B4B2AFF307D0503195F2A3E2A63
:1024AC000130F9020130FA35FB0DFC0DFD0D890BE5
:1024BC00592AFC1B652A023079020318562A79180E
:1024CC006F2AFF30FA05FF30FB057F30FC05FF302B
:1024DC00FD050310F90C7908F400F501F601F7017C
:1024EC001830F435F50DF60DF70D890B772A7408B5
:1024FC00FA047508FB047608FC047708FD047808D8
:10250C00031DF31F8A2AFD177D08F3007C08F200D7
:10251C007B08F1007A08F0000800F20040018F11EE
:10252C000F157208F0000730F036890B9A2A7008E4
:10253C000139F100F10DF10DF10D0E087106F739AD
:10254C0071068E007208F0000630F036890BAB2A4B
:10255C0001307005F1000F087106FE3971068F000D
:10256C007208F0000530F036890BB92A7008013971
:10257C00F100F10D0F087106FD3971068F0072081C
:10258C00F0000430F036890BC82A70080139F100CC
:10259C00F10E0E087106EF3971068E000330890BAF
:1025AC00D52A000040018F150D30890BDB2A000065
:1025BC0040018F117208F0000330F036890BE32ACA
:1025CC0070080139F100F10DF10DF10D0E087106D5
:1025DC00F73971068E007208F0000230F036890B64
:1025EC00F42A01307005F1000F087106FE397106EE
:1025FC008F0072360139F000F00D0F087006FD39AE
:10260C0070068F0072080139F000F00E0E0870068B
:10261C00EF3970068E000330890B122B000040013D
:10262C008F150D30890B182B000040018F110D30C8
:10263C00890B1E2B00003A30F0002330890B242B21
:10264C00F00B242B00000800003040013A05C200BA
:10265C0000303B05C30080303C05C4007F303D0595
:10266C00C5004508440443044204031D452B0030B7
:10267C00BD000030BC000030BB000030BA000030A0
:10268C003E05C20000303F05C30080304005C40049
:10269C007F304105C5004508440443044204031D32
:1026AC005F2B0030C1000030C0000030BF00003094
:1026BC00BE00BD1F882B0030C2000030C3000030AC
:1026CC00C4008030C5003A09C6003B09C7003C096C
:1026DC00C8003D09C900C60A0319C70A0319C80A6C
:1026EC000319C90A4608C2074708C33D4808C43D38
:1026FC004908C53D4508BD004408BC004308BB0063
:10270C004208BA00C11FB12B0030C2000030C30018
:10271C000030C4008030C5003E09C6003F09C70028
:10272C004009C8004109C900C60A0319C70A0319A0
:10273C00C80A0319C90A4608C2074708C33D480816
:10274C00C43D4908C53D4508C1004408C0004308C4
:10275C00BF004208BE008030BD068030C106410873
:10276C003D02031D080040083C02031D08003F0801
:10277C003B02031D08003E083A0208004001A70175
:10278C00A801A001A101A601A60A76088400770879
:10279C0085001200203A0319E52B7608840077088F
:1027AC0085000008F73EF800FF3003180030F900F0
:1027BC00003079020530031978020318A6012608A7
:1027CC00F800F9017808A2007908A3002208230474
:1027DC000319FB2B0130F6070030F73DC92B0130F4
:1027EC004001A0000030A100332C7608840077084B
:1027FC0085000008F800F9017908003A0319072C44
:10280C00372C78082B3A0319FA2B063A0319F52BB7
:10281C00372C372C76088400770885000008D03ECA
:10282C00F800FF3003180030F900F809F909F80A2C
:10283C000319F90A40012808F1002708F0000A30B2
:10284C00F2000030F30090310020933178087007CB
:10285C004001A7007908713DA8000130F60700304F
:10286C00F73D76088400770885000008D03EF80014
:10287C00FF3003180030F900003079020A300319D8
:10288C00780203184B2C01304C2C0030FA00FB0161
:10289C007A084001A4007B08A50024082504031D28
:1028AC00102C20082104031D672C2709F800280987
:1028BC00F900F80A0319F90A7808F6007908F70004
:1028CC0008002808F7002708F60008004001410816
:1028DC008039C2004208CB004135C2004208D20008
:1028EC00C01B521452080319892C520A031D862C42
:1028FC000030C1000030C0000030BF000030BE000E
:10290C00C017C101912C0030C1000030C000003054
:10291C00BF000030BE003D088039C2004208CB0623
:10292C003D35C2004208D300BC1B53145308031995
:10293C00AD2C530A031DAA2C0030BD000030BC0086
:10294C000030BB000030BA00BC17BD01B52C003004
:10295C00BD000030BC000030BB000030BA003D08A8
:10296C003C043B043A04031DD42C0030C10000305D
:10297C00C0000030BF000030BE008030C0047F308B
:10298C00C1044B08C2004208C1044108BD00400804
:10299C00BC003F08BB003E08BA0008005208031DEB
:1029AC00E82C0030C1000030C0000030BF00003007
:1029BC00BE004108BD004008BC003F08BB003E08FB
:1029CC00BA0008005308C200C301C209C309C20AF5
:1029DC000319C30A52084207C40043080318430AE8
:1029EC00C50044087F3ECC000030453DCD00410879
:1029FC00CA004008C9003F08C8003E08C7000030A4
:102A0C00C1000030C0000030BF000030BE000030FC
:102A1C00D1000030D0000030CF000030CE00D30108
:102A2C001A3053020318522D53080319342D013058
:102A3C00C735C80DC90DCA0D890B1E2D0130BE3509
:102A4C00BF0DC00DC10D890B252DD11B3E140130BE
:102A5C00CE35CF0DD00DD10D890B2E2D3D084A0250
:102A6C00031D422D3C084902031D422D3B08480220
:102A7C00031D422D3A084702031C4D2D51173A08ED
:102A8C00C7023B08C83B3C08C93B3D08CA3B013068
:102A9C00C2004208D307162D4A08490448044704CB
:102AAC00031D4E14C01B6F2D0130BE35BF0DC00D64
:102ABC00C10D890B5B2DD11B3E140130CE35CF0DD2
:102ACC00D00DD10D890B642DFF30CC07FF30CD3DDF
:102ADC00582DD301D11F882DFF304E05C200FF3079
:102AEC004F05C300FF305005C4007F305105C500B1
:102AFC004508440443044204031D862D3E1C882DC6
:102B0C00D301D30A53080319B12D0130BE0700308D
:102B1C00BF3D0030C03D0030C13D411CB12D3E08D1
:102B2C00C2003F08C3004008C4004108C500013082
:102B3C00C600C537C40CC30CC20CC60B9F2D450870
:102B4C00C1004408C0004308BF004208BE00013069
:102B5C00CC070030CD3D4D08803AC2008030420297
:102B6C00031DBA2DFF304C02031CC92DFF30400150
:102B7C00CC000030CD000030C1000030C00000306F
:102B8C00BF000030BE0040014D08803AC2008030CA
:102B9C004202031DD32D01304C020318E12D4001DC
:102BAC00CC01CD010030C1000030C0000030BF00AE
:102BBC000030BE00CB0140014C08C2004208D200DC
:102BCC00521CEA2DC017EE2D7F30C2004208C00502
:102BDC005236C2004208C1004B08C2004208C10470
:102BEC004108BD004008BC003F08BB003E08BA00CD
:102BFC000800730880394001A0002008F8007335E4
:102C0C00A0002008FA00F21B7A147A0803191C2E73
:102C1C007A0A031D192E0030F3000030F200003048
:102C2C00F1000030F000F217F301242E0030F30015
:102C3C000030F2000030F1000030F00077088039ED
:102C4C00A0002008F90079087806031D781777355D
:102C5C00A0002008F900F61B791479080319442EFA
:102C6C00790A031D412E0030F7000030F6000030C9
:102C7C00F5000030F400F617F7014C2E0030F70089
:102C8C000030F6000030F5000030F4007A087902CC
:102C9C000318922E781F562E8030A0002008F806BC
:102CAC007A08A0002008FB007908A0002008FA0090
:102CBC007B08A0002008F9007008A0002008FB0089
:102CCC007408A0002008F0007B08A0002008F40085
:102CDC007108A0002008FB007508A0002008F10076
:102CEC007B08A0002008F5007208A0002008FB005B
:102CFC007608A0002008F2007B08A0002008F6004F
:102D0C007308A0002008FB007708A0002008F3003F
:102D1C007B08A0002008F700FB017A08A000A101A5
:102D2C00A009A109A00A0319A10A79082007A20089
:102D3C0021080318210AA3002308803AA40080303C
:102D4C002402031DAB2E1A302202031CE12E730841
:102D5C007204710470040319B52E0130B62E0030C4
:102D6C004001A0002008FB000030F3000030F2000E
:102D7C000030F1000030F0007908A0002008FA00C3
:102D8C00E52E7B1CD02E7B3601384001A00020089C
:102D9C00FB00D22E0310FB0C7018FB170130400106
:102DAC00A000F337F20CF10CF00CA00BD72E013075
:102DBC00A0002008FA0779087A02031CC72E781B9A
:102DCC00182F7A08031DF32E0030F3000030F200A8
:102DDC000030F1000030F00008007408F0077508AE
:102DEC00F13D7608F23D7708F33D731CA62F7B1C52
:102DFC00062F7B3601384001A0002008FB00082F6D
:102E0C000310FB0C7018FB1701304001A000F337C6
:102E1C00F20CF10CF00CA00B0D2F0130A0002008CF
:102E2C00FA07A62F7308803A4001A0007708803A71
:102E3C002002031D2B2F76087202031D2B2F750801
:102E4C007102031D2B2F740870020318762FFF30AC
:102E5C00A000FF30A100FF30A200FF30A3007408D7
:102E6C00A4007508A5007608A6007708A7007009CD
:102E7C00A8007109A9007209AA007309AB00A80A7D
:102E8C000319A90A0319AA0A0319AB0A2808A407EB
:102E9C002908A53D2A08A63D2B08A73D2408A00714
:102EAC002508A13D2608A23D2708A33D2308F300D1
:102EBC002208F2002108F1002008F0008030A00068
:102ECC002008F806FB09FB0A7B08031D7E2F013046
:102EDC00F0070030F13D0030F23D0030F33D7E2F25
:102EEC007408F0027508F13B7608F23B7708F33B67
:102EFC007308720471047004031DA42F7B08031D56
:102F0C00A42F0030F3000030F2000030F10000304C
:102F1C00F00008000130F035F10DF20DF30D890BC6
:102F2C00912FFB1B70147B1C9D2F03149E2F0310E1
:102F3C00FB0D7A080319A42F0130FA02F21F902F0F
:102F4C00F901FB1FB12F7B087F39031DAF2F701CBC
:102F5C00B12FF901F90A79080319DE2F0130F007B6
:102F6C000030F13D0030F23D0030F33D731CDE2F9C
:102F7C0070084001A0007108A1007208A20073083B
:102F8C00A3000130A400A337A20CA10CA00CA40B2D
:102F9C00C92F2308F3002208F2002108F1002008B1
:102FAC00F0007A0A0319DE2F0130A0002008FA077E
:102FBC007A0A031D7A08031DEE2F0030F30000304F
:102FCC00F2000030F1000030F0007A080319F8012B
:102FDC007A1CF22FF217F72F7F304001A000200847
:102FEC00F2057A364001A0002008F300F81F080013
:042FFC00F3170800BF
:103A28007308720471047004031908008030F306E7
:103A380008007008D03EF200FF30713DF3000030FE
:103A480073020A300319720203182C2D01302D2D30
:103A58000030F400F5017408F0007508F100080062
:103A68007008BF3EF200FF30713DF3000030730272
:103A78001A30031972020318432D0130442D003007
:103A8800F400F5017408F0007508F1000800F4016D
:103A9800F40A20307006710403195F2D7008F73E90
:103AA800F200FF30713DF300003073020530031956
:103AB80072020318F4017408F200F3017208F000AE
:103AC8007308F1000800F800F401F5017008F2002D
:103AD800F3017208F6007308F700781C772D760852
:103AE800F4077708F53D0130F635F70D890B782D89
:103AF8000310F80C7808031D712D7508F10074087F
:103B0800F000080080304001BD064108F30040087D
:103B1800F2003F08F1003E08F0003D08F7003C08BD
:103B2800F6003B08F5003A08F4009531FF257308C4
:103B38004001BD007208BC007108BB007008BA00E3
:103B48000800F7007108F5007008F4007708F20023
:103B58007208F6007608860002308700F60A7508B3
:103B6800F3007408F200F40A0319F50A72088400D5
:103B7800730885000008C03F890803190800AE2DA6
:103B88007608BF3EF800FF30773DF9000030790233
:103B98001A30031978020318D32D0130D42D0030C0
:103BA800FA00FB017A08FC007B08FD007C087D0414
:103BB8000319080020307604F60000307704F70077
:103BC8000800F7007708F2007208F6007708860008
:103BD8000230870001080319F62D0130F20072083F
:103BE800F707EA2D7608F2000230F300F209F3092C
:103BF800F20A0319F30A7708F4000230F500720894
:103C08007407F0007308753DF10008004001A30037
:103C1800A101A20121082307F900790886000230D2
:103C280087000108FA007A08A00020080319080094
:103C38002008F900FA017908F0007A08F1007808FC
:103C4800FB007B08F2009F3164279E310130400160
:103C5800A1070030A23D0E2E4101E8006408EA00E9
:103C68006308E9004201E801E901410169088400AB
:103C78006A088500120003195B2EE9304101E6004D
:103C880066084001ED0041016508E700670840014A
:103C9800EE00410168088C31CE249E3140016D0848
:103CA8004201E80740016E084201E93D392E420110
:103CB80069084101E400420168084101E300080085
:103CC8004201B90033304001EF006F084201BA00E9
:103CD80039084001EF006F084201BB00BC01BD017B
:103CE800BE01BF0132084101E4004201310841012F
:103CF800E3003A304001EF006F084101E5003B3036
:103D08009E313026410164084201B8004101630830
:103D18004201B7003C0839074001EF006F088600F0
:103D28000130870081010800F700A92E7308803E42
:103D3800A52E7308C03EA52E7308943EA52E7308C1
:103D4800D43EF5007508F800BF2E7708F500F60197
:103D58007608003A0319B12EBF2E7508013A0319E7
:103D68009A2E033A03199D2E013A0319A02E073AF9
:103D78000319A32EBF2E780891316B219E31740848
:103D880086000130870001080319080074088600BE
:103D9800013087000108923193229E310130F500ED
:103DA8007508F407C32EF601F31FE12EF209F30993
:103DB800F20A0319F30AF601F60AF11FE82EF009D0
:103DC800F109F00A0319F10A7008710403190F2F99
:103DD800F501F50AF11BFA2E0130F035F10D890BCA
:103DE800F12E0130F4007408F507EE2E7108730205
:103DF800031D002F70087202031C062F7008F202C0
:103E08007108F33B0130F136F00C890B072F0130B4
:103E1800F502031DFA2E76080319172FF209F30984
:103E2800F20A0319F30A7308F1007208F000080097
:103E380000307005F80000307105F9008030720517
:103E4800FA007F307305FB007B087A047904780454
:103E5800031D362F0030F3000030F2000030F1006F
:103E68000030F00000307405F80000307505F900E6
:103E780080307605FA007F307705FB007B087A04EE
:103E880079047804031D502F0030F7000030F60045
:103E98000030F5000030F40077087306031D5E2F2C
:103EA80076087206031D5E2F75087106031D5E2FC6
:103EB800740870060319622F031008000314080021
:103EC8007208031D7208031D6D2F700880310420CD
:103ED80008007208033E86000130870016000104BE
:103EE8000319932F7208033E860001308700403F74
:103EF800F300413FF400720A860001308700403F1A
:103F0800F500413FF6007608803AF7007408803AD9
:103F18007702031D912F73087502031808007008B3
:103F2800F3007208860001308700720A84000130AD
:103F3800850000080107F400740886000130870036
:103F480073088100720A86000130870001308107FA
:103F580041310318810A08004001AB0041016E1C81
:103F6800BE2F40012B08FC007C08F80024089E3175
:103F78000A269F314001A61BC62F2608AA0025083D
:103F8800A900C82FA901AA01A701A8012808803AF9
:103F9800FC002A08803A7C02031DD42F2908270236
:103FA8000318E82F2030F0000030F10040012B0802
:103FB800FC007C08F2009F3164279F3101304001EA
:103FC800A7070030A83DCA2F41016E18F42F400101
:103FD8002B08FC007C08F80024089E310A269F3133
:103FE800400124089D31E525400129087007A400F7
:103FF8002A08713DA5000800543465346D347034C6
:1040080057346934733468343D34253430343434A7
:104018002E343034663400345234653461346C34B0
:104028003D342534303434342E343034663400345E
:1040380049344E34463400344E3441344E3400341E
:1040480069346E34663400346E3461346E3400344E
:064058006C3466340034F4
:020000040001F9
:0A000E008C3FFD3F9F3FFF3FFF3F87
:00000001FF
