:0400000080314A28D9
:100008007E14803140017F08F2007E014A1C2628B8
:100018004001160C890C0139013EF000F00DF00D7D
:1000280016087006FB39700696000B30F100263072
:10003800F0005E30890B1E28F00B1E28F10B1E28DD
:100048007E01CA013F1C45284001160CF000F00C47
:10005800700C0139013EF100F10DF10DF10D16089A
:100068007106F739710696000B30F1002630F00062
:100078005E30890B3D28F00B3D28F10B3D287E01B1
:10008800BF0172084001FF007E10090080314C2832
:100098007E1040018031502851011308F839063884
:1000A800930040018C017E01B801FF3040019100AE
:1000B8008D017E01C301400192017E0139143E1475
:1000C800BF014814CA013F1878284001160C890C52
:1000D8000139013EF700F70DF70D16087706FB39D1
:1000E800770696007E01BF014E010C1216168B177B
:0200F8007C2862
:020000040001F9
:0A000E008C3FFD3F9F3FFF3FFF3F87
:00000001FF
