:08000000803102288731E62F50
:10000E007808790403192E28FD01FD0AF91B192819
:10001E000130F835F90D890B10280130FC007C08F1
:10002E00FD070D2879087B02031D1F2878087A0228
:10003E00031C25287808FA027908FB3B0130F936B3
:10004E00F80C890B26280130FD02031D19287B08A8
:10005E00F9007A08F8000800F601F11F3D28F009B2
:10006E00F109F00A0319F10AF601F60AF31F4828FE
:10007E00F209F309F20A0319F30A0130F4007408C5
:10008E00F606F701F8017008710403197728F501D7
:10009E00F50AF11B5C280130F035F10D890B532860
:1000AE000130F4007408F50750280130F735F80DCB
:1000BE00890B5D2871087302031D67287008720290
:1000CE00031C6E287008F2027108F33B771401309E
:1000DE00F136F00C890B6F280130F502031D5C28F8
:1000EE00760803197F28F709F809F70A0319F80AA1
:1000FE007808F1007708F0000800F20040018F1137
:10010E000F117208F0000730F036890B8B2870083B
:10011E000139F100F10D0E087106FD3971068E00E0
:10012E007208F0000630F036890B9A2870080139F3
:10013E00F100F10DF10D0E087106FB3971068E00FE
:10014E007208F0000530F036890BAA2801307005D0
:10015E00F1000F087106FE3971068F007208F0006B
:10016E000430F036890BB82870080139F100F10D12
:10017E000F087106FD3971068F000330890BC528F3
:10018E00000040018F150D30890BCB280000400177
:10019E008F117208F0000330F036890BD3287008E7
:1001AE000139F100F10D0E087106FD3971068E0050
:1001BE007208F0000230F036890BE228700801391F
:1001CE00F100F10DF10D0E087106FB3971068E006E
:1001DE007208F0000130F036890BF22801307005FC
:1001EE00F1000F087106FE3971068F007208013991
:1001FE00F000F00D0F087006FD3970068F00033009
:10020E00890B0729000040018F150D30890B0D2930
:10021E00000040018F113A30F0002330890B152970
:10022E00F00B152900000800F20040018F110F1588
:10023E007208F0000730F036890B22297008013958
:10024E00F100F10D0E087106FD3971068E0072086F
:10025E00F0000630F036890B312970080139F100B3
:10026E00F10DF10D0E087106FB3971068E00720844
:10027E00F0000530F036890B412901307005F10090
:10028E000F087106FE3971068F007208F0000430F7
:10029E00F036890B4F2970080139F100F10D0F0866
:1002AE007106FD3971068F000330890B5C29000041
:1002BE0040018F150D30890B6229000040018F110E
:1002CE007208F0000330F036890B6A297008013984
:1002DE00F100F10D0E087106FD3971068E007208DF
:1002EE00F0000230F036890B792970080139F100DF
:1002FE00F10DF10D0E087106FB3971068E007208B4
:10030E00F0000130F036890B892901307005F100BB
:10031E000F087106FE3971068F0072080139F00060
:10032E00F00D0F087006FD3970068F000330890B33
:10033E009E29000040018F150D30890BA429000065
:10034E0040018F110D30890BAA2900003A30F000C0
:10035E002330890BB029F00BB029000008004001B2
:10036E009310131114109410941114118E100E1169
:10037E000F108F108F110F113A30F3002330890BAD
:10038E00C629F30BC62900003A30F3002330890B3F
:10039E00CE29F30BCE2900003A30F3002330890B1F
:1003AE00D629F30BD62900003A30F3002330890BFF
:1003BE00DE29F30BDE2900003A30F3002330890BDF
:1003CE00E629F30BE62900003A30F3002330890BBF
:1003DE00EE29F30BEE290000F401F40A0430740246
:1003EE000318212A40018E100E110F148F148F1135
:1003FE000F118E100E110F148F148F150F110D304B
:10040E00890B072A000040018E100E110F148F1455
:10041E008F110F113A30F3002330890B142AF30B8E
:10042E00142A00000130F3007308F407043074023C
:10043E00031CF92940018E100E110F148F108F110D
:10044E000F118E100E110F148F108F150F110D30FE
:10045E00890B2F2A000040018E100E110F148F10E1
:10046E008F110F113A30F3002330890B3C2AF30B16
:10047E003C2A00002830F3007308F4007408803121
:10048E00842081311030F3007308F4007408803139
:10049E0084208131F401F40A740880318420813182
:1004AE000F30F3007308F4007408803184200800C4
:1004BE004001DB004C30D2005208D6004B08D3006E
:1004CE004A08D200CA0A0319CB0A520884005308FC
:1004DE0085000008D4005408DC005C080319272BA3
:1004EE0025305C060319872A5C08D2005B0886005B
:1004FE008701520881000130D2005208DB07652ABD
:10050E00D7014B08D3004A08D200CA0A0319CB0AF6
:10051E0052088400530885000008DC00003A0319D5
:10052E00272B643A03199F2A0D3A03199F2A652A2D
:10053E00560886008701403FD900413FDA0002305D
:10054E00D2005208D607DA1FB52A0330D20052085D
:10055E00D704D909DA09D90A0319DA0ADC01DC0A47
:10056E0005305C060319DA2A5C08D200D301D235B5
:10057E00D30D0030520784009030533D8500003F6C
:10058E00D400013FD50055085A02031DD02A540845
:10059E005902031CDA2A0130D2005208DC0705305A
:1005AE005C06031DBB2A570803390319E92A2D30AF
:1005BE00D2005B0886008701520881000130D2000C
:1005CE005208DB075C08D2005208D800FF30D20078
:1005DE005208D807580A0319652A0A30F800003065
:1005EE00F9005808D200D301D235D30D003052078E
:1005FE0084009030533D8500003FF000013FF10034
:10060E005A08F3005908F2008F31602782317108C1
:10061E00FB007008FA008031072082317808303EE6
:10062E004001D4005408DC005C08D2005B08860050
:10063E008701520881000130D2005208DB07ED2AF3
:10064E005B08860087018101080051011308F83903
:10065E000638930040018C017E01B80140019101E2
:10066E008E018F017E014E10CE104E11CE124E1302
:10067E00CE13D90109307D01C8000A30C9007E01B0
:10068E00C3014001921412157E01C4144415430196
:10069E009A169A151A119A101A1013309700813162
:1006AE00B621833101308031842083310C3080318A
:1006BE008420833129304001E5009630E4007F30FC
:1006CE00890B672BE40B672BE50B672B0030400182
:1006DE00CC00CD000230CE000030CF001430D00060
:1006EE000030D1000230D2000030D3000D30D400E3
:1006FE000030D5000B30D6000030D7001230D800B5
:10070E000030D90085315525833143011B141B1848
:10071E008E2B40016B08430196001918942B191962
:10072E00962B0130803184208331F3015330F40055
:10073E009030F50002308F31C927833129304001C6
:10074E00E5009630E4007F30890BAB2BE40BAB2B2E
:10075E00E50BAB2B430196011918B32B1919B52BC9
:10076E009B149B18B82B4001690843019600191879
:10077E00BE2B1919C02B0130803184208331F30137
:10078E005130F4009030F50002308F31C92783319B
:10079E0029304001E5009630E4007F30890BD52BDF
:1007AE00E40BD52BE50BD52B43019B15191CDD2B2B
:1007BE000130803184208331F3013F30F4009030DA
:1007CE00F50002308F31C927833129304001E50011
:1007DE009630E4007F30890BF22BE40BF22BE50B05
:1007EE00F22B430116084001E400E5016408C8003D
:1007FE006508C90043019B121B161B1A042C0130FD
:10080E00803184208331F3014830F4009030F500BC
:10081E0002308F31C927833129304001E5009630EF
:10082E00E4007F30890B192CE40B192CE50B192CE5
:10083E0043019B15191C212C16084001E400E5010B
:10084E006408C6006508C70043019B121B161B1ADD
:10085E002E2C0130803184208331F3011630F400C8
:10086E009030F50002308F31C92783312930400195
:10087E00E5009630E4007F30890B432CE40B432CCB
:10088E00E50B432C43019B15191C4B2C16084001FC
:10089E00E400E5016408C4006508C50043019B1629
:1008AE001B161B1A582C0130803184208331F30122
:1008BE003530F4009030F50002308F31C927833186
:1008CE0029304001E5009630E4007F30890B6D2C15
:1008DE00E40B6D2CE50B6D2C43011B151B19752CB0
:1008EE000130803184208331F3015830F400903090
:1008FE00F50002308F31C927833129304001E500E0
:10090E009630E4007F30890B8A2CE40B8A2CE50BA1
:10091E008A2C0F3040014805E40000304905E500FF
:10092E004908E7004808E6000430E800670DE70CC8
:10093E00E60CE80B9D2C07306605F90000306705C4
:10094E00FA000A30FB000030FC008F314227833161
:10095E00400164087907A40065087A3DA5000F30B0
:10096E004605E40000304705E5004708E700460865
:10097E00E6000430E800670DE70CE60CE80BC22C2D
:10098E0007306605F90000306705FA000A30FB00F3
:10099E000030FC008F314227833140016408790713
:1009AE00A20065087A3DA3000F304405E400003034
:1009BE004505E5004508E7004408E6000430E80078
:1009CE00670DE70CE60CE80BE72C07306605F9001F
:1009DE0000306705FA000A30FB000030FC008F3152
:1009EE0042278331400164087907A00065087A3DEB
:1009FE00A100093024062504031D0E2D1608013909
:100A0E00013EE40016086406FE39640696000A30BC
:100A1E00CA009030CB002108CD002008CC0023085E
:100A2E00CF002208CE002508D1002408D000343093
:100A3E0082315F228331F301F30A34304001E40046
:100A4E006408F40001308F31942783315230400115
:100A5E00E5002B30E4000030890B332DE40B332DF1
:100A6E00E50B332D00000130803184208331F301FA
:100A7E002130F4009030F50002308F31C9278331D8
:100A8E003D304001E500E130E4003F30890B4D2D53
:100A9E00E40B4D2DE50B4D2D00328C2B40014D08F6
:100AAE00803ADA0080305A02031D5F2D0A304C0264
:100ABE000318672D40014D08B3004C08B200AB2D52
:100ACE000A30F0000030F10040014D08F3004C08F0
:100ADE00F2008031332085317108FA007008F90078
:100AEE000A30FB000030FC008F3142278531790936
:100AFE004001DA007A09DB00DA0A0319DB0A0A3050
:100B0E00F0000030F1004D08F3004C08F200803187
:100B1E003320853170084001DC007108DD00DC0EE9
:100B2E00DD0EF030DD055C080F39DD04F030DC053C
:100B3E005A085C07DE005B085D3DDF004C085E076F
:100B4E00B2004D085F3DB3004F08803ADA008030A6
:100B5E005A02031DB42D0A304E020318BC2D40015B
:100B6E004F08B1004E08B000002E0A30F0000030E1
:100B7E00F10040014F08F3004E08F200803133209F
:100B8E0085317108FA007008F9000A30FB00003058
:100B9E00FC008F314227853179094001DA007A094C
:100BAE00DB00DA0A0319DB0A0A30F0000030F1002C
:100BBE004F08F3004E08F200803133208531700863
:100BCE004001DC007108DD00DC0EDD0EF030DD05CD
:100BDE005C080F39DD04F030DC055A085C07DE00D6
:100BEE005B085D3DDF004E085E07B0004F085F3DBD
:100BFE00B1005108803ADA0080305A02031D092EE6
:100C0E000A3050020318112E40015108AF0050084F
:100C1E00AE00552E0A30F0000030F10040015108B0
:100C2E00F3005008F2008031332085317108FA004C
:100C3E007008F9000A30FB000030FC008F314227AB
:100C4E00853179094001DA007A09DB00DA0A0319E5
:100C5E00DB0A0A30F0000030F1005108F3005008B2
:100C6E00F20080313320853170084001DC007108BC
:100C7E00DD00DC0EDD0EF030DD055C080F39DD0425
:100C8E00F030DC055A085C07DE005B085D3DDF00D6
:100C9E0050085E07AE0051085F3DAF005308AD002F
:100CAE005208AC005508803ADA0080305A02031D13
:100CBE00622E0A30540203186A2E40015508AB000A
:100CCE005408AA00AE2E0A30F0000030F1004001A8
:100CDE005508F3005408F200803133208531710835
:100CEE00FA007008F9000A30FB000030FC008F316A
:100CFE004227853179094001DA007A09DB00DA0AE8
:100D0E000319DB0A0A30F0000030F1005508F30039
:100D1E005408F20080313320853170084001DC0028
:100D2E007108DD00DC0EDD0EF030DD055C080F39DC
:100D3E00DD04F030DC055A085C07DE005B085D3D23
:100D4E00DF0054085E07AA0055085F3DAB00570848
:100D5E00803ADA0080305A02031DB72E0A3056024E
:100D6E000318BF2E40015708A9005608A800032FEC
:100D7E000A30F0000030F10040015708F300560829
:100D8E00F2008031332085317108FA007008F900C5
:100D9E000A30FB000030FC008F3142278531790983
:100DAE004001DA007A09DB00DA0A0319DB0A0A309D
:100DBE00F0000030F1005708F3005608F2008031C1
:100DCE003320853170084001DC007108DD00DC0E37
:100DDE00DD0EF030DD055C080F39DD04F030DC058A
:100DEE005A085C07DE005B085D3DDF0056085E07B3
:100DFE00A80057085F3DA9005908803ADA008030F4
:100E0E005A02031D0C2F0A3058020318142F4001EA
:100E1E005908A7005808A600582F0A30F0000030D5
:100E2E00F10040015908F3005808F20080313320D8
:100E3E0085317108FA007008F9000A30FB000030A5
:100E4E00FC008F314227853179094001DA007A0999
:100E5E00DB00DA0A0319DB0A0A30F0000030F10079
:100E6E005908F3005808F20080313320853170089C
:100E7E004001DC007108DD00DC0EDD0EF030DD051A
:100E8E005C080F39DD04F030DC055A085C07DE0023
:100E9E005B085D3DDF0058085E07A60059085F3D00
:100EAE00A70043011B140130803184208531F301EA
:100EBE005330F4009030F50002308F31C927853160
:100ECE004001161529304001DB009630DA007F30E4
:100EDE00890B6F2FDA0B6F2FDB0B6F2F43011B1854
:100EEE00752F40016B084301960019187C2F1919B4
:100EFE007E2F1B1B862F400196141611882F400142
:100F0E0016154301960119188A2F19198C2F4001B5
:100F1E003208430196001918922F1919942F400187
:100F2E0030084301960019189A2F19199C2F400169
:100F3E002E08430196001918A22F1919A42F40014B
:100F4E002C08430196001918AA2F1919AC2F40012D
:100F5E002A08430196001918B22F1919B42F40010F
:100F6E002808430196001918BA2F1919BC2F4001F1
:100F7E002608430196001918C22F1919C42F1030D4
:100F8E0096001918C82F1919CA2F1B151B19CD2F0A
:100F9E00F3012B30F4009030F50002308F31C92769
:100FAE0085313D304001DB00E130DA003F30890B06
:100FBE00DE2FDA0BDE2FDB0BDE2F003208008F3137
:100FCE0038278731E9008F3139278731EA008F3191
:100FDE003A278731EB008F313B278731EC002030E9
:100FEE008400003085002A308F313C274001833148
:020FFE002C2B9A
:101E7000D1340034D0340034640080010131890B46
:101E80003D2F00344001CA01CB01791C4C2F7B0847
:101E90004001CA077C08CB3D0130FB35FC0D890BA6
:101EA0004D2F0130FA36F90C890B522F79087A043C
:101EB000031D452F40014B08FA004A08F9000800AD
:101EC000F501F6017008710403198F2FF701F70A65
:101ED000F11B742F0130F035F10D890B6B2F0130A0
:101EE000F4007408F707682F0130F535F60D890BFB
:101EF000752F71087302031D7F2F70087202031C77
:101F0000862F7008F2027108F33B75140130F13628
:101F1000F00C890B872F0130F702031D742F760810
:101F2000F1007508F0000800F600A52F7308803E48
:101F3000A12F7308C03EA12F7308943EA12F7308F0
:101F4000D43EF5007508F700B32F7608013A03195F
:101F5000962F033A0319992F013A03199C2F073A38
:101F600003199F2FB32F7708803184208F31740895
:101F7000860087010108031908007408860087019C
:101F8000010881311B218F310130F5007508F407FC
:101F9000B72FF700DA2F7308803ED62F7308C03EA4
:101FA000D62F7308943ED62F7308D43EF6007608D9
:101FB000F800E82F7708013A0319CB2F033A0319E9
:101FC000CE2F013A0319D12F073A0319D42FE82F46
:101FD0007808803184208F3174088400750885006A
:101FE00012000319080074088400750885000008B1
:101FF00081311B218F310130F4070030F53DEC2F8A
:10200000013400340A34003464340034E8340334D6
:1020100010342734203420342034253464343A34C6
:10202000253464343A342534643400346D346934EE
:102030006E3420346C346534693464346F347334F2
:1020400000345234453441344434203444344F3421
:102050004E344534003443344F344E344634203407
:1020600044344F344E3445340034683472342034B0
:102070006C346534693464346F34733400347734C9
:10208000683469346C346534203442344634003466
:10209000733420346C346534693464346F3473348D
:1020A00000345234453453345434413452340034BF
:0A20B000533454344F3450340034DC
:020000040001F9
:0A000E008C3FFD3F9F3FFF3FFF3F87
:00000001FF
