:0400000080313328F0
:100008007E14803140017F08F100190C0139013E4E
:10001800F000F00D19087006FD39700699001F28C8
:10002800790844018D0078081D28770844018D005F
:1000380076088C002C287B08003A031924282C28E1
:100048007A08003A03191428013A031919282C28A8
:100058004E01101071084001FF007E100900803128
:100068003528803178208031F60080317920803140
:10007800F70080317A208031F80080317B20F90048
:10008800FA01FB017E10400180314A285101130812
:10009800F8390638930040018F017E01D9014001EB
:1000A800141594104E0110101A148B170B171A14EC
:1000B80044010E08CF3920388E001108F039013874
:1000C80091000E1579088D0078088C000E144001F7
:1000D8000F1975280130FA000030FB006B28FA016F
:1000E800FB010F1D6B287328F034D8341834FC3406
:020000040001F9
:0A000E008C3FFD3F9F3FFF3FFF3F87
:00000001FF
