:08000000803102288731F82F3E
:100A9200FD01F91F532DF809F909F80A0319F90A9A
:100AA200FD01FD0A7808F0007908F100F2018E30AC
:100AB200FB007B08F3007D08FC007C08F400853114
:100AC20069257008F8007108F9007208FA00080038
:100AD20073080319712D720871047004031D822DAD
:100AE2000030F0000030F1000030F2000800013068
:100AF200F5007508F3070130F236F10CF00C890BA2
:100B02007D2DFE30720503199B2D782D0130F500E5
:100B12007508F3070130F007003003180130F107C0
:100B2200003003180130F2070130F236F10CF00CFC
:100B3200890B962DFF3072050319A82D872D0130E0
:100B4200F3020130F035F10DF20D890BA32DF11BEB
:100B5200AE2D023073020318A02D7318B62DFF308C
:100B6200F0057F30F105FF30F2050310F30C730836
:100B7200F500F601F7011030F535F60DF70D890B8A
:100B8200BD2D7508F0047608F1047708F2047408A4
:100B920003190800F217080040013008B4003108B8
:100BA200B5003208B6000310350D360DB700370810
:100BB200BD003D08031DE62D0030B3000030B20039
:100BC2000030B1000030B00008003008B400310835
:100BD200B5003208B6001730B636B50CB40C890B26
:100BE200ED2D3408B7003708B800B117FF30B00553
:100BF200FF30B1050030B2053008B9003108BA0043
:100C02003208BB00BC018E30BD02BD1F242E3D0840
:100C1200803A8F3E0318162E0030B3000030B20027
:100C22000030B1000030B00008000130BC36BB0C0F
:100C3200BA0CB90C890B172E0130B4003408BD0769
:100C420003193D2E162E18303D02031C3A2E003099
:100C5200B3000030B2000030B1000030B000080034
:100C62000130B935BA0DBB0DBC0D890B322E0130E6
:100C7200BD023D08031D312E380803194B2EB90958
:100C8200BA09BB09BC09B90A0319BA0A0319BB0A92
:100C92000319BC0A3C08B3003B08B2003A08B10091
:100CA2003908B000080040012008A6002108A7006A
:100CB2002208A8000310270D280DA9002908AA0060
:100CC2002A08031D6B2E0030A0000030A100003066
:100CD200A20008002308A6002408A7002508A800EF
:100CE2000310270D280DA9002908AF002F08031DA6
:100CF200812E0030A0000030A1000030A2000800C8
:100D02002F087B3EA6002608AA072008A600210875
:100D1200A7002208A8001030A836A70CA60C890B41
:100D22008D2E2608A9002908AF002308A600240852
:100D3200A7002508A8001030A836A70CA60C890B1E
:100D42009D2E2608A9002908AF068030A600260895
:100D5200AF05A117A417FF30A305FF30A40500308B
:100D6200A5050030AB000030AC000030AD0007300C
:100D7200A6002608AE00201CC42E2308AB072408B8
:100D8200AC3D2508AD3D0130A236A10CA00C890B6B
:100D9200C52E0130A335A40DA50D890BCB2E013034
:100DA200AE02031DBC2E0930A6002608AE00201C90
:100DB200E02E2308AB072408AC3D2508AD3D0130E9
:100DC200A236A10CA00C890BE12E0130AD36AC0C81
:100DD200AB0C890BE72E0130AE02031DD82E2B0877
:100DE200F0002C08F1002D08F2002A08A6002608BF
:100DF200F3002F08A7002708F40085316925700841
:100E02004001A0007108A1007208A200080051016F
:100E12001308F8390638930040018D017E01C301A1
:100E2200FF30400192008C0101307E01B800FF309A
:100E3200400191008E017E01D901400114139413E7
:100E420041019317131313161308F339043893004F
:100E52001A12FC309A059E0109307E019800093071
:100E620099000130450190008E17F0308E050E0872
:100E72008F3940388E00FF308D0046018E170E12DA
:100E82000F308E0444011E08FC3901389E003530B3
:100E9200890B492F00004101131413184E2F0D081E
:100EA2004001C200C3014208C7004308C800480805
:100EB200C3004708C2004208C300C2014208C7007B
:100EC2004308C80041010C0840014707C200480816
:100ED2000318480AC3004208C7004308C80048086C
:100EE200F9004708F8008531492587317808400123
:100EF200A3007908A4007A08A5000030A000803081
:100F0200A1003F30A20086315426873140012008DB
:100F1200B0002108B1002208B2008531CD25873109
:100F220040013108C6003008C5004608803AC200B8
:100F320080304202031D9F2F01304502031CB72F50
:100F420040014608803AC20082304202031DAB2FA4
:100F5200003045020318B72F4001121092144608C0
:100F620046018D004001450846018C0040014608BB
:100F7200803AC20082304202031DC12F0130450275
:100F8200031CD92F40014608803AC2008430420235
:100F9200031DCD2F003045020318D92F4001121432
:100FA2009210460846018D004001450846018C001A
:100FB2000230400146064504031DEE2F121492141E
:100FC2000B304001C3002630C2005D30890BE72F91
:100FD200C20BE72FC30BE72F003268304001C2007B
:100FE200E430890BF22FC20BF22F0000482F400190
:0E0FF200C501C601C701C80140018731082FA3
:020000040001F9
:0A000E008C3FFD3F9F3FFF3FFF3F87
:00000001FF
