:1000000080315A28013400347E14803140017F0849
:10001000B1008C1846285A085B0403193D289A3011
:10002000A100E930A2004130A3000230F00000300E
:10003000F1005B08F3005A08F20095314625803143
:100040007108FA007008F9009331FB2380317908B8
:100050004001A4007A08A5007B08A60088319920F9
:100060008031400121084101EB004001220841019B
:10007000EC00400123084101ED0001304101EE0098
:100080000030EF004001DA01DB014C285A08013E44
:10009000DA0000305B3DDB005D0844018D0040016B
:1000A0005C0844018C004E01101040013108FF0033
:1000B0007E10090080315C288731FE278031DC000A
:1000C0008731FF278031DD004101803102208031FE
:1000D000EE0080310320EF004001DA01DB01410135
:1000E000EB01EC01ED017E1040019731052F41013C
:1000F000E000C330C6004608CF004208C7004108F0
:10010000C600C10A0319C20A4608840047088500D0
:100110000008C8004808E40064080319A72D25302A
:1001200064060319952864089B2DD801D901D001D4
:10013000D101410884004208850000089331B223B0
:100140008031031CDE284101D801D9010A30400169
:10015000C2000030C300410159084001C5004101FF
:1001600058084001C4009331C12380314001430845
:100170004101D900400142084101D80041088400F2
:10018000420885000008D03EC600FF30031800304A
:10019000C7004608D8074708D93D0130C1070030DD
:1001A000C23D410884004208850000089331B22313
:1001B0008031031CDE28A6285115F328410142088E
:1001C000C7004108C600C10A0319C20A46088400D4
:1001D000470885000008E400003A0319A72D663A95
:1001E0000319DC287D2800305005C6000730510572
:1001F000C700460847040319472D0630D6000030D3
:10020000D7004F0886008701403FE100413FE200F0
:10021000423FE3000330C6004608CF0761084001B3
:10022000B200410162084001B3004101630840018E
:10023000B4000030B5000030B6000030B700943193
:100240008124803103184329410161084001B20033
:10025000410162084001B300410163084001B4005C
:100260008731F5278031400132084101E10040012A
:1002700033084101E200400134084101E30003304A
:10028000D0040030D1044101DE01DF0163086204C3
:10029000610403190C2AE13086008701403FC60043
:1002A000413FC700423FC800433FC9000F30C93635
:1002B000C80CC70CC60C890B5729FF304605CA006D
:1002C00000304705CB004A08823EDE00FF304B3D40
:1002D000DF00FF30DE07FF30DF3D03304001C200AA
:1002E0000030C30041015F084001C50041015E08C4
:1002F0004001C4009331C1238031400143084101D2
:10030000DF00400142084101DE000A304001B9002F
:100310000030BA0041015F084001BC0041015E08A5
:100320004001BB0095319725803140013A084101D9
:10033000DF00400139084101DE00DF1FA329FF3043
:10034000DE07FF30DF3D5E03FF3A8D317A258031D5
:1003500041012008DA002108DB002208DC006108E6
:100360004001C800410162084001C9004101630821
:100370004001CA0041015A084001CB0041015B081D
:100380004001CC0041015C084001CD008931EF21E2
:100390008031400148084101DA004001490841012B
:1003A000DB0040014A084101DC005A084001B2006C
:1003B00041015B084001B30041015C084001B40009
:1003C0000030B5008030B6003F30B7009431812452
:1003D00080310318F029FF304101DE07FF300B2A7E
:1003E00041015A084001B20041015B084001B300DD
:1003F00041015C084001B4000030B5002030B60077
:100400004130B700943181248031031C0C2A013023
:100410004101DE070030DF3D41015708803AC60048
:1004200080304602031D162A0D3056020318342A66
:10043000410156088531AE25803141012008AE00CA
:100440002108AF002208B0006108B1006208B200C4
:100450006308B3008B315923803141012E08E1003C
:100460002F08E2003008E30041015F08803AC6002F
:1004700080304602031D3E2A0A305E020318612ABC
:1004800041016308620461040319BB2A6108A700E3
:100490006208A8006308A9009731792780314101DB
:1004A0002A08290428042704031DBB2A5F08803A70
:1004B000C60080304602031D5F2A02305E02031C24
:1004C000BB2A41015A084001B20041015B084001CA
:1004D000B30041015C084001B4007030B5008930C0
:1004E000B6004030B70094318124803103187A2A55
:1004F000F7307B2AF8304101DE07FF30DF3D5E0830
:100500008D317A25803141012008DA002108DB0095
:100510002208DC0061084001B2004101620840018C
:10052000B300410163084001B40041015A08400191
:10053000B50041015B084001B60041015C08400183
:10054000B7008A31A3228031400135084101D5002E
:10055000400134084101D400400133084101D30077
:10056000400132084101D2000030E1000030E200D9
:100570000030E300FE2A41016108A7006208A800DC
:100580006308A90097317927803141012A08D500F5
:100590002908D4002808D3002708D20055084001B4
:1005A000BD00410154084001BC0041015308400115
:1005B000BB00410152084001BA0094311C24803133
:1005C00040013A084101BB0040013B084101BC0029
:1005D00040013C084101BD006108BE006208BF0047
:1005E0006308C0009331DD23803141013B08E10005
:1005F0003C08E2003D08E300DE01DF01E401E40A1B
:100600000A3064060319312B6408C600C701C635D9
:10061000C70DC635C70D3030460784009830473DBA
:100620008500003FC800013FC900023FCA00033FE8
:10063000CB004B085502031D272B4A085402031D0B
:10064000272B49085302031D272B48085202031C7D
:10065000312B0130C6004608E4070A306406031D4A
:10066000042B6408C600C701C61BC703560846070B
:10067000C8005708473DC9005E084807CA005F0820
:10068000493DCB004A08D8024B08D93B56085704CD
:1006900003194E2BFF30D807FF30D93D03305005EA
:1006A000C60000305105C7004608470403195C2BFB
:1006B000FF30D807FF30D93D5908803AC600803056
:1006C0004602031D652B01305802031C752B203098
:1006D0004101C6006008860001308700460881009D
:1006E0000130C6004608E007582B03304101500591
:1006F000C60000305105C7004608470403198C2B7B
:100700002D30C60060088600013087004608810051
:100710000130C6004608E007FF30C6004608E4077F
:10072000640A03190C2C6408C600C701C635C70D3E
:10073000C635C70D3030460784009830473D8500E8
:10074000003F4001B200013FB300023FB400033F4D
:10075000B500410155084001B9004101540840016C
:10076000B800410153084001B7004101520840015F
:10077000B6009531E9258031400135084101DD00A1
:10078000400134084101DC00400133084101DB0035
:10079000400132084101DA0000304001B50000306C
:1007A000B4000030B3000A30B20041015D084001DE
:1007B000B90041015C084001B80041015B084001FB
:1007C000B70041015A084001B6009431BD24803180
:1007D000400135084101DD00400134084101DC00E1
:1007E000400133084101DB00400132084101DA00D9
:1007F0005A08303E812B30304101C6006008860027
:1008000001308700460881000130C6004608E00735
:10081000FF30DE07FF30DF3D5F08803AC6008030E2
:100820004602031D152C01305E020318FB2B41010B
:100830005708803AC60080304602031D212C09303B
:100840005602031C262C08304101282C4101560871
:10085000C6004608E4006408C600C701C61BC703FB
:100860004608D6024708D73B64080319432C2E30AC
:10087000C60060088600013087004608810001300C
:10088000C6004608E00764088D317A2580314101B1
:100890002008CC002108CD002208CE004C084001E1
:1008A000CB0041014D084001CC0041014E08400100
:1008B000CD00410161084001C800410162084001CA
:1008C000C900410163084001CA008931EF2180312C
:1008D000400148084101A700400149084101A80022
:1008E00040014A084101A90097317927803141012F
:1008F0002A08D5002908D4002808D3002708D200E8
:10090000FF30C6004608E407640A0319422D640854
:10091000C600C701C635C70DC635C70D30304607FE
:1009200084009830473D8500003F4001B200013F00
:10093000B300023FB400033FB50041015508400138
:10094000B900410154084001B80041015308400179
:10095000B700410152084001B6009531E9258031C8
:10096000400135084101DD00400134084101DC004F
:10097000400133084101DB00400132084101DA0047
:1009800000304001B5000030B4000030B3000A3040
:10099000B20041015D084001B90041015C0840011D
:1009A000B80041015B084001B70041015A0840010D
:1009B000B6009431BD248031400135084101DD008D
:1009C000400134084101DC00400133084101DB00F3
:1009D000400132084101DA005A08303EC600600882
:1009E000860001308700460881000130C6004608B5
:1009F000E0076408C600C701C635C70DC635C70D78
:100A00003030460784009830473D8500003F400164
:100A1000B200013FB300023FB400033FB500410103
:100A200055084001B900410154084001B800410196
:100A300053084001B700410152084001B60094310B
:100A4000BD248031400135084101D5004001340802
:100A50004101D400400133084101D3004001320874
:100A600041017F2C3030C6006008860001308700CD
:100A7000460881000130C6004608E007FF30D6076F
:100A8000FF30D73D5608570403197D28322D5808EA
:100A900059040319592D03305005C6000030510583
:100AA000C700460847040319592DFF30D807FF3007
:100AB000D93D6408C600C701C61BC7034708803A72
:100AC000C8005908803A4802031D682D580846029C
:100AD0000318752D41016408C600C701C61BC70372
:100AE0004608D8024708D93B782D4101D801D901E1
:100AF000580859040319902D2030C600600886005C
:100B000001308700460881000130C6004608E00732
:100B1000FF30D807FF30D93D58085904031D7C2DFC
:100B200003305005C60000305105C7004608470491
:100B300003197D282D30C60060088600013087002B
:100B4000460881000130C6004608E0077D284101C3
:100B50006008860001308700810108004101AD0076
:100B60006E302D02031C972E0A304001B900003070
:100B7000BA0041012D08A300A40123084001B400DC
:100B8000410124084001B5006430B2000030B300D8
:100B900095310025853140013308BC003208BB0087
:100BA00095319725853140013908093EC200003052
:100BB0003A3DC3000330C4000030C5009331C12367
:100BC00085314001430885004208840000308407D5
:100BD0009830853D003FC800013FC900023FCA0070
:100BE0006430B9000030BA0041012D08A500A6010B
:100BF00025084001BB00410126084001BC00953199
:100C00009725853140013908123EC20000303A3D37
:100C1000C3000330C4000030C5009331C1238531C7
:100C20004001430885004208840000308407983062
:100C3000853D003FCB00013FCC00023FCD00893114
:100C4000EF218531400148084101AA0040014908CF
:100C50004101AB0040014A084101AC002D08A3004E
:100C6000A40123084001B400410124084001B5005B
:100C70000A30B2000030B3009531002585314001C3
:100C80003308C3003208C2000330C4000030C5007E
:100C90009331C12385314001430885004208840017
:100CA000003084079830853D003FC800013FC900EF
:100CB000023FCA0041012A084001CB0041012B0834
:100CC0004001CC0041012C084001CD008931EF21C9
:100CD0008531400148084101A70040014908410110
:100CE000A80040014A084101A90000304001C800A5
:100CF0000030C9003F30CA00410127084001CB0045
:100D0000410128084001CC00410129084001CD00E3
:100D10008931EF21400148084101A0004001490804
:100D20004101A10040014A084101A20008000B3026
:100D30002D02031C272F2D08A300A4012308400126
:100D4000B400410124084001B5000A30B20000306F
:100D5000B30095310025853140013308C3003208C6
:100D6000C2000330C4000030C5009331C123853177
:100D70004001430885004208840000308407983011
:100D8000853D003FC800013FC900023FCA000A304C
:100D9000B9000030BA0041012D08A500A6012508C0
:100DA0004001BB00410126084001BC009531972558
:100DB000853140013908093EC20000303A3DC30088
:100DC0000330C4000030C5009331C1238531400198
:100DD0004308850042088400003084079830853D30
:100DE000003FCB00013FCC00023FCD008931EF2115
:100DF0008531400148084101AA00400149084101EC
:100E0000AB0040014A084101AC0000304001C8007D
:100E10000030C9003F30CA0041012A084001CB0020
:100E200041012B084001CC0041012C084001CD00BC
:100E30008931EF21400148084101A00040014908E3
:100E40004101A10040014A084101A2000800003010
:100E50004001C8000030C9003F30CA0041012D08E0
:100E6000A300A40123084001C2004101240840015D
:100E7000C3000330C4000030C5009331C123853165
:100E80004001430885004208840000308407983000
:100E9000853D003FCB00013FCC00023FCD008931B2
:100EA000EF21400148084101A000400149084101EB
:100EB000A10040014A084101A20008004001B4001D
:100EC0008F110F153408B2000730B236890B652F29
:100ED00032080139B300B30DB30DB30D0E0833065C
:100EE000F73933068E003408B2000630B236890B6B
:100EF000762F01303205B3000F083306FE39330672
:100F00008F003408B2000530B236890B842F3208C6
:100F10000139B300B30D0F083306FD3933068F00D6
:100F20003408B2000430B236890B932F32080139ED
:100F3000B300B30E0E083306EF3933068E000330CC
:100F4000890BA02F000040018F150D30890BA62FB3
:100F5000000040018F113408B2000330B236890B13
:100F6000AE2F32080139B300B30DB30DB30D0E0827
:100F70003306F73933068E003408B2000230B23639
:100F8000890BBF2F01303205B3000F083306FE393D
:100F900033068F0034360139B200B20D0F08320625
:100FA000FD3932068F0034080139B200B20E0E0846
:100FB0003206EF3932068E000330890BDD2F000038
:100FC00040018F150D30890BE32F000040018F1178
:100FD0000D30890BE92F00003A304001B200233078
:100FE000890BF02FB20BF02F0800400134083304B6
:100FF0003204031908008030B4060800FE34FF34C0
:10100C004001B4008F110F113408B2000730B23612
:10101C00890B0D2832080139B300B30DB30DB30D94
:10102C000E083306F73933068E003408B20006304A
:10103C00B236890B1E2801303205B3000F08330677
:10104C00FE3933068F003408B2000530B236890BF6
:10105C002C2832080139B300B30D0F083306FD39C3
:10106C0033068F003408B2000430B236890B3B28AB
:10107C0032080139B300B30E0E083306EF393306CC
:10108C008E000330890B4828000040018F150D306D
:10109C00890B4E28000040018F113408B200033038
:1010AC00B236890B562832080139B300B30DB30D93
:1010BC00B30D0E083306F73933068E003408B20030
:1010CC000230B236890B672801303205B3000F08A5
:1010DC003306FE3933068F0034360139B200B20DB7
:1010EC000F083206FD3932068F0034080139B20080
:1010FC00B20E0E083206EF3932068E000330890B21
:10110C008528000040018F150D30890B8B280000BD
:10111C0040018F113A304001B2002330890B9428E2
:10112C00B20B9428080040012408A7002508A80049
:10113C002608A9000310280D290DAA002A08AF00C3
:10114C002F08031DB0280030A1000030A200003091
:10115C00A30008002108A7002208A8002308A90062
:10116C000310280D290DAA002A08B0003008031D11
:10117C00C6280030A1000030A2000030A3000800F7
:10118C000030AC000030AD000030AE0089303007CC
:10119C00A7002708AF022408A7002508A8002608E6
:1011AC00A9001030A936A80CA70C890BD828270841
:1011BC00AA002A08B0002108A7002208A8002308CA
:1011CC00A9001030A936A80CA70C890BE828270811
:1011DC00AA002A08B0068030A7002708B005A5177A
:1011EC00FF30A405FF30A5050030A605A217FF307F
:1011FC00A105FF30A2050030A3051830A700270871
:10120C00AB000130AC35AD0DAE0D890B08292308B0
:10121C002602031D172922082502031D1729210860
:10122C002402031C20292108A4022208A53B230820
:10123C00A63B2C140130A435A50DA60D890B212934
:10124C000130AB02031D07292C08F0002D08F1001A
:10125C002E08F2002F08A7002708F3003008A8007A
:10126C002808F40096313C2670084001A100710852
:10127C00A2007208A30008004001931114109410EE
:10128C001312941114118E110F108F100E128F1146
:10129C000F113A304001B5002330890B5329B50B9F
:1012AC0053293A304001B5002330890B5B29B50B2B
:1012BC005B293A304001B5002330890B6329B50B0B
:1012CC0063293A304001B5002330890B6B29B50BEB
:1012DC006B293A304001B5002330890B7329B50BCB
:1012EC0073293A304001B5002330890B7B29B50BAB
:1012FC007B294001B601B60A043036020318AE2928
:10130C008E110F108F140E168F110F118E110F10CE
:10131C008F140E168F150F110D30890B93290000A9
:10132C0040018E110F108F140E168F110F113A30C1
:10133C004001B5002330890BA129B50BA12901303F
:10134C004001B5003508B60704303602031C862967
:10135C008E110F108F140E128F110F118E110F1082
:10136C008F140E128F150F110D30890BBB29000035
:10137C0040018E110F108F140E128F110F113A3075
:10138C004001B5002330890BC929B50BC929283078
:10139C004001B5003508B600360888310620893181
:1013AC0010304001B5003508B600360888310620EB
:1013BC0089314001B601B60A3608883106208931D8
:1013CC000F304001B5003508B600360888310620CC
:1013DC00080040014808CE004908CF004A08D00058
:1013EC0003104F0D500DD1005108D2005208031DAF
:1013FC00062A0030C8000030C9000030CA000800BE
:10140C004B08CE004C08CF004D08D00003104F0DF8
:10141C00500DD1005108D7005708031D1C2A00306D
:10142C00C8000030C9000030CA00080057087B3ED5
:10143C00CE004E08D2074808CE004908CF004A0813
:10144C00D0001030D036CF0CCE0C890B282A4E0889
:10145C00D1005108D7004B08CE004C08CF004D08E6
:10146C00D0001030D036CF0CCE0C890B382A4E0859
:10147C00D1005108D7068030CE004E08D705C917C9
:10148C00CC17FF30CB05FF30CC050030CD0500303C
:10149C00D3000030D4000030D5000730CE004E0809
:1014AC00D600481C5F2A4B08D3074C08D43D4D0886
:1014BC00D53D0130CA36C90CC80C890B602A0130E5
:1014CC00CB35CC0DCD0D890B662A0130D602031D10
:1014DC00572A0930CE004E08D600481C7B2A4B08F0
:1014EC00D3074C08D43D4D08D53D0130CA36C90C44
:1014FC00C80C890B7C2A0130D536D40CD30C890B43
:10150C00822A0130D602031D732A5308B2005408F4
:10151C00B3005508B4005208CE004E08B500570869
:10152C00CF004F08B6009631A02640013208C80003
:10153C003308C9003408CA00080040013208B8005A
:10154C003308B9003408BA000310390D3A0DBB004A
:10155C003B08C1004108031DBC2A0030B500003017
:10156C00B4000030B3000030B20008003508B800F9
:10157C003608B9003708BA000310390D3A0DBB0014
:10158C003B08C0004008031DD42A0030B5000030D1
:10159C00B4000030B3000030B2000800B317FF30C5
:1015AC00B205FF30B3050030B405B617FF30B505F2
:1015BC00FF30B6050030B7050030BF000030BE006C
:1015CC000030BD000030BC007F30C10298304007B5
:1015DC00B8003808C1021830B8003808C000013013
:1015EC00BC35BD0DBE0DBF0D890BF62A3708340274
:1015FC00031D062B36083302031D062B3508320259
:10160C00031C0F2B3508B2023608B33B3708B43B2A
:10161C003C140130B235B30DB40D890B102B0130D5
:10162C00C002031DF52AC11F372B4108803A973E93
:10163C000318292B0030B5000030B4000030B30083
:10164C000030B20008000130BF36BE0CBD0CBC0C23
:10165C00890B2A2B0130B8003808C1070319502B0D
:10166C00292B18304102031C4D2B0030B5000030E3
:10167C00B4000030B3000030B20008000130BC35BB
:10168C00BD0DBE0DBF0D890B452B0130C1024108AC
:10169C00031D442B3F08B5003E08B4003D08B300C1
:1016AC003C08B200080041012E08B4002F08B50018
:1016BC003008B6000310350D360DB7003708BA00E8
:1016CC003108B4003208B5003308B6000310350DEC
:1016DC00360DB7003708B9003A080319812B3908C1
:1016EC003A020318882B3A03FF3A3907B400193031
:1016FC003402031C882B3108AE003208AF003308CB
:10170C00B00008003908031908003A083902031818
:10171C00972B3903FF3A3A07B400193034020318F7
:10172C0008000630B4003408B800B01BB817B31B5F
:10173C003817AF17FF30AE05FF30AF050030B005DE
:10174C00B217FF30B105FF30B2050030B3053908D0
:10175C003A020318D32B0130B135B20DB30D890BFE
:10176C00B22B0130B90239083A060319CE2B0130DD
:10177C00B802380807390319CE2BB12B0130B0361B
:10178C00AF0CAE0C890BC52B0130B4003408BA0772
:10179C003A0839060319F82BC42B3A0839020318F6
:1017AC00F82B0130AE35AF0DB00D890BD82B0130B5
:1017BC00BA0239083A060319F42B0130B80238087A
:1017CC0007390319F42BD72B0130B336B20CB10CFB
:1017DC00890BEB2B0130B4003408B9073A083906F1
:1017EC00031DEA2BB81F0A2CFF30AE06FF30AF06E4
:1017FC00FF30B0060130AE07003003180130AF07E0
:10180C00003003180130B007381F1C2CFF30B10614
:10181C00FF30B206FF30B3060130B10700300318B9
:10182C000130B207003003180130B307B8012E089D
:10183C00B1072F08B23D3008B33DB31F372CFF3032
:10184C00B106FF30B206FF30B3060130B1070030ED
:10185C0003180130B207003003180130B307B80188
:10186C00B80A31084001B200410132084001B3000E
:10187C00410133084001B40041013A08B400340876
:10188C004001B50041013808B50035084001B600EB
:10189C009631A026400132084101AE0040013308C8
:1018AC004101AF00400134084101B0000800323062
:1018BC0086008701403F4001B800413FB900423FDC
:1018CC00BA00433FBB0003103A0D3B0DBC003C0873
:1018DC00C5004508031D7B2C0030B5000030B4005A
:1018EC000030B3000030B2000800353086008701AC
:1018FC00403FB800413FB900423FBA00433FBB00F4
:10190C0003103A0D3B0DBC003C08C4004408031DF9
:10191C00982C0030B5000030B4000030B30000301B
:10192C00B20008003230860087010030810441315A
:10193C000030810441318030810441310030810418
:10194C00323086008701FF3081054131FF3081053F
:10195C004131FF3081054131003081053530860041
:10196C0087010030810441310030810441318030E5
:10197C008104413100308104353086008701FF300D
:10198C0081054131FF3081054131FF308105413105
:10199C00003081050030C3000030C2000030C100AF
:1019AC000030C0007F30C502A0304407B8003808B2
:1019BC00C5022030B8003808C4000130C035C10D54
:1019CC00C20DC30D890BE42C353086008701403FD6
:1019DC00B800413FB900423FBA00433FBB00323030
:1019EC0086008701403FBC00413FBD00423FBE0026
:1019FC00433FBF003B083F02031D0E2D3A083E0239
:101A0C00031D0E2D39083D02031D0E2D38083C0216
:101A1C00031C2B2D353086008701403FB800413F19
:101A2C00B900423FBA00433FBB0032308600870109
:101A3C003808810241313908813B41313A08813BF8
:101A4C0041313B08813B7D314014323086008701A7
:101A5C0081354131810D4131810D4131810D7D3116
:101A6C000130C402031DE32CC51F582D4508803AD4
:101A7C009F3E03184A2D0030B5000030B4000030F2
:101A8C00B3000030B20008000130C336C20CC10CE8
:101A9C00C00C890B4B2D0130B8003808C507031951
:101AAC00712D4A2D20304502031C6E2D0030B500DF
:101ABC000030B4000030B3000030B2000800013038
:101ACC00C035C10DC20DC30D890B662D0130C50289
:101ADC004508031D652D4308B5004208B4004108B4
:101AEC00B3004008B20008004101A600A61FC02E9A
:101AFC00A609A60A2608803A123E031C3A2E0A3082
:101B0C004001B9000030BA00410126084001B40080
:101B1C00B501B41BB5036430B2000030B30095318D
:101B2C0000258D3140013308BC003208BB009531D3
:101B3C0097258D3140013908093EC20000303A3DED
:101B4C00C3000330C4000030C5009331C1238D3174
:101B5C004001430885004208840000308407983017
:101B6C00853D003FC800013FC900023FCA006430F8
:101B7C00B9000030BA00410126084001BB00BC018D
:101B8C00BB1BBC03953197258D3140013908123EA2
:101B9C00C20000303A3DC3000330C4000030C50021
:101BAC009331C1238D3140014308850042088400E4
:101BBC00003084079830853D003FCB00013FCC00BE
:101BCC00023FCD008931EF218D31400148084101A0
:101BDC00A300400149084101A40040014A08410109
:101BEC00A50026084001B400B501B41BB5030A30AA
:101BFC00B2000030B300953100258D31400133081F
:101C0C00C3003208C2000330C4000030C500933159
:101C1C00C1238D3140014308850042088400003007
:101C2C0084079830853D003FC800013FC900023F42
:101C3C00CA00410123084001CB00410124084001A6
:101C4C00CC00410125084001CD008931EF21400134
:101C5C0048084101A000400149084101A100400190
:101C6C004A084101A20008002608803A753E031C70
:101C7C00A12E26084001B400B501B41BB5030A30EF
:101C8C00B2000030B300953100258D31400133088E
:101C9C00C3003208C2000330C4000030C5009331C9
:101CAC00C1238D3140014308850042088400003077
:101CBC0084079830853D003FC800013FC900023FB2
:101CCC00CA000A30B9000030BA00410126084001B0
:101CDC00BB00BC01BB1BBC03953197258D3140016A
:101CEC003908093EC20000303A3DC3000330C4003D
:101CFC000030C5009331C1238D314001430885006C
:101D0C0042088400003084079830853D003FCB00AA
:101D1C00013FCC00023FCD008931EF214001480842
:101D2C004101A000400149084101A10040014A08BD
:101D3C004101A200080026084001D800D90158082A
:101D4C00C2005908C3000330C4000030C5009331F1
:101D5C00C1234001430885004208840000308407F9
:101D6C009830853D003F4101A000013FA100023F9A
:101D7C00A20008002608803A123E031C7A2F0A3073
:101D8C004001B9000030BA00410126084001B400FE
:101D9C00B501B41BB5036430B2000030B30095310B
:101DAC0000258D3140013308BC003208BB00953151
:101DBC0097258D3140013908093EC20000303A3D6B
:101DCC00C3000330C4000030C5009331C1238D31F2
:101DDC00400143088500420884005830840798303D
:101DEC00853D003FC800013FC900023FCA00643076
:101DFC00B9000030BA00410126084001BB00BC010B
:101E0C00BB1BBC03953197258D3140013908123E1F
:101E1C00C20000303A3DC3000330C4000030C5009E
:101E2C009331C1238D314001430885004208840061
:101E3C00583084079830853D003FCB00013FCC00E3
:101E4C00023FCD008931EF218D314001480841011D
:101E5C00A300400149084101A40040014A08410186
:101E6C00A50026084001B400B501B41BB5030A3027
:101E7C00B2000030B300953100258D31400133089C
:101E8C00C3003208C2000330C4000030C5009331D7
:101E9C00C1238D314001430885004208840058302D
:101EAC0084079830853D003FC800013FC900023FC0
:101EBC00CA00410123084001CB0041012408400124
:101ECC00CC00410125084001CD008931EF214001B2
:101EDC0048084101A000400149084101A10040010E
:101EEC004A084101A20008002608803A753E031CEE
:101EFC00E12F26084001B400B501B41BB5030A302C
:101F0C00B2000030B300953100258D31400133080B
:101F1C00C3003208C2000330C4000030C500933146
:101F2C00C1238D314001430885004208840058309C
:101F3C0084079830853D003FC800013FC900023F2F
:101F4C00CA000A30B9000030BA004101260840012D
:101F5C00BB00BC01BB1BBC03953197258D314001E7
:101F6C003908093EC20000303A3DC3000330C400BA
:101F7C000030C5009331C1238D31400143088500E9
:101F8C0042088400583084079830853D003FCB00D0
:101F9C00013FCC00023FCD008931EF2140014808C0
:101FAC004101A000400149084101A10040014A083B
:101FBC004101A200080026084001D800D9015808A8
:101FCC00C2005908C3000330C4000030C50093316F
:101FDC00C12340014308850042088400583084071F
:101FEC009830853D003F4101A000013FA100023F18
:041FFC00A200080037
:102764004001B300B2013A3033020318BF2B3030BA
:102774003302031CBF2BB201B20A320C0800400121
:10278400C601C701421CCA2B4408C6074508C73DF9
:102794000130C435C50D890BCB2B0130C336C20CB7
:1027A400890BD02B42084304031DC42B4708C300E4
:1027B4004608C200080041013D083C043B040319DB
:1027C400E52B8030BD063E08AE003F08AF00400850
:1027D400B0003B08B1003C08B2003D08B3008B31A7
:1027E400592341012E08BB002F08BC003008BD004E
:1027F40008004001A001FA1F062CF909FA09F90A98
:102804000319FA0AA001A00A7908F0007A08F10075
:10281400F2018E30FC007C08F3002008FD007D08E6
:10282400F40096313C267008F9007108FA00720829
:10283400FB0008008E304001BE003E08BF00FF30A0
:102844003D050319312C0130BD36BC0CBB0CBA0C50
:10285400890B262C0130BE003E08BF07212C3A0804
:10286400B2003B08B3003C08B4003F08BE003E0879
:10287400B500B6019631A02640013208BA003308EB
:10288400BB003408BC0008004001B800582C3508CF
:10289400803E542C3508C03E542C3508943E542CAC
:1028A4003508D43EB7003708B900662C3808013A19
:1028B4000319492C033A03194C2C013A03194F2CE0
:1028C400073A0319522C662C3908883106209431B2
:1028D400400136088600013087000108031908000A
:1028E40040013608860001308700010887315E27E1
:1028F400943101304001B7003708B6076A2C400113
:10290400B41F982C3209B8003309B9003409BA004D
:10291400B80A0319B90A0319BA0A00303807B20011
:102924000030393DB30080303A3DB400B71FAE2CBF
:102934003509B8003609B9003709BA00B80A0319CD
:10294400B90A0319BA0A00303807B5000030393D16
:10295400B60080303A3DB7008030B4068030B70608
:1029640037083402031D080036083302031D08002B
:1029740035083202080040013508340433043204B7
:102984000319F72CBB01BB0AB51BD42C0130B2359B
:10299400B30DB40DB50D890BC92C0130BA003A083A
:1029A400BB07C62C35083902031DE22C3408380253
:1029B400031DE22C33083702031DE22C32083602D1
:1029C400031CEC2C3208B6023308B73B3408B83B7E
:1029D4003508B93B0130B536B40CB30CB20C890BD5
:1029E400ED2C0130BB02031DD42C3908B500380886
:1029F400B4003708B3003608B20008004001B8013B
:102A0400B51F0B2DB409B509B40A0319B50AB801E9
:102A1400B80AB31F122DB209B309B20A0319B30AD3
:102A2400320833040319392DB701B70AB31B242D17
:102A34000130B235B30D890B1B2D0130B6003608B9
:102A4400B707182D33083502031D2A2D3208340226
:102A5400031C302D3208B4023308B53B0130B336C1
:102A6400B20C890B312D0130B702031D242D380817
:102A74000319412DB409B509B40A0319B50A350877
:102A8400B3003408B2000800F601F11F502DF0091C
:102A9400F109F00A0319F10AF601F60AF31F5B2D96
:102AA400F209F309F20A0319F30A0130F400740875
:102AB400F606F701F8017008710403198A2DF5016F
:102AC400F50AF11B6F2D0130F035F10D890B662DE0
:102AD4000130F4007408F507632D0130F735F80D63
:102AE400890B702D71087302031D7A2D7008720210
:102AF400031C812D7008F2027108F33B7714013036
:102B0400F136F00C890B822D0130F502031D6F2D77
:102B140076080319922DF709F809F70A0319F80A38
:102B24007808F1007708F00008004001BF01BA1FDF
:102B3400A22DB909BA09B90A0319BA0ABF01BF0A11
:102B4400BC1FAD2DBB09BC09BB0A0319BC0A01306B
:102B5400BD003D08BF06C001C10139083A0403198C
:102B6400DC2DBE01BE0ABA1BC12D0130B935BA0D28
:102B7400890BB82D0130BD003D08BE07B52D0130CD
:102B8400C035C10D890BC22D3A083C02031DCC2D62
:102B940039083B02031CD32D3908BB023A08BC3B5D
:102BA40040140130BA36B90C890BD42D0130BE0261
:102BB400031DC12D3F080319E42DC009C109C00A32
:102BC4000319C10A4108BA004008B90008000030DE
:102BD4004001BE000030BD000030BC000030BB002E
:102BE40035083404330432040319332EBF01BF0AF9
:102BF400B51B082E0130B235B30DB40DB50D890BDC
:102C0400FD2D0130BA003A08BF07FA2D0130BB355B
:102C1400BC0DBD0DBE0D890B092E35083902031DEF
:102C24001D2E34083802031D1D2E33083702031DE0
:102C34001D2E32083602031C282E3208B602330831
:102C4400B73B3408B83B3508B93B3B140130B536C3
:102C5400B40CB30CB20C890B292E0130BF02031D36
:102C6400082E3E08B5003D08B4003C08B3003B08FC
:102C7400B200080073080319442E7208710470042A
:102C8400031D552E0030F0000030F1000030F2003A
:102C940008000130F5007508F3070130F236F10C35
:102CA400F00C890B502EFE30720503196E2E4B2E3C
:102CB4000130F5007508F3070130F0070030031800
:102CC4000130F107003003180130F2070130F23609
:102CD400F10CF00C890B692EFF30720503197B2E61
:102CE4005A2E0130F3020130F035F10DF20D890B4B
:102CF400762EF11B812E023073020318732E731883
:102D0400892EFF30F0057F30F105FF30F205031006
:102D1400F30C7308F500F601F7011030F535F60DE4
:102D2400F70D890B902E7508F0047608F1047708E6
:102D3400F204740803190800F2170800400135086A
:102D44000319A92E340833043204031DBA2E0030AB
:102D5400B2000030B3000030B40008000130B70006
:102D64003708B5070130B436B30CB20C890BB52E55
:102D7400FE3034050319D32EB02E0130B7003708C6
:102D8400B5070130B207003003180130B307003033
:102D940003180130B4070130B436B30CB20C890BFC
:102DA400CE2EFF3034050319E02EBF2E0130B502BC
:102DB4000130B235B30DB40D890BDB2EB31BE62EF7
:102DC400023035020318D82E3518EE2EFF30B20526
:102DD4007F30B305FF30B4050310B50C3508B700D8
:102DE400B801B9011030B735B80DB90D890BF52EFE
:102DF4003708B2043808B3043908B4043608031990
:102E04000800B417080051011308F8390638930074
:102E140040018E018F017E01CE01D90140018C0158
:102E24007E01B8014001111091144E0110101A14C2
:102E34008B170B171A1444010E08CF3920388E0053
:102E44001108F039013891000E1540015D08440164
:102E54008D0040015C0844018C000E14893142212C
:102E6400973101308831062097310C3088310620A3
:102E7400973105304101EA000F30E900F130890B48
:102E8400412FE90B412FEA0B412F41016E036F04DF
:102E9400031D5D2F400116100A30890B4F2F00329D
:102EA400400116141A30890B552F003240011610B8
:102EB4004101EE01EF012730C1009830C2006B08D8
:102EC400C3006C08C4006D08C50020308031772031
:102ED40097314001B501B50A20304101E900690884
:102EE4004001B6000130943146249731472F410107
:102EF4002708AB002808AC002908AD0003102C0DEE
:102F04002D0DAE002E08B4003408031D922F00309E
:102F1400AA000030A9000030A8000030A700080073
:102F24002708AB002808AC002908AD001730AD36DF
:102F3400AC0CAB0C890B992F2B08AE002E08AF00FC
:102F4400A817FF30A705FF30A8050030A9052708FA
:102F5400B0002808B1002908B200B3018E30B402D1
:102F6400B41FD02F3408803A8F3E0318C22F00308C
:102F7400AA000030A9000030A8000030A700080013
:102F84000130B336B20CB10CB00C890BC32F013035
:102F9400AB002B08B4070319E92FC22F18303402F1
:102FA400031CE62F0030AA000030A9000030A8005E
:102FB4000030A70008000130B035B10DB20DB30DDB
:102FC400890BDE2F0130B4023408031DDD2F2F08D6
:102FD4000319F72FB009B109B209B309B00A0319EB
:102FE400B10A0319B20A0319B30A3308AA00320852
:102FF400A9003108A8003008A70008000034803474
:103004003F34CD34CC343D34D73423343C341234BF
:1030140083343A34B734D1343834C634273437346B
:10302400383486343534C034D6343334CC342B3449
:103034003234703489343034E734DB342E34E534BC
:103044003C341E344234A2340D3464346934733451
:103054003D342034253433346634003401340034B0
:10306400003400340A34003400340034643400344E
:1030740000340034E834033400340034103427348A
:1030840000340034A03486340134003440344234F3
:103094000F34003480349634983400340034E134EE
:1030A400F53405340034CA349A343B340034803463
:1030B4003F340034203441340034C83442340034C2
:1030C4007A34443440341C3446345034C3344734A2
:1030D400243474344934973418344B34BC34BE34F7
:1030E4004C346B346E344E340334153450347934E8
:0A30F400AD346034F3344934713414
:020000040001F9
:0A000E008C3FFD3F9F3FFF3FFF3F87
:00000001FF
