:08000000803102288731FD2F39
:10001200F100F0013A3071020318152830307102F4
:10002200031C1528F001F00A700C08007008F60095
:100032007108F7007208F8000310770D780DF900C7
:1000420079084001A5002508031D30280030F3007F
:100052000030F2000030F1000030F00008007308B8
:10006200F6007408F7007508F8000310770D780D94
:10007200F9007908A4002408031D48280030F30081
:100082000030F2000030F1000030F0000800F117FB
:10009200FF30F005FF30F1050030F205F417FF30B4
:1000A200F305FF30F4050030F5050030A300003001
:1000B200A2000030A1000030A0007F30A5029830DD
:1000C2002407F6007608A5021830F6007608A40088
:1000D2000130A035A10DA20DA30D890B6A28750868
:1000E2007202031D7A2874087102031D7A287308AC
:1000F2007002031C83287308F0027408F13B750830
:10010200F23B20140130F035F10DF20D890B8428F9
:100112000130A402031D6928A51FAB282508803AD7
:10012200973E03189D280030F3000030F2000030A3
:10013200F1000030F00008000130A336A20CA10C3F
:10014200A00C890B9E280130F6007608A50703193A
:10015200C4289D2818302502031CC1280030F30052
:100162000030F2000030F1000030F00008000130F1
:10017200A035A10DA20DA30D890BB9280130A5024E
:100182002508031DB8282308F3002208F2002108DD
:10019200F1002008F00008004001C000C01FF22951
:1001A200C009C00A4008803A123E031C76290A3070
:1001B200F7000030F8004008F200F301F21BF303ED
:1001C2006430F0000030F1009531FD258031710876
:1001D200FA007008F9009631942680317708093EBA
:1001E2004001A4000030783DA5000330A600003095
:1001F200A7009431C92480314001250885002408D4
:100202008400003084079830853D003FA800013FFC
:10021200A900023FAA006430F7000030F80040084D
:10022200F900FA01F91BFA03963194268031770816
:10023200123E4001A4000030783DA5000330A60024
:100242000030A7009431C92480314001250885007F
:1002520024088400003084079830853D003FAB00BD
:10026200013FAC00023FAD008A315622803140018D
:100272002808BD002908BE002A08BF004008F20075
:10028200F301F21BF3030A30F0000030F100953164
:10029200FD25803171084001A5007008A4000330DB
:1002A200A6000030A7009431C924803140012508FE
:1002B200850024088400003084079830853D003F83
:1002C200A800013FA900023FAA003D08AB003E087A
:1002D200AC003F08AD008A31562240012808B80020
:1002E2002908B9002A08BA0008004008803A753E79
:1002F200031CD5294008F200F301F21BF3030A3074
:10030200F0000030F1009531FD2580317108400187
:10031200A5007008A4000330A6000030A7009431A5
:10032200C92480314001250885002408840000305A
:1003320084079830853D003FA800013FA900023F95
:10034200AA000A30F7000030F8004008F900FA016C
:10035200F91BFA039631942680317708093E400151
:10036200A4000030783DA5000330A6000030A700AD
:100372009431C92480314001250885002408840075
:10038200003084079830853D003FAB00013FAC0050
:10039200023FAD008A31562240012808B8002908E0
:1003A200B9002A08BA0008004008BB00BC013B089B
:1003B200A4003C08A5000330A6000030A700943139
:1003C200C9244001250885002408840000308407E0
:1003D2009830853D003FB800013FB900023FBA00A6
:1003E20008004008803A123E031C952A0A30F700A2
:1003F2000030F8004008F200F301F21BF30364300E
:10040200F0000030F1009531FD2580317108FA00CD
:100412007008F9009631942680317708093E400130
:10042200A4000030783DA5000330A6000030A700EC
:100432009431C924803140012508850024088400B4
:10044200573084079830853D003FA800013FA9003E
:10045200023FAA006430F7000030F8004008F900BB
:10046200FA01F91BFA039631942680317708123E7D
:100472004001A4000030783DA5000330A600003002
:10048200A7009431C9248031400125088500240841
:100492008400573084079830853D003FAB00013F10
:1004A200AC00023FAD008A3156228031400128085B
:1004B200BD002908BE002A08BF004008F200F3016F
:1004C200F21BF3030A30F0000030F1009531FD25F4
:1004D200803171084001A5007008A4000330A60015
:1004E2000030A7009431C9248031400125088500DD
:1004F20024088400573084079830853D003FA800C7
:10050200013FA900023FAA003D08AB003E08AC0033
:100512003F08AD008A31562240012808B800290858
:10052200B9002A08BA0008004008803A753E031C48
:10053200F42A4008F200F301F21BF3030A30F00040
:100542000030F1009531FD25803171084001A50090
:100552007008A4000330A6000030A7009431C9241B
:100562008031400125088500240884005730840723
:100572009830853D003FA800013FA900023FAA0034
:100582000A30F7000030F8004008F900FA01F91BC0
:10059200FA039631942680317708093E4001A4007F
:1005A2000030783DA5000330A6000030A70094314A
:1005B200C924803140012508850024088400573071
:1005C20084079830853D003FAB00013FAC00023FFD
:1005D200AD008A31562240012808B8002908B90026
:1005E2002A08BA0008004008BB00BC013B08A4006E
:1005F2003C08A5000330A6000030A7009431C924AE
:10060200400125088500240884005730840798306B
:10061200853D003FB800013FB900023FBA00080023
:100622004101B2005B304001DE005E084101A300DF
:1006320040015A08DF005908DE00D90A0319DA0A14
:100642005E0884005F0885000008E0006008410140
:10065200B60036080319F82F253036060319342B55
:1006620036084001EA2FA401A5014001590884007F
:100672005A08850012002E3A031D812B41012517CD
:1006820001304001D9070030DA3D4101B001B1012A
:100692004001590884005A08850000088031092069
:1006A2008331031C882B4001590884005A088500B5
:1006B2000008DE00DF01410131084001A5004101CF
:1006C20030084001A4000A30A6000030A70094318F
:1006D200C924833140015E082407E0005F08253DFC
:1006E200E1006008D03E4101B000FF304001613DB1
:1006F2004101B10001304001D9070030DA3D492BF8
:100702004101B001B1012516882B25159E2B400110
:100712005A08DF005908DE00D90A0319DA0A5E080E
:1007220084005F08850000084101B600003A031901
:10073200F82F663A0319862B192B00302405400145
:10074200DE000730410125054001DF005E085F043D
:100752000319922F4101251EB22B0630B000003042
:10076200B100230886008701403FB300413FB40037
:10077200423FB50003304001DE005E084101A3079D
:100782003308F0003408F1003508F2000030F300BD
:100792000030F4000030F5009531802583310318D4
:1007A200E72B41013308F0003408F1003508F2006C
:1007B20088310120833170084101B3007108B4000F
:1007C2007208B5000330A4040030A5044101AA0157
:1007D200AB013508340433040319A72CB330860067
:1007E2008701403F4001DE00413FDF00423FE00021
:1007F200433FE1000F30E136E00CDF0CDE0C890BE9
:10080200FC2BFF305E05E20000305F05E30062086A
:10081200823E4101AA00FF304001633D4101AB002D
:10082200FF30AA07FF30AB3D03304001A400003087
:10083200A50041012B084001A70041012A084001FF
:10084200A6009431C9248331400125084101AB003F
:10085200400124084101AA000A30F7000030F800E4
:100862002B08FA002A08F900963194268331780879
:100872004101AB007708AA00AB1F432CFF30AA0747
:10088200FF30AB3D2A03FF3A8031CD208331400156
:1008920038084101AC00400139084101AD00400176
:1008A2003A084101AE0033084001A8004101340872
:1008B2004001A900410135084001AA0041012C086C
:1008C2004001AB0041012D084001AC0041012E085E
:1008D2004001AD008A31562283314001280841018E
:1008E200AC00400129084101AD0040012A08410144
:1008F200AE002C08F0002D08F1002E08F2000030A6
:10090200F3008030F4003F30F500953180258331CB
:100912000318902CFF304101AA07FF30A62C410199
:100922002C08F0002D08F1002E08F2000030F30030
:100932002030F4004130F500953180258331031CCD
:10094200A72C01304101AA070030AB3D410131081B
:10095200803A4001DE0080305E02031DB32C0D3070
:10096200410130020318DC2C410130088D311D2574
:10097200833140013808C6003908C7003A08C80068
:10098200410133084001C900410134084001CA0055
:10099200410135084001CB008B310A2383314001EC
:1009A20046084101B300400147084101B40040013B
:1009B20048084101B50041012B08803A4001DE00A0
:1009C20080305E02031DE82C0A3041012A0203181E
:1009D200132D410135083404330403195B2D330808
:1009E2004001C100410134084001C2004101350803
:1009F2004001C3009631E626833140014408430496
:100A020042044104031D5B2D41012B08803A400141
:100A1200DE0080305E02031D112D023041012A02E8
:100A2200031C5B2D41012C08F0002D08F1002E085B
:100A3200F2007030F3008930F4004030F500953157
:100A4200802583310318272DF730282DF8304101F6
:100A5200AA07FF30AB3D2A088031CD208331400107
:100A620038084101AC00400139084101AD004001A4
:100A72003A084101AE003308F0003408F1003508AD
:100A8200F2002C08F3002D08F4002E08F500803146
:100A92001720833173084101A9007208A800710868
:100AA200A7007008A6000030B3000030B400003088
:100AB200B500A92D410133084001C10041013408AC
:100AC2004001C200410135084001C3009631E626CB
:100AD2008331400144084101A9004001430841011A
:100AE200A800400142084101A7004001410841011C
:100AF200A6002908FB002808FA002708F9002608A2
:100B0200F80095312325833178084001D300790814
:100B1200D4007A08D500410133084001D6004101D2
:100B220034084001D700410135084001D800943112
:100B3200E5248331400153084101B30040015408C8
:100B42004101B400400155084101B500AA01AB01C1
:100B5200B601B60A0A3036060319E62D36084001F8
:100B6200DE00DF01DE35DF0DDE35DF0D2F305E0703
:100B7200840098305F3D8500003FE000013FE100C6
:100B8200023FE200033FE300630841012902031D23
:100B9200DA2D4001620841012802031DDA2D4001CD
:100BA200610841012702031DDA2D4001600841015D
:100BB2002602031CE62D01304001DE005E084101E1
:100BC200B6070A303606031DAF2D03302405400157
:100BD200DE000030410125054001DF005E085F04B0
:100BE2000319012E2D30DE004101320886008701F3
:100BF20040015E0881000130DE005E084101B2075B
:100C0200FF304001DE005E084101B607360A0319D3
:100C1200682E36084001DE00DF01DE35DF0DDE35ED
:100C2200DF0D2F305E07840098305F3D8500003F66
:100C3200F000013FF100023FF200033FF3004101E7
:100C42002908F7002808F6002708F5002608F4000E
:100C520096314226833173084101AF007208AE001B
:100C62007108AD007008AC000030F3000030F200F3
:100C72000030F1000A30F0002F08F7002E08F600CD
:100C82002D08F5002C08F4009531BB25833173083B
:100C92004101AF007208AE007108AD007008AC00EF
:100CA2002C08303E4001F42D30304001DE0041017D
:100CB20032088600870140015E0881000130DE00B3
:100CC2005E084101B207FF30AA07FF30AB3D2B0897
:100CD200803A4001DE0080305E02031D732E013037
:100CE20041012A020318552E41013108803A400180
:100CF200DE0080305E02031D812E09304101300288
:100D0200031C852E0830872E410130084001DE0089
:100D12005E084101B60036084001DE00DF01DE1B3D
:100D2200DF035E084101B00240015F084101B13BAF
:100D320036080319AB2E2E304001DE004101320885
:100D42008600870140015E0881000130DE005E08F6
:100D52004101B20736088031CD2083314001380885
:100D62004101A000400139084101A10040013A08B7
:100D72004101A20020084001AB00410121084001CD
:100D8200AC00410122084001AD004101330840019D
:100D9200A800410134084001A90041013508400181
:100DA200AA008A315622833140012808C10029084D
:100DB200C2002A08C3009631E62683314001440866
:100DC2004101A900400143084101A8004001420835
:100DD2004101A700400141084101A600FF30400146
:100DE200DE005E084101B607360A03198D2F360868
:100DF2004001DE00DF01DE35DF0DDE35DF0D2F3095
:100E02005E07840098305F3D8500003FF000013F9F
:100E1200F100023FF200033FF30041012908F7000D
:100E22002808F6002708F5002608F4009631422625
:100E3200833173084101AF007208AE007108AD0042
:100E42007008AC000030F3000030F2000030F10016
:100E52000A30F0002F08F7002E08F6002D08F500E2
:100E62002C08F4009531BB25833173084101AF0092
:100E72007208AE007108AD007008AC002C08303E5C
:100E82004001DE00410132088600870140015E0810
:100E920081000130DE005E084101B20736084001E0
:100EA200DE00DF01DE35DF0DDE35DF0D2F305E07C0
:100EB200840098305F3D8500003FF000013FF10063
:100EC200023FF200033FF30041012908F70028081E
:100ED200F6002708F5002608F4009531BB2583317A
:100EE20073084101A9007208A8007108A7007008E0
:100EF200EE2E30304001DE004101320886008701CB
:100F020040015E0881000130DE005E084101B20747
:100F1200FF30B007FF30B13D300831040319192BFF
:100F22007A2F410130083104031DA12F290828041A
:100F320027042604031DA12F0130B0070030B13D64
:100F420036084001DE00DF01DE1BDF035F08803A66
:100F5200E00041013108803A40016002031DB52FD3
:100F62004101300840015E020318BF2F41013008E1
:100F72004001DE005E084101B600DB2F4101360868
:100F82004001DE00DF01DE1BDF0341013108803A50
:100F92004001E0005F08803A6002031DD32F5E0823
:100FA200410130020318DB2F41013608B000B101C4
:100FB200B01BB1030330410124054001DE000030C3
:100FC200410125054001DF005E085F040319192B6A
:100FD2002D30DE00410132088600870140015E08A3
:100FE20081000130DE005E084101B207192B320890
:0E0FF200860087018101080040018E31822EA9
:10100200720871047004031908008030F2060800A7
:10101200730803191128720871047004031D222831
:101022000030F0000030F1000030F2000800013022
:10103200F5007508F3070130F236F10CF00C890B5C
:101042001D28FE30720503193B2818280130F500CF
:101052007508F3070130F007003003180130F1077B
:10106200003003180130F2070130F236F10CF00CB7
:10107200890B3628FF3072050319482827280130CA
:10108200F3020130F035F10DF20D890B4328F11B0B
:101092004E28023073020318402873185628FF3076
:1010A200F0057F30F105FF30F2050310F30C7308F1
:1010B200F500F601F7011030F535F60DF70D890B45
:1010C2005D287508F0047608F1047708F2047408C4
:1010D20003190800F2170800F20040018F110F15E2
:1010E2007208F0000730F036890B74287008013955
:1010F200F100F10DF10DF10D0E087106F7397106CF
:101102008E007208F0000630F036890B8528013017
:101112007005F1000F087106FE3971068F00720822
:10112200F0000530F036890B932870080139F10080
:10113200F10D0F087106FD3971068F007208F0007B
:101142000430F036890BA22870080139F100F10E43
:101152000E087106EF3971068E000330890BAF2835
:10116200000040018F150D30890BB52800004001A9
:101172008F117208F0000330F036890BBD28700819
:101182000139F100F10DF10DF10D0E087106F7397B
:1011920071068E007208F0000230F036890BCE28FC
:1011A20001307005F1000F087106FE3971068F00DB
:1011B20072360139F000F00D0F087006FD39700625
:1011C2008F0072080139F000F00E0E087006EF3938
:1011D20070068E000330890BEC28000040018F1549
:1011E2000D30890BF228000040018F110D30890B60
:1011F200F82800003A30F0002330890BFE28F00B6B
:10120200FE280000080040019311141094101312DC
:10121200941114118E110F108F100E128F110F11C5
:101222003A30F3002330890B1429F30B1429000000
:101232003A30F3002330890B1C29F30B1C290000E0
:101242003A30F3002330890B2429F30B24290000C0
:101252003A30F3002330890B2C29F30B2C290000A0
:101262003A30F3002330890B3429F30B3429000080
:101272003A30F3002330890B3C29F30B3C29000060
:10128200F401F40A0430740203186F2940018E112C
:101292000F108F140E168F110F118E110F108F1445
:1012A2000E168F150F110D30890B552900004001C4
:1012B2008E110F108F140E168F110F113A30F3008A
:1012C2002330890B6229F30B622900000130F300FD
:1012D2007308F40704307402031C472940018E117D
:1012E2000F108F140E128F110F118E110F108F14F9
:1012F2000E128F150F110D30890B7D290000400150
:101302008E110F108F140E128F110F113A30F3003D
:101312002330890B8A29F30B8A2900002830F30035
:101322007308F400740897316D2789311030F30087
:101332007308F400740897316D278931F401F40AB7
:10134200740897316D2789310F30F3007308F40068
:10135200740897316D27080040013B08BE003C0825
:10136200BF003D08C00003103F0D400DC100410801
:10137200C6004608031DC4290030B8000030B90079
:101382000030BA0008003808BE003908BF003A0829
:10139200C00003103F0D400DC1004108C7004708BF
:1013A200031DDA290030B8000030B9000030BA005D
:1013B20008000030C3000030C4000030C50089308E
:1013C2004707BE003E08C6023B08BE003C08BF00FD
:1013D2003D08C0001030C036BF0CBE0C890BEC2992
:1013E2003E08C1004108C7003808BE003908BF00E6
:1013F2003A08C0001030C036BF0CBE0C890BFC2965
:101402003E08C1004108C7068030BE003E08C7053D
:10141200BC17FF30BB05FF30BC050030BD05B91756
:10142200FF30B805FF30B9050030BA051830BE00EC
:101432003E08C2000130C335C40DC50D890B1C2AFC
:101442003A083D02031D2B2A39083C02031D2B2AB0
:1014520038083B02031C342A3808BB023908BC3B5B
:101462003A08BD3B43140130BB35BC0DBD0D890BA1
:10147200352A0130C202031D1B2A4308F00044082A
:10148200F1004508F2004608BE003E08F300470896
:10149200BF003F08F4008831092070084001B800FD
:1014A2007108B9007208BA00080040012808AE00AD
:1014B2002908AF002A08B00003102F0D300DB1002B
:1014C2003108B2003208031D6D2A0030A800003036
:1014D200A9000030AA0008002B08AE002C08AF00BB
:1014E2002D08B00003102F0D300DB1003108B700E8
:1014F2003708031D832A0030A8000030A9000030FD
:10150200AA00080037087B3EAE002E08B207280862
:10151200AE002908AF002A08B0001030B036AF0C78
:10152200AE0C890B8F2A2E08B1003108B7002B08A8
:10153200AE002C08AF002D08B0001030B036AF0C52
:10154200AE0C890B9F2A2E08B1003108B7068030F5
:10155200AE002E08B705A917AC17FF30AB05FF3058
:10156200AC050030AD050030B3000030B4000030EF
:10157200B5000730AE002E08B600281CC62A2B087C
:10158200B3072C08B43D2D08B53D0130AA36A90C8D
:10159200A80C890BC72A0130AB35AC0DAD0D890BF8
:1015A200CD2A0130B602031DBE2A0930AE002E0834
:1015B200B600281CE22A2B08B3072C08B43D2D08DC
:1015C200B53D0130AA36A90CA80C890BE32A0130DB
:1015D200B536B40CB30C890BE92A0130B602031DEF
:1015E200DA2A3308F0003408F1003508F200320834
:1015F200AE002E08F3003708AF002F08F400883140
:10160200092070084001A8007108A9007208AA0008
:10161200080040014608CC004708CD004808CE002B
:1016220003104D0D4E0DCF004F08D2004908CC00DB
:101632004A08CD004B08CE0003104D0D4E0DCF00D1
:101642004F08D10052080319322B510852020318D5
:10165200392B5203FF3A5107CC0019304C02031CBC
:10166200392B4908C6004A08C7004B08C8000800C1
:10167200510803190800520851020318482B51035C
:10168200FF3A5207CC0019304C020318080006300A
:10169200CC004C08D000C81BD017CB1B5017C71763
:1016A200FF30C605FF30C7050030C805CA17FF3036
:1016B200C905FF30CA050030CB0551085202031894
:1016C200842B0130C935CA0DCB0D890B632B013038
:1016D200D1025108520603197F2B0130D002500863
:1016E200073903197F2B622B0130C836C70CC60C91
:1016F200890B762B0130CC004C08D20752085106D8
:101702000319A92B752B520851020318A92B01307A
:10171200C635C70DC80D890B892B0130D20251087D
:1017220052060319A52B0130D002500807390319BC
:10173200A52B882B0130CB36CA0CC90C890B9C2BEC
:101742000130CC004C08D10752085106031D9B2BD7
:10175200D01FBB2BFF30C606FF30C706FF30C806BE
:101762000130C607003003180130C70700300318E4
:101772000130C807501FCD2BFF30C906FF30CA0603
:10178200FF30CB060130C907003003180130CA0709
:10179200003003180130CB07D0014608C9074708BB
:1017A200CA3D4808CB3DCB1FE82BFF30C906FF30AE
:1017B200CA06FF30CB060130C907003003180130DA
:1017C200CA07003003180130CB07D001D00A4908FC
:1017D200F0004A08F1004B08F2005208CC004C0815
:1017E200F3005008CD004D08F4008831092070083C
:1017F2004001C6007108C7007208C80008007030B6
:1018020086008701403FF600413FF700423FF80063
:10181200433FF9000310780D790DFA007A08400170
:10182200A5002508031D1E2C0030F3000030F20035
:101832000030F1000030F0000800733086008701AC
:10184200403FF600413FF700423FF800433FF900B6
:101852000310780D790DFA007A08A4002408031DFC
:101862003B2C0030F3000030F2000030F100003079
:10187200F000080070308600870100308104413199
:1018820000308104413180308104413100308104D3
:10189200703086008701FF3081054131FF308105BC
:1018A2004131FF30810541310030810573308600BE
:1018B20087010030810441310030810441318030A0
:1018C2008104413100308104733086008701FF308A
:1018D20081054131FF3081054131FF3081054131C0
:1018E200003081050030A3000030A2000030A100CA
:1018F2000030A0007F30A502A0302407F600760851
:10190200A5022030F6007608A4000130A035A10D12
:10191200A20DA30D890B872C733086008701403FEF
:10192200F600413FF700423FF800433FF9007030B4
:1019320086008701403FFA00413FFB00423FFC0026
:10194200433FFD0079087D02031DB12C78087C021B
:10195200031DB12C77087B02031DB12C76087A0295
:10196200031CCE2C733086008701403FF600413FB6
:10197200F700423FF800433FF900703086008701CC
:101982007608810241317708813B41317808813BF9
:1019920041317908813B7D31201470308600870106
:1019A20081354131810D4131810D4131810D7D31D1
:1019B2000130A402031D862CA51FFB2C2508803AAA
:1019C2009F3E0318ED2C0030F3000030F20000308F
:1019D200F1000030F00008000130A336A20CA10C87
:1019E200A00C890BEE2C0130F6007608A50703192E
:1019F200142DED2C20302502031C112D0030F30094
:101A02000030F2000030F1000030F0000800013038
:101A1200A035A10DA20DA30D890B092D0130A50240
:101A22002508031D082D2308F3002208F2002108CF
:101A3200F1002008F00008004001C5006E304502A8
:101A4200031CDD2D0A30F7000030F8004508BB000A
:101A5200BC013B08F2003C08F3006430F0000030A7
:101A6200F1009531FD258D317108FA007008F900F9
:101A7200963194268D317708093E4001A40000304A
:101A8200783DA5000330A6000030A7009431C92498
:101A92008D31400125088500240884000030840728
:101AA2009830853D003FA800013FA900023FAA00EF
:101AB2006430F7000030F8004508BD00BE013D0863
:101AC200F9003E08FA00963194268D317708123ECD
:101AD2004001A4000030783DA5000330A60000308C
:101AE200A7009431C9248D314001250885002408BE
:101AF2008400003084079830853D003FAB00013FF1
:101B0200AC00023FAD008A3156228D3140012808D7
:101B1200C2002908C3002A08C4004508BB00BC0152
:101B22003B08F2003C08F3000A30F0000030F100FC
:101B32009531FD258D3171084001A5007008A40082
:101B42000330A6000030A7009431C9248D31400132
:101B52002508850024088400003084079830853DDC
:101B6200003FA800013FA900023FAA004208AB00C3
:101B72004308AC004408AD008A3156228D31400141
:101B82002808BF002908C0002A08C1000030A800A8
:101B92000030A9003F30AA003F08AB004008AC006B
:101BA2004108AD008A31562240012808B8002908B0
:101BB200B9002A08BA0008000B304502031C552E52
:101BC2004508BB00BC013B08F2003C08F3000A30A8
:101BD200F0000030F1009531FD258D317108400192
:101BE200A5007008A4000330A6000030A7009431BD
:101BF200C9248D3140012508850024088400003065
:101C020084079830853D003FA800013FA900023FAC
:101C1200AA000A30F7000030F8004508BD00BE01F6
:101C22003D08F9003E08FA00963194268D31770876
:101C3200093E4001A4000030783DA5000330A60013
:101C42000030A7009431C9248D3140012508850058
:101C520024088400003084079830853D003FAB00A3
:101C6200013FAC00023FAD008A3156228D31400166
:101C72002808C2002908C3002A08C4000030A800AE
:101C82000030A9003F30AA004208AB004308AC0074
:101C92004408AD008A31562240012808B8002908BC
:101CA200B9002A08BA0008000030A8000030A900D4
:101CB2003F30AA004508BB00BC013B08A4003C0819
:101CC200A5000330A6000030A7009431C9248D314D
:101CD20040012508850024088400003084079830DC
:101CE200853D003FAB00013FAC00023FAD008A31B1
:101CF200562240012808B8002908B9002A08BA006B
:101D0200080051011308F839063893007E01CE010C
:101D1200D90140018C018D017E013814400111145A
:101D22007E01641540011515410193171313131613
:101D32001308F339043893001A12FC309A05520141
:101D42008C16893104218E31013097316D278E3105
:101D52000C3097316D278E3109304001E9001E3079
:101D6200E800E430890BB32EE80BB32EE90BB32E57
:101D72000000223041019E003530890BBE2E00004A
:101D8200410113141318C32E0D084001E800E901A4
:101D920068084101D000400169084101D1005108A1
:101DA2004001E900410150084001E8006808E900EB
:101DB200E80168084101D000400169084101D100F1
:101DC2000C0850074001E800410151080318510A6C
:101DD2004001E90068084101D00040016908410161
:101DE200D100C0304001B8007F30B9004430BA00A1
:101DF2000030A800A030A9004030AA0041015108DB
:101E0200F9005008F800953103258E317808400119
:101E1200AB007908AC007A08AD008A3156228E31C7
:101E220040012808BB002908BC002A08BD008931EE
:101E3200AD218E31400138084101CD004001390801
:101E42004101CE0040013A084101CF00003040017B
:101E5200A800C830A9004230AA0041014D08400143
:101E6200AB0041014E084001AC0041014F08400166
:101E7200AD008A3156228E31400128084101CA0044
:101E8200400129084101CB0040012A084101CC0050
:101E92009E013530890B4B2F00004101131413189A
:101EA200502F0D084001E800E90168084101D20005
:101EB200400169084101D30053084001E900410192
:101EC20052084001E8006808E900E8016808410199
:101ED200D200400169084101D3000C0852074001B9
:101EE200E800410153080318530A4001E900680859
:101EF2004101D200400169084101D300C0304001D4
:101F0200B8007F30B9004430BA000030A800A030D9
:101F1200A9004030AA0041015308F9005208F80014
:101F2200953103258E3178084001AB007908AC0069
:101F32007A08AD008A3156228E3140012808BB0052
:101F42002908BC002A08BD008931AD218E3140012B
:101F520038084101C700400139084101C800400169
:101F62003A084101C9007E304001D9009830DA00B8
:101F7200410147084001DB00410148084001DC0003
:101F8200410149084001DD00B730833111238E3110
:101F9200F301B7304001E8006808F40001309531E0
:101FA2004B258E3127304001D9009830DA004101AB
:101FB2004A084001DB0041014B084001DC004101BD
:101FC2004C084001DD00B730833111238E31F3011B
:101FD200B7304001E8006808F400023095314B2523
:101FE2008E3109304001E9001E30E800E430890BEF
:0E1FF200F82FE80BF82FE90BF82F0000BA2E9D
:10299200FC01FD014001241CD22C2608FC0727085B
:1029A200FD3D0130A635A70D890BD32C0130A5368C
:1029B200A40C890BD82C24082504031DCB2C7D08DC
:1029C200A5007C08A40008004001550854045304E3
:1029D2000319ED2C8030D5065608C6005708C700EB
:1029E2005808C8005308C9005408CA005508CB004B
:1029F2008B310A2340014608D3004708D400480817
:102A0200D5000800FD01F91F0D2DF809F909F80A92
:102A12000319F90AFD01FD0A7808F0007908F100AE
:102A2200F2018E30FB007B08F3007D08FC007C087D
:102A3200F400883109207008F8007108F900720862
:102A4200FA0008008E30FC007C08FD00FF307B0598
:102A52000319372D0130FB36FA0CF90CF80C890BEF
:102A62002C2D0130FC007C08FD07272D7808F00092
:102A72007908F1007A08F2007D08FC007C08F30076
:102A8200F401883109207008F8007108F900720811
:102A9200FA000800F6005C2D7308803E582D73087A
:102AA200C03E582D7308943E582D7308D43EF5004D
:102AB2007508F7006A2D7608013A03194D2D033A7D
:102AC2000319502D013A0319532D073A0319562DB4
:102AD2006A2D770897316D27953174088600870132
:102AE200010803190800740886008701010888316B
:102AF2006D2095310130F5007508F4076E2DF21F37
:102B0200962D7009F6007109F7007209F800F60AAD
:102B12000319F70A0319F80A00307607F0000030AB
:102B2200773DF1008030783DF200F51FAC2D73093E
:102B3200F6007409F7007509F800F60A0319F70A96
:102B42000319F80A00307607F3000030773DF400ED
:102B52008030783DF5008030F2068030F506750849
:102B62007202031D080074087102031D0800730835
:102B72007002080073087204710470040319F42DC2
:102B8200F901F90AF31BD12D0130F035F10DF20DE7
:102B9200F30D890BC62D0130F8007808F907C32D13
:102BA20073087702031DDF2D72087602031DDF2DE5
:102BB20071087502031DDF2D70087402031CE92DD4
:102BC2007008F4027108F53B7208F63B7308F73B94
:102BD2000130F336F20CF10CF00C890BEA2D0130C6
:102BE200F902031DD12D7708F3007608F20075086B
:102BF200F1007408F0000800F601F31F072EF20935
:102C0200F309F20A0319F30AF601F60AF11F0E2E6E
:102C1200F009F109F00A0319F10A700871040319A5
:102C2200352EF501F50AF11B202E0130F035F10D9C
:102C3200890B172E0130F4007408F507142E710861
:102C42007302031D262E70087202031C2C2E7008BC
:102C5200F2027108F33B0130F136F00C890B2D2E94
:102C62000130F502031D202E760803193D2EF209CC
:102C7200F309F20A0319F30A7308F1007208F0006B
:102C820008000030FC000030FB000030FA00003089
:102C9200F900730872047104700403198B2EFD018C
:102CA200FD0AF31B602E0130F035F10DF20DF30D2C
:102CB200890B552E0130F8007808FD07522E01309D
:102CC200F935FA0DFB0DFC0D890B612E73087702A5
:102CD200031D752E72087602031D752E710875028A
:102CE200031D752E70087402031C802E7008F402F6
:102CF2007108F53B7208F63B7308F73B7914013013
:102D0200F336F20CF10CF00C890B812E0130FD022E
:102D1200031D602E7C08F3007B08F2007A08F100A4
:102D22007908F00008004001A101F81F9F2EF70961
:102D3200F809F70A0319F80AA101A10AFA1FAA2E33
:102D4200F909FA09F90A0319FA0A0130FB007B08AA
:102D5200A106A201A301770878040319D92EA001C4
:102D6200A00AF81BBE2E0130F735F80D890BB52EDF
:102D72000130FB007B08A007B22E0130A235A30D63
:102D8200890BBF2E78087A02031DC92E77087902B3
:102D9200031CD02E7708F9027808FA3B221401307E
:102DA200F836F70C890BD12E0130A002031DBE2E7E
:102DB20021080319E12EA209A309A20A0319A30AF1
:102DC2002308F8002208F700080040014108C50066
:102DD2004208C6004308C7000310460D470DC8004D
:102DE2004808CE004E08031DFF2E0030C4000030FC
:102DF200C3000030C2000030C10008004108C50015
:102E02004208C6004308C7001730C736C60CC50CB7
:102E1200890B062F4508C8004808C900C217FF30B1
:102E2200C105FF30C2050030C3054108CA0042088F
:102E3200CB004308CC00CD018E30CE02CE1F3D2FF9
:102E42004E08803A8F3E03182F2F0030C400003006
:102E5200C3000030C2000030C10008000130CD368E
:102E6200CC0CCB0CCA0C890B302F0130C5004508A5
:102E7200CE070319562F2F2F18304E02031C532F43
:102E82000030C4000030C3000030C2000030C10076
:102E920008000130CA35CB0DCC0DCD0D890B4B2F5F
:102EA2000130CE024E08031D4A2F49080319642F30
:102EB200CA09CB09CC09CD09CA0A0319CB0A0319DD
:102EC200CC0A0319CD0A4D08C4004C08C3004B08B4
:102ED200C2004A08C1000800F20040018F110F1120
:102EE2007208F0000730F036890B742F7008013930
:102EF200F100F10DF10DF10D0E087106F7397106B1
:102F02008E007208F0000630F036890B852F0130F2
:102F12007005F1000F087106FE3971068F00720804
:102F2200F0000530F036890B932F70080139F1005B
:102F3200F10D0F087106FD3971068F007208F0005D
:102F42000430F036890BA22F70080139F100F10E1E
:102F52000E087106EF3971068E000330890BAF2F10
:102F6200000040018F150D30890BB52F0000400184
:102F72008F117208F0000330F036890BBD2F7008F4
:102F82000139F100F10DF10DF10D0E087106F7395D
:102F920071068E007208F0000230F036890BCE2FD7
:102FA20001307005F1000F087106FE3971068F00BD
:102FB20072360139F000F00D0F087006FD39700607
:102FC2008F0072080139F000F00E0E087006EF391A
:102FD20070068E000330890BEC2F000040018F1524
:102FE2000D30890BF22F000040018F113A30F000B2
:102FF2002330890BFA2FF00BFA2F0000080000345F
:1030020080343F34CD34CC343D34D73423343C3453
:10301200123483343A34B734D1343834C634273492
:103022003734383486343534C034D6343334CC343F
:103032002B343234703489343034E734DB342E3478
:10304200E5343C341E344234A2340D3454346534F5
:103052003D3425342E3432346634003401340034A5
:10306200003400340A340034003400346434003450
:1030720000340034E834033400340034103427348C
:1030820000340034A03486340134003440344234F5
:103092000F34003480349634983400340034E134F0
:1030A200F53405340034CA349A343B340034803465
:1030B2003F340034203441340034C83442340034C4
:1030C2007A34443440341C3446345034C3344734A4
:1030D200243474344934973418344B34BC34BE34F9
:1030E2004C346B346E344E340334153450347934EA
:1030F200AD346034F33449347134563470343D3471
:0A31020025342E34323466340034D4
:020000040001F9
:0A000E008C3FFD3F9F3FFF3FFF3F87
:00000001FF
