:0400000080316128C2
:100008007E14803140017F08F100103079067A04AF
:10001800031D17283808013EB8000030393DB900E3
:10002800F901FA011D287908013EF90000307A3DEE
:10003800FA003908803AF00080307002031D262843
:100048003B303802031C312840013C08013EBC000B
:1000580000303D3DBD00B801B90140013D08803A7E
:10006800F00080307002031D3B283C303C02031C2A
:10007800462840013A08013EBA0000303B3DBB002B
:10008800BC01BD0140013B08803AF000803070029D
:10009800031D50280D303A02031C55284001BA01AF
:1000A800BB01023044018D0018308C004E01101045
:1000B80071084001FF007E100900803163288431F7
:1000C80068248031BA00843169248031BB008431CE
:1000D8006A248031BC0084316B24BD00F901FA0127
:1000E800B401B501B601B701B801B9017E104001EC
:1000F8008131DD2940012908803AAE0080302E0286
:10010800031D88280A30280203188F28400129086F
:10011800F4002808B42840012808F63EB600FF304D
:10012800293DB7000A30F2000030F3002908F50035
:100138002808F40081318B21803173084001B50013
:100148007208B4003508F4003408F30082319822AC
:10015800803184315F24803140013708F40036084B
:10016800F30082319822803184315F2480318431D8
:100178004D24803140012B08803AAE0080302E0299
:10018800031DC8280A302A020318D5288331D8232A
:10019800803184315F24803140012B08F4002A0823
:1001A80019290A30F2000030F30040012B08F5004D
:1001B8002A08F40081318B21803173084001A500A1
:1001C8007208A4000A30A6000030A70084311D245C
:1001D800803140012409AE002509AF00AE0A031999
:1001E800AF0A2A082E07B6002B082F3DB7000A30A1
:1001F800F2000030F3002B08F5002A08F4008131E2
:100208008B21803173084001B5007208B4003508AD
:10021800F4003408F30082319822803184315F245D
:10022800803140013708F4003608F3008231982203
:10023800803184315F24803184314D248031400104
:100248002D08803AAE0080302E02031D2D290A3079
:100258002C02031840298331D823803184315F244C
:10026800803140012D08F4002C08F30082319822D7
:10027800803184315F2408000A30F2000030F30036
:1002880040012D08F5002C08F40081318B218031C4
:1002980073084001A5007208A4000A30A6000030C7
:1002A800A70084311D24803140012409AE002509AE
:1002B800AF00AE0A0319AF0A2C082E07B6002D08A6
:1002C8002F3DB7000A30F2000030F3002D08F5008A
:1002D8002C08F40081318B21803173084001B5006E
:1002E8007208B4003508F4003408F300823198220B
:1002F800803184315F24803140013708F4003608AA
:10030800F30082319822803184315F240800400153
:10031800A101F31F9629F209F309F20A0319F30A56
:10032800A101A10AF51FA129F409F509F40A031985
:10033800F50A0130F6007608A106A201A3017208A9
:1003480073040319D029A001A00AF31BB5290130B1
:10035800F235F30D890BAC290130F6007608A007B9
:10036800A9290130A235A30D890BB6297308750296
:10037800031DC02972087402031CC7297208F402FD
:100388007308F53B22140130F336F20C890BC829A7
:100398000130A002031DB52921080319D829A20993
:1003A800A309A20A0319A30A2308F3002208F200EA
:1003B800080051011308F8390638930040018C01F0
:1003C80091017E01B80140018F0194017E01D9019C
:1003D80040018E01103093007E01CE013630440179
:1003E8008E001108F039013891004E011A141010CE
:1003F8008B170B17023044018D0018308C000E1437
:10040800EB304001B2000030B30040013B08A900C6
:100418003A08A8003D08AB003C08AA003908AD001E
:100428003808AC0080317E20813182312922813127
:1004380002304001B100D430B0008530890B222A47
:10044800B00B222AB10B222A092A40011810783051
:100458008F0084315F24823184316C2482314001E1
:100468001810FC308F0084315F24823184316C2471
:10047800823140011814FE308F0084315F248231AC
:1004880084316C24823140011814EE308F0084319D
:100498005F24823184316C24823140011814C630C3
:1004A8008F0084315F24823184316C248231400191
:1004B800181482308F0084315F24823184316C2497
:1004C800823184315F240800423040018C0084313D
:1004D8005F24823184316C248231413040018C00A8
:1004E80084315F24823184316C248231513040015F
:1004F8008C0084315F24823184316C2482317230E3
:1005080040018C0084315F24823184316C24823133
:10051800CC3040018C0084315F24823184316C24DA
:10052800823184315F240800B72A8331D823080038
:100538008331FF2308008331632308008231682256
:10054800080083318A2308008331B12308008231EF
:10055800EE2208008231C7220800833115230800E3
:1005680083313C2308007408003A0319BC2AC62AC0
:10057800730884000A300402031808008431043523
:10058800393E82000800403040018C0084315F24ED
:10059800823184316C248231503040018C008431A6
:1005A8005F24823184316C248231503040018C00C8
:1005B80084315F24823184316C248231FF304001E0
:1005C8008C0084315F24823184316C2482318431FF
:1005D8005F2408003E3040018C0084315F24823162
:1005E80084316C248231913040018C0084315F2445
:1005F800823184316C248231513040018C00843145
:100608005F24823184316C2482314E3040018C0069
:1006180084315F24823184316C24823184315F24B7
:100628000800AE3040018C0084315F24833184316E
:100638006C248331513040018C0084315F24833134
:1006480084316C248331513040018C0084315F2423
:10065800833184316C248331AE3040018C00843185
:100668005F24833184316C24833184315F24080012
:10067800A13040018C0084315F24833184316C24A3
:100688008331523040018C0084315F2483318431BE
:100698006C248331543040018C0084315F248331D1
:1006A80084316C248331B83040018C0084315F245C
:1006B800833184316C24833184315F240800A7306E
:1006C80040018C0084315F24833184316C24833170
:1006D800493040018C0084315F24833184316C249B
:1006E8008331513040018C0084315F24833184315F
:1006F8006C248331A13040018C0084315F24833124
:1007080084316C24833184315F240800F030400147
:100718008C0084315F24833184316C248331103020
:1007280040018C0084315F24833184316C2483310F
:10073800103040018C0084315F24833184316C2473
:100748008331FF3040018C0084315F248331843150
:100758006C24833184315F240800F33040018C001D
:1007680084315F24833184316C24833151304001DA
:100778008C0084315F24833184316C24833151307F
:1007880040018C0084315F24833184316C248331AF
:100798004E3040018C0084315F24833184316C24D5
:1007A800833184315F240800BE3040018C008431DD
:1007B8005F24833184316C248331413040018C00C3
:1007C80084315F24833184316C248331413040018A
:1007D8008C0084315F24833184316C248331BE30B2
:1007E80040018C0084315F24833184316C2483314F
:1007F80084315F240800013040018C0084315F247B
:10080800833184316C248331FF3040018C00843182
:100818005F24833184316C248331413040018C0062
:1008280084315F24833184316C24833184315F24A3
:100838000800F701F8014001241C262C2608F707B8
:100848002708F83D0130A635A70D890B272C013064
:10085800A536A40C890B2C2C24082504031D1F2C59
:100868007808A5007708A40008008231992A823107
:100878009C2A82319F2A8231A22A8231A52A82317A
:10088800A82A8231AB2A8231AE2A8231B12A82313A
:10089800B42AAC3040018C0084315F248431843127
:1008A8006C248431AC3040018C0084315F24843165
:1008B80084316C2408000930F2004E30890B622C18
:1008C800F20B622C0032080009340034183400346A
:0608D80040018C01080044
:020000040001F9
:0A000E008C3FFD3F9F3FFF3FFF3F87
:00000001FF
