:08000000803102288731FD2F39
:100F6C0051011308F8390638930040018C018D01AA
:100F7C007E01B801C3014001111411131214921314
:100F8C000C18E22F0B30F5002630F4005E30890B84
:100F9C00CD2FF40BCD2FF50BCD2F4001160E890C58
:100FAC00890C0139013EF400F40EF40DF40D160811
:100FBC007406BF39740696000D18C62F0B30F50059
:100FCC002630F4005E30890BE92FF40BE92FF50B7A
:100FDC00E92F4001170D170D0139013EF400F40CF7
:100FEC00F40C170874067F3974069700C62F40015D
:040FFC008731B62F54
:020000040001F9
:0A000E008C3FFD3F9F3FFF3FFF3F87
:00000001FF
