:1000000080312D28013400347E14803140017F0876
:10001000FB0001309531AC258031F3012730F4002D
:100020009830F5000130933110238031400197134F
:10003000171397165230FA002B30F9000030890B55
:100040001F28F90B1F28FA0B1F2800324E01101031
:100050007B084001FF007E10090080312F284101FC
:10006000803102208031D900803103208031DA00D4
:10007000C33084000030850016308731F9277E10A8
:1000800040018D314E2D4101BA006B30A000200897
:10009000A90040016A084101A1004001690841012D
:1000A000A0004001E90A0319EA0A4101200884007E
:1000B000210885000008A2002208BE003E0803199E
:1000C000AD2D25303E06031967283E08A22DB2014A
:1000D000B301AA01AB014001690884006A088500E8
:1000E000000892317B228031031CB4284101B20107
:1000F000B3010A304001B0000030B10041013308C3
:100100004001B300410132084001B20092318A221D
:100110008031400131084101B30040013008410104
:10012000B2004001690884006A0885000008D03EDA
:100130004101A000FF3003180030A1002008B207E1
:100140002108B33D01304001E9070030EA3D69086C
:1001500084006A088500000892317B228031031CEC
:10016000B42879282B15CE2840016A084101A10046
:10017000400169084101A0004001E90A0319EA0AA7
:10018000410120088400210885000008BE00003AD3
:100190000319AD2D663A0319B228492800302A0503
:1001A000A00007302B05A1002008210403194F2DC2
:1001B0000630B0000030B100290886008701403FBA
:1001C000BB00413FBC00423FBD000330A0002008FF
:1001D000A9073B084001A00041013C084001A100E3
:1001E00041013D084001A2000030A3000030A400FE
:1001F0000030A5009331BB23803103181E29410133
:100200003B084001AE0041013C084001AF00410104
:100210003D084001B00092317222803140012E0829
:100220004101BB0040012F084101BC0040013008E2
:100230004101BD000330AA040030AB044101B80104
:10024000B9013D083C043B040319EC29BB3086008E
:100250008701403FA000413FA100423FA200433F31
:10026000A3000F30A336A20CA10CA00C890B3229DD
:10027000FF302005A40000302105A5002408823E9F
:10028000B800FF30253DB900FF30B807FF30B93D59
:1002900003304001B0000030B10041013908400195
:1002A000B300410138084001B20092318A22803106
:1002B000400131084101B900400130084101B80056
:1002C0000A304001A7000030A80041013908400170
:1002D000AA00410138084001A900943180248031EE
:1002E000400128084101B900400127084101B80038
:1002F000B91F7E29FF30B807FF30B93D3803FF3AF8
:100300008531B3258031400146084101B4004001E8
:1003100047084101B500400148084101B6003B08CB
:100320004001B60041013C084001B70041013D08D1
:100330004001B800410134084001B90041013508CD
:100340004001BA00410136084001BB008931D1218A
:100350008031400136084101B400400137084101B5
:10036000B500400138084101B60034084001A00042
:10037000410135084001A100410136084001A200B9
:100380000030A3008030A4003F30A5009331BB2390
:1003900080310318D029FF304101B807FF30EB2925
:1003A000410134084001A000410135084001A1008D
:1003B000410136084001A2000030A3002030A40013
:1003C0004130A5009331BB238031031CEC2901305F
:1003D0004101B8070030B93D41013108803AA00021
:1003E00080302002031DF6290D30300203181F2A29
:1003F000410130088E319A26803140014608D600EE
:100400004708D7004808D80041013B084001D900FF
:1004100041013C084001DA0041013D084001DB0098
:100420008B313B238031400156084101BB00400124
:1004300057084101BC00400158084101BD0041017D
:100440003908803AA00080302002031D292A0A3092
:1004500038020318522A41013D083C043B040319A9
:10046000B12A3B084001CF0041013C084001D000C7
:1004700041013D084001D1009531252580314001E1
:100480005208510450044F04031DB12A4101390898
:10049000803AA00080302002031D502A023038022A
:1004A000031CB12A410134084001A0004101350874
:1004B0004001A100410136084001A2007030A300B4
:1004C0008930A4004030A5009331BB23803103184C
:1004D0006B2AF7306C2AF8304101B807FF30B93D7C
:1004E00038088531B3258031400146084101B40008
:1004F000400147084101B500400148084101B600EC
:100500003B084001A00041013C084001A10041011D
:100510003D084001A200410134084001A30041010F
:1005200035084001A400410136084001A5008A3188
:1005300085228031400123084101AF00400122089B
:100540004101AE00400121084101AD0040012008F9
:100550004101AC000030BB000030BC000030BD00E9
:10056000062B41013B084001CF0041013C084001FE
:10057000D00041013D084001D10095312525803151
:10058000400152084101AF00400151084101AE0055
:10059000400150084101AD0040014F084101AC004D
:1005A0002F084001AB0041012E084001AA00410183
:1005B0002D084001A90041012C084001A8009231FA
:1005C000E622803140012808E3002908E4002A08D7
:1005D000E50041013B084001E60041013C084001C3
:1005E000E70041013D084001E8009231A622803138
:1005F000400163084101BB00400164084101BC00A7
:10060000400165084101BD00B801B901BE01BE0A43
:100610000A303E060319392B3E08A000A101A0357F
:10062000A10DA035A10D3630200784009830213D62
:100630008500003FA200013FA300023FA400033F4A
:10064000A50025082F02031D2F2B24082E02031DB1
:100650002F2B23082D02031D2F2B22082C02031CF5
:10066000392B0130A0002008BE070A303E06031DCA
:100670000C2B3E08A000A101A01BA10330082007FD
:10068000A2003108213DA30038082207A400390840
:10069000233DA5002408B2022508B33B30083104ED
:1006A0000319562BFF30B207FF30B33D03302A0544
:1006B000A00000302B05A100200821040319642BA1
:1006C000FF30B207FF30B33D3308803AA0008030DE
:1006D0002002031D6D2B01303202031C7C2B2030C5
:1006E0004101A0003A0886008701200881000130FE
:1006F000A0002008BA07602B033041012A05A000A2
:1007000000302B05A100200821040319922B2D3065
:10071000A0003A0886008701200881000130A0006F
:100720002008BA07FF30A0002008BE073E0A0319C0
:10073000112C3E08A000A101A035A10DA035A10DEE
:100740003630200784009830213D8500003F40016D
:10075000A000013FA100023FA200033FA30041010E
:100760002F084001A70041012E084001A6004101C9
:100770002D084001A50041012C084001A40094313E
:10078000D2248031400123084101B70040012208F2
:100790004101B600400121084101B5004001200897
:1007A0004101B40000304001A3000030A20000303D
:1007B000A1000A30A000410137084001A700410113
:1007C00036084001A600410135084001A50041015D
:1007D00034084001A4009331F723803140012308FD
:1007E0004101B700400122084101B6004001210843
:1007F0004101B500400120084101B4003408303EF9
:10080000882B30304101A0003A088600870120087B
:1008100081000130A0002008BA07FF30B807FF3080
:10082000B93D3908803AA00080302002031D1A2CFF
:10083000013038020318012C41013108803AA00030
:1008400080302002031D262C09303002031C2B2C83
:10085000083041012D2C41013008A0002008BE00C5
:100860003E08A000A101A01BA1032008B00221089E
:10087000B13B3E080319472C2E30A0003A088600F1
:100880008701200881000130A0002008BA073E0837
:100890008531B3258031400146084101A600400161
:1008A00047084101A700400148084101A800260867
:1008B0004001B900410127084001BA004101280860
:1008C0004001BB0041013B084001B60041013C082A
:1008D0004001B70041013D084001B8008931D121F4
:1008E000803140013608CF003708D0003808D100E9
:1008F000953125258031400152084101AF0040016A
:1009000051084101AE00400150084101AD004001D5
:100910004F084101AC00FF30A0002008BE073E0A8E
:1009200003194A2D3E08A000A101A035A10DA03554
:10093000A10D3630200784009830213D8500003F0E
:100940004001A000013FA100023FA200033FA3001D
:1009500041012F084001A70041012E084001A600D7
:1009600041012D084001A50041012C084001A400CF
:100970009431D2248031400123084101B700400165
:1009800022084101B600400121084101B5004001A3
:1009900020084101B40000304001A3000030A20053
:1009A0000030A1000A30A000410137084001A70033
:1009B000410136084001A600410135084001A5006B
:1009C000410134084001A4009331F72380314001F4
:1009D00023084101B700400122084101B60040014F
:1009E00021084101B500400120084101B40034084C
:1009F000303EA0003A0886008701200881000130BF
:100A0000A0002008BA073E08A000A101A035A10D52
:100A1000A035A10D3630200784009830213D850097
:100A2000003F4001A000013FA100023FA200033FA0
:100A3000A30041012F084001A70041012E084001F9
:100A4000A60041012D084001A50041012C084001EC
:100A5000A4009331F7238031400123084101AF0006
:100A6000400122084101AE00400121084101AD00D2
:100A700040012008892C3030A0003A088600870108
:100A8000200881000130A0002008BA07FF30B0071D
:100A9000FF30B13D30083104031949283B2D32089D
:100AA00033040319612D03302A05A00000302B0503
:100AB000A100200821040319612DFF30B207FF3087
:100AC000B33D3E08A000A101A01BA1032108803A6C
:100AD000A2003308803A2202031D702D3208200242
:100AE00003187D2D41013E08A000A101A01BA10318
:100AF0002008B2022108B33B802D4101B201B301AD
:100B0000320833040319972D2030A0003A088600DC
:100B10008701200881000130A0002008BA07FF30BB
:100B2000B207FF30B33D32083304031D842D033078
:100B30002A05A00000302B05A1002008210403197C
:100B400049282D30A0003A0886008701200881003E
:100B50000130A0002008BA07492841013A08860060
:100B60008701810108004001CE00CE1FD92ECE0999
:100B7000CE0A4E08803A123E031C5D2E0A30A700B2
:100B80000030A8004E08A200A301A21BA3036430FA
:100B9000A0000030A10094313A24853140012108A1
:100BA000AA002008A900943180248531400127083B
:100BB000093EB0000030283DB1000330B2000030E3
:100BC000B30092318A228531400131088500300816
:100BD0008400003084079830853D003FB600013F17
:100BE000B700023FB8006430A7000030A8004E08EC
:100BF000A900AA01A91BAA039431802485314001D0
:100C00002708123EB0000030283DB1000330B2008A
:100C10000030B30092318A228531400131088500CD
:100C200030088400003084079830853D003FB900CB
:100C3000013FBA00023FBB008931D121853140011B
:100C40003608CB003708CC003808CD004E08A2008B
:100C5000A301A21BA3030A30A0000030A10094311D
:100C60003A24853140012108B1002008B00003304A
:100C7000B2000030B30092318A2285314001310840
:100C8000850030088400003084079830853D003F9F
:100C9000B600013FB700023FB8004B08B9004C084E
:100CA000BA004D08BB008931D12140013608C60089
:100CB0003708C7003808C80008004E08803A753E5B
:100CC000031CBC2E4E08A200A301A21BA3030A30E2
:100CD000A0000030A10094313A2485314001210860
:100CE000B1002008B0000330B2000030B3009231F0
:100CF0008A228531400131088500300884000030A7
:100D000084079830853D003FB600013FB700023FA1
:100D1000B8000A30A7000030A8004E08A900AA01B8
:100D2000A91BAA0394318024853140012708093E7C
:100D3000B0000030283DB1000330B2000030B300F5
:100D400092318A22853140013108850030088400C3
:100D5000003084079830853D003FB900013FBA005C
:100D6000023FBB008931D12140013608C600370857
:100D7000C7003808C80008004E08C900CA01490861
:100D8000B0004A08B1000330B2000030B300923125
:100D90008A22400131088500300884000030840731
:100DA0009830853D003FC600013FC700023FC800A4
:100DB00008004E08803A123E031C7D2F0A30A7001F
:100DC0000030A8004E08A200A301A21BA3036430B8
:100DD000A0000030A10094313A248531400121085F
:100DE000AA002008A90094318024853140012708F9
:100DF000093EB0000030283DB1000330B2000030A1
:100E0000B30092318A2285314001310885003008D3
:100E100084005E3084079830853D003FB600013F76
:100E2000B700023FB8006430A7000030A8004E08A9
:100E3000A900AA01A91BAA0394318024853140018D
:100E40002708123EB0000030283DB1000330B20048
:100E50000030B30092318A2285314001310885008B
:100E6000300884005E3084079830853D003FB9002B
:100E7000013FBA00023FBB008931D12185314001D9
:100E80003608CB003708CC003808CD004E08A20049
:100E9000A301A21BA3030A30A0000030A1009431DB
:100EA0003A24853140012108B1002008B000033008
:100EB000B2000030B30092318A22853140013108FE
:100EC0008500300884005E3084079830853D003FFF
:100ED000B600013FB700023FB8004B08B9004C080C
:100EE000BA004D08BB008931D12140013608C60047
:100EF0003708C7003808C80008004E08803A753E19
:100F0000031CDC2F4E08A200A301A21BA3030A307E
:100F1000A0000030A10094313A248531400121081D
:100F2000B1002008B0000330B2000030B3009231AD
:100F30008A228531400131088500300884005E3006
:100F400084079830853D003FB600013FB700023F5F
:100F5000B8000A30A7000030A8004E08A900AA0176
:100F6000A91BAA0394318024853140012708093E3A
:100F7000B0000030283DB1000330B2000030B300B3
:100F800092318A2285314001310885003008840081
:100F90005E3084079830853D003FB900013FBA00BC
:100FA000023FBB008931D12140013608C600370815
:100FB000C7003808C80008004E08C900CA0149081F
:100FC000B0004A08B1000330B2000030B3009231E3
:100FD0008A22400131088500300884005E30840791
:100FE0009830853D003FC600013FC700023FC80062
:0E0FF0000800640080010131890BFA2F0034E3
:1010020040012808A0002908A100A2018E30AB00EF
:101012002B08A300A4018831162040012008A80053
:101022002108A9002208AA00080040012308031988
:101032001F28220821042004031D30280030A000AC
:101042000030A1000030A20008000130A5002508F0
:10105200A3070130A236A10CA00C890B2B28FE306D
:1010620022050319492826280130A5002508A307CF
:101072000130A007003003180130A1070030031827
:101082000130A2070130A236A10CA00C890B442822
:10109200FF3022050319562835280130A3020130FA
:1010A200A035A10DA20D890B5128A11B5C2802308D
:1010B200230203184E2823186428FF30A0057F302E
:1010C200A105FF30A2050310A30C2308A500A60169
:1010D200A7011030A535A60DA70D890B6B28250891
:1010E200A0042608A1042708A20424080319080062
:1010F200A217080040014908CC004A08CD004B085D
:10110200CE0003104D0D4E0DCF004F08D4005408F1
:10111200031D92280030C6000030C7000030C8000E
:1011220008004608CC004708CD004808CE0003104E
:101132004D0D4E0DCF004F08D5005508031DA828B0
:101142000030C6000030C7000030C8000800003080
:10115200D1000030D2000030D30089305507CC00D6
:101162004C08D4024908CC004A08CD004B08CE00F6
:101172001030CE36CD0CCC0C890BBA284C08CF00DF
:101182004F08D5004608CC004708CD004808CE00DD
:101192001030CE36CD0CCC0C890BCA284C08CF00AF
:1011A2004F08D5068030CC004C08D505CA17FF3051
:1011B200C905FF30CA050030CB05C717FF30C60589
:1011C200FF30C7050030C8051830CC004C08D000ED
:1011D2000130D135D20DD30D890BEA2848084B02D4
:1011E200031DF92847084A02031DF9284608490247
:1011F200031C02294608C9024708CA3B4808CB3BE0
:1012020051140130C935CA0DCB0D890B03290130A8
:10121200D002031DE9285108A0005208A10053087A
:10122200A2005408CC004C08A3005508CD004D087C
:10123200A4008831162040012008C6002108C700FA
:101242002208C800080040019311141094101312D0
:10125200941114118E110F108F100E128F110F1185
:101262003A304001A3002330890B3529A30B3529DD
:101272003A304001A3002330890B3D29A30B3D29BD
:101282003A304001A3002330890B4529A30B45299D
:101292003A304001A3002330890B4D29A30B4D297D
:1012A2003A304001A3002330890B5529A30B55295D
:1012B2003A304001A3002330890B5D29A30B5D293D
:1012C2004001A401A40A04302402031890298E11BB
:1012D2000F108F140E168F110F118E110F108F1405
:1012E2000E168F150F110D30890B75290000400164
:1012F2008E110F108F140E168F110F113A304001FC
:10130200A3002330890B8329A30B832901304001D9
:10131200A3002308A40704302402031C68298E11A9
:101322000F108F140E128F110F118E110F108F14B8
:101332000E128F150F110D30890B9D2900004001EF
:101342008E110F108F140E128F110F113A304001AF
:10135200A3002330890BAB29A30BAB292830400112
:10136200A3002308A400240896313F2689311030B7
:101372004001A3002308A400240896313F268931A6
:101382004001A401A40A240896313F2689310F3076
:101392004001A3002308A400240896313F26080038
:1013A20040013608BC003708BD003808BE000310F3
:1013B2003D0D3E0DBF003F08C0004008031DE82957
:1013C2000030B6000030B7000030B800080039081D
:1013D200BC003A08BD003B08BE0003103D0D3E0DA7
:1013E200BF003F08C5004508031DFE290030B600B6
:1013F2000030B7000030B800080045087B3EBC0052
:101402003C08C0073608BC003708BD003808BE00DB
:101412001030BE36BD0CBC0C890B0A2A3C08BF003A
:101422003F08C5003908BC003A08BD003B08BE00B1
:101432001030BE36BD0CBC0C890B1A2A3C08BF000A
:101442003F08C5068030BC003C08C505B717BA176F
:10145200FF30B905FF30BA050030BB050030C100CE
:101462000030C2000030C3000730BC003C08C4009A
:10147200361C412A3908C1073A08C23D3B08C33D20
:101482000130B836B70CB60C890B422A0130B93597
:10149200BA0DBB0D890B482A0130C402031D392A3B
:1014A2000930BC003C08C400361C5D2A3908C1075B
:1014B2003A08C23D3B08C33D0130B836B70CB60C02
:1014C200890B5E2A0130C336C20CC10C890B642A17
:1014D2000130C402031D552A4108A0004208A100A0
:1014E2004308A2004008BC003C08A3004508BD0018
:1014F2003D08A4008831162040012008B6002108CA
:10150200B7002208B800080040012008A600210800
:10151200A7002208A8000310270D280DA9002908FA
:10152200AF002F08031D9E2A0030A3000030A20046
:101532000030A1000030A00008002308A600240803
:10154200A7002508A8000310270D280DA9002908C7
:10155200AE002E08031DB62A0030A3000030A20000
:101562000030A1000030A0000800A117FF30A00544
:10157200FF30A1050030A205A417FF30A305FF30FC
:10158200A4050030A5050030AD000030AC000030ED
:10159200AB000030AA007F30AF0298302E07A600C1
:1015A2002608AF021830A6002608AE000130AA3580
:1015B200AB0DAC0DAD0D890BD82A25082202031DF7
:1015C200E82A24082102031DE82A23082002031C1A
:1015D200F12A2308A0022408A13B2508A23B2A14D1
:1015E2000130A035A10DA20D890BF22A0130AE0205
:1015F200031DD72AAF1F192B2F08803A973E0318D5
:101602000B2B0030A3000030A2000030A1000030FC
:10161200A00008000130AD36AC0CAB0CAA0C890B53
:101622000C2B0130A6002608AF070319322B0B2B17
:1016320018302F02031C2F2B0030A3000030A20011
:101642000030A1000030A00008000130AA35AB0D27
:10165200AC0DAD0D890B272B0130AF022F08031DF6
:10166200262B2D08A3002C08A2002B08A1002A0873
:10167200A000080040015608DC005708DD005808A9
:10168200DE0003105D0D5E0DDF005F08E200590809
:10169200DC005A08DD005B08DE0003105D0D5E0D04
:1016A200DF005F08E10062080319632B6108620230
:1016B20003186A2B6203FF3A6107DC0019305C02EF
:1016C200031C6A2B5908D6005A08D7005B08D800B9
:1016D2000800610803190800620861020318792BE7
:1016E2006103FF3A6207DC0019305C02031808004C
:1016F2000630DC005C08E000D81BE017DB1B60173B
:10170200D717FF30D605FF30D7050030D805DA17D6
:10171200FF30D905FF30DA050030DB0561086202CF
:101722000318B52B0130D935DA0DDB0D890B942B5B
:101732000130E102610862060319B02B0130E002B8
:10174200600807390319B02B932B0130D836D70C18
:10175200D60C890BA72B0130DC005C08E20762087B
:1017620061060319DA2BA62B620861020318DA2B31
:101772000130D635D70DD80D890BBA2B0130E202D4
:10178200610862060319D62B0130E00260080739AE
:101792000319D62BB92B0130DB36DA0CD90C890BA5
:1017A200CD2B0130DC005C08E10762086106031DF5
:1017B200CC2BE01FEC2BFF30D606FF30D706FF30D4
:1017C200D8060130D607003003180130D7070030A1
:1017D20003180130D807601FFE2BFF30D906FF30F7
:1017E200DA06FF30DB060130D9070030031801307A
:1017F200DA07003003180130DB07E0015608D90789
:101802005708DA3D5808DB3DDB1F192CFF30D9069B
:10181200FF30DA06FF30DB060130D907003003184B
:101822000130DA07003003180130DB07E001E00A7B
:101832005908A0005A08A1005B08A2006208DC0057
:101842005C08A3006008DD005D08A4008831162052
:1018520040012008D6002108D7002208D80008003D
:10186200203086008701403F4001A600413FA7008B
:10187200423FA800433FA9000310280D290DAA00EA
:101882002A08B3003308031D4F2C0030A300003098
:10189200A2000030A1000030A00008002330860022
:1018A2008701403FA600413FA700423FA800433FB7
:1018B200A9000310280D290DAA002A08B200320837
:1018C200031D6C2C0030A3000030A2000030A100E8
:1018D2000030A0000800203086008701003081041B
:1018E2004131003081044131803081044131003086
:1018F2008104203086008701FF3081054131FF30AD
:1019020081054131FF3081054131003081052330AD
:101912008600870100308104413100308104413169
:1019220080308104413100308104233086008701F8
:10193200FF3081054131FF3081054131FF308105A2
:101942004131003081050030B1000030B00000307C
:10195200AF000030AE007F30B302A0303207A600E5
:101962002608B3022030A6002608B2000130AE35A8
:10197200AF0DB00DB10D890BB82C23308600870155
:10198200403FA600413FA700423FA800433FA900B5
:10199200203086008701403FAA00413FAB00423F12
:1019A200AC00433FAD0029082D02031DE22C28089C
:1019B2002C02031DE22C27082B02031DE22C260811
:1019C2002A02031CFF2C233086008701403FA60019
:1019D200413FA700423FA800433FA90020308600B4
:1019E20087012608810241312708813B41312808BD
:1019F200813B41312908813B7D312E142030860004
:101A0200870181354131810D4131810D4131810D96
:101A12007D310130B202031DB72CB31F2C2D3308C8
:101A2200803A9F3E03181E2D0030A3000030A20012
:101A32000030A1000030A00008000130B136B00C27
:101A4200AF0CAE0C890B1F2D0130A6002608B30780
:101A52000319452D1E2D20303302031C422D003068
:101A6200A3000030A2000030A1000030A000080056
:101A72000130AE35AF0DB00DB10D890B3A2D0130ED
:101A8200B3023308031D392D3108A3003008A20028
:101A92002F08A1002E08A000080051011308F839F0
:101AA2000638930040018E018F017E01CE01D901DB
:101AB20040018D017E01C301400192018C017E0132
:101AC200B8014001111091144E0110101A148B1715
:101AD2000B171A1444010E08CF3920388E00110852
:101AE200F039013891000E15893124218D310130F0
:101AF20096313F268D310C3096313F268D3105309F
:101B02004001EF000F30EE00F130890B862DEE0B15
:101B1200862DEF0B862D44018C018D014001161498
:101B22001A30890B922D0032400116108C1C972D11
:101B320044010E1440018C189B2D44010E102430D8
:101B42004001C600F430C7004930C80044010D0806
:101B52004001A90044010C084001A800883101207D
:101B62008D3140012808C9002908CA002A08CB0083
:101B720088317B208D31400146084101D600400169
:101B820047084101D700400148084101D8005A08DE
:101B92004001A900410159084001A8009231C42224
:101BA2008D3140012808AE002908AF002A08B00094
:101BB200923172228D3140012E08D6002F08D700B3
:101BC2003008D8000030C6000030C7004030C800DE
:101BD200D030B6000430B7004730B8004101560893
:101BE2004001B900410157084001BA0041015808BB
:101BF2004001BB008931D1218D3140013608C90035
:101C02003708CA003808CB0088317B208D3140016B
:101C12004608D9004708DA004808DB008B313B232D
:101C22008D31400156084101C3004001570841016E
:101C3200C400400158084101C50000304001A00025
:101C42004030A1004030A200410143084001A300FE
:101C5200410144084001A400410145084001A5009A
:101C62009331BB238D310318702E4101430840018B
:101C7200A000410144084001A10041014508400182
:101C8200A2000030A300C830A4004330A500933165
:101C9200BB238D310318702E40019717171397122B
:101CA2009430E9009830EA00410143084001EB001A
:101CB200410144084001EC00410145084001ED00AA
:101CC200C630803143208D314001A301C630EE0081
:101CD2006E08A4000130933147238D318D2E4001CF
:101CE200971317179712A3018530A4009830A50007
:101CF2000130933180238D3129304001EF0096303D
:101D0200EE007F30890B832EEE0B832EEF0B832E9A
:101D1200013096313F268D3129304001EF00963057
:101D2200EE007F30890B932EEE0B932EEF0B932E4A
:101D32008C2D4001D3006E305302031C5B2F0A30FE
:101D4200A7000030A8005308C900CA014908A20030
:101D52004A08A3006430A0000030A10094313A2464
:101D62008E3140012108AA002008A9009431802464
:101D72008E3140012708093EB0000030283DB100F5
:101D82000330B2000030B30092318A228E3140011A
:101D92003108850030088400003084079830853D82
:101DA200003FB600013FB700023FB8006430A70011
:101DB2000030A8005308CB00CC014B08A9004C0806
:101DC200AA00943180248E3140012708123EB000CF
:101DD2000030283DB1000330B2000030B300923130
:101DE2008A228E314001310885003008840000309B
:101DF20084079830853D003FB900013FBA00023F99
:101E0200BB008931D1218E3140013608D00037081C
:101E1200D1003808D2005308C900CA014908A200FB
:101E22004A08A3000A30A0000030A10094313A24ED
:101E32008E3140012108B1002008B0000330B20009
:101E42000030B30092318A228E3140013108850080
:101E520030088400003084079830853D003FB6008A
:101E6200013FB700023FB8005008B9005108BA005C
:101E72005208BB008931D1218E3140013608CD0094
:101E82003708CE003808CF000030B6000030B70067
:101E92003F30B8004D08B9004E08BA004F08BB00E9
:101EA2008931D12140013608C6003708C7003808F9
:101EB200C80008000B305302031CD32F5308C9007B
:101EC200CA014908A2004A08A3000A30A000003053
:101ED200A10094313A248E3140012108B10020083A
:101EE200B0000330B2000030B30092318A228E314A
:101EF20040013108850030088400003084079830A2
:101F0200853D003FB600013FB700023FB8000A30EE
:101F1200A7000030A8005308CB00CC014B08A90051
:101F22004C08AA00943180248E3140012708093ED2
:101F3200B0000030283DB1000330B2000030B300E1
:101F420092318A228E3140013108850030088400A6
:101F5200003084079830853D003FB900013FBA0048
:101F6200023FBB008931D1218E3140013608D000B9
:101F72003708D1003808D2000030B6000030B70070
:101F82003F30B8005008B9005108BA005208BB00EF
:101F92008931D12140013608C6003708C700380808
:101FA200C80008000030B6000030B7003F30B8006B
:101FB2005308C900CA014908B0004A08B1000330F9
:101FC200B2000030B30092318A228E3140013108D2
:101FD200850030088400003084079830853D003F3A
:101FE200B900013FBA00023FBB008931D121400153
:0E1FF2003608C6003708C7003808C8000800C7
:1024E400400130082F042E04031908008030B00680
:1024F40008004001A100A0013A3021020318882AF3
:1025040030302102031C882AA001A00A200C0800F4
:102514004001B401B501301C932A3208B4073308D2
:10252400B53D0130B235B30D890B942A0130B13673
:10253400B00C890B992A30083104031D8D2A350803
:10254400B1003408B0000800400165086404630465
:102554000319AE2A8030E5066608D6006708D7005E
:102564006808D8006308D9006408DA006508DB004D
:102574008B313B2340015608E3005708E400580818
:10258400E50008004001AD01A91FCF2AA809A90947
:10259400A80A0319A90AAD01AD0A2808A000290850
:1025A400A100A2018E30AB002B08A3002D08AC00C3
:1025B4002C08A4008831162040012008A800210816
:1025C400A9002208AA0008008E304001AC002C08A3
:1025D400AD00FF302B050319FB2A0130AB36AA0CE2
:1025E400A90CA80C890BF02A0130AC002C08AD070B
:1025F400EB2A2808A0002908A1002A08A2002D0817
:10260400AC002C08A300A401883116204001200846
:10261400A8002108A9002208AA000800F700212B1D
:102624007308803E1D2B7308C03E1D2B7308943E17
:102634001D2B7308D43EF6007608F8002F2B77087C
:10264400013A0319122B033A0319152B013A031902
:10265400182B073A03191B2B2F2B78089531AC251F
:10266400933174088400750885001200031908006A
:10267400740884007508850000089631D2269331C9
:102684000130F4070030F53D332B4001A600592BEF
:102694002308803E552B2308C03E552B2308943E27
:1026A400552B2308D43EA5002508A700672B260830
:1026B400013A03194A2B033A03194D2B013A031922
:1026C400502B073A0319532B672B270896313F26C3
:1026D400933140012408860087010108031908008A
:1026E4004001240886008701010897316927933146
:1026F40001304001A5002508A4076B2B4001A70069
:10270400922B2308803E8E2B2308C03E8E2B230859
:10271400943E8E2B2308D43EA6002608A800A02BA6
:102724002708013A0319832B033A0319862B013A2C
:102734000319892B073A03198C2BA02B28089631EF
:102744003F269331400124088400250885001200A7
:1027540003190800400124088400250885000008A6
:1027640097316927933101304001A4070030A53D1A
:10277400A42B4001A21FD22B2009A6002109A700E7
:102784002209A800A60A0319A70A0319A80A0030F7
:102794002607A0000030273DA1008030283DA2007C
:1027A400A51FE82B2309A6002409A7002509A800D2
:1027B400A60A0319A70A0319A80A00302607A300CA
:1027C4000030273DA4008030283DA5008030A206BB
:1027D4008030A50625082202031D080024082102D2
:1027E400031D0800230820020800400123082204D6
:1027F400210420040319312CA901A90AA31B0E2CBE
:102804000130A035A10DA20DA30D890B032C0130BD
:10281400A8002808A907002C23082702031D1C2C44
:1028240022082602031D1C2C21082502031D1C2C32
:1028340020082402031C262C2008A4022108A53BFE
:102844002208A63B2308A73B0130A336A20CA10C07
:10285400A00C890B272C0130A902031D0E2C27087C
:10286400A3002608A2002508A1002408A00008004F
:102874004001A601A31F452CA209A309A20A03191A
:10288400A30AA601A60AA11F4C2CA009A109A00A0B
:102894000319A10A200821040319732CA501A50A10
:1028A400A11B5E2C0130A035A10D890B552C0130E4
:1028B400A4002408A507522C21082302031D642C1C
:1028C40020082202031C6A2C2008A2022108A33B30
:1028D4000130A136A00C890B6B2C0130A502031D1D
:1028E4005E2C260803197B2CA209A309A20A03194A
:1028F400A30A2308A1002208A00008004001AD019A
:10290400A81F8B2CA709A809A70A0319A80AAD01B7
:10291400AD0AAA1F962CA909AA09A90A0319AA0A89
:102924000130AB002B08AD06AE01AF012708280427
:102934000319C52CAC01AC0AA81BAA2C0130A7357D
:10294400A80D890BA12C0130AB002B08AC079E2CE1
:102954000130AE35AF0D890BAB2C28082A02031DBC
:10296400B52C27082902031CBC2C2708A902280817
:10297400AA3B2E140130A836A70C890BBD2C0130BC
:10298400AC02031DAA2C2D080319CD2CAE09AF09E6
:10299400AE0A0319AF0A2F08A8002E08A7000800E2
:1029A40000304001AC000030AB000030AA00003021
:1029B400A900230822042104200403191C2DAD01BD
:1029C400AD0AA31BF12C0130A035A10DA20DA30D5E
:1029D400890BE62C0130A8002808AD07E32C013050
:1029E400A935AA0DAB0DAC0D890BF22C23082702D7
:1029F400031D062D22082602031D062D210825028B
:102A0400031D062D20082402031C112D2008A402F6
:102A14002108A53B2208A63B2308A73B2914013023
:102A2400A336A20CA10CA00C890B122D0130AD020F
:102A3400031DF12C2C08A3002B08A2002A08A100D6
:102A44002908A000080040014F08D3005008D40012
:102A54005108D5000310540D550DD6005608DC005E
:102A64005C08031D3E2D0030D2000030D100003040
:102A7400D0000030CF0008004F08D3005008D40025
:102A84005108D5001730D536D40CD30C890B452DFD
:102A94005308D6005608D700D017FF30CF05FF30B3
:102AA400D0050030D1054F08D8005008D90051088E
:102AB400DA00DB018E30DC02DC1F7C2D5C08803AFE
:102AC4008F3E03186E2D0030D2000030D10000304C
:102AD400D0000030CF0008000130DB36DA0CD90C0E
:102AE400D80C890B6F2D0130D3005308DC07031970
:102AF400952D6E2D18305C02031C922D0030D200EF
:102B04000030D1000030D0000030CF000800013088
:102B1400D835D90DDA0DDB0D890B8A2D0130DC0295
:102B24005C08031D892D57080319A32DD809D90959
:102B3400DA09DB09D80A0319D90A0319DA0A0319CD
:102B4400DB0A5B08D2005A08D1005908D0005808A3
:102B5400CF000800F20040018F110F117208F0003D
:102B64000730F036890BB32D70080139F100F10DEF
:102B7400F10DF10D0E087106F73971068E00720819
:102B8400F0000630F036890BC42D01307005F100D9
:102B94000F087106FE3971068F007208F0000530C7
:102BA400F036890BD22D70080139F100F10D0F08B0
:102BB4007106FD3971068F007208F0000430F0369A
:102BC400890BE12D70080139F100F10E0E08710630
:102BD400EF3971068E000330890BEE2D00004001A1
:102BE4008F150D30890BF42D000040018F117208F0
:102BF400F0000330F036890BFC2D70080139F10028
:102C0400F10DF10DF10D0E087106F73971068E0004
:102C14007208F0000230F036890B0D2E0130700579
:102C2400F1000F087106FE3971068F007236013902
:102C3400F000F00D0F087006FD3970068F00720861
:102C44000139F000F00E0E087006EF3970068E00A0
:102C54000330890B2B2E000040018F150D30890B9A
:102C6400312E000040018F113A30F0002330890BDF
:102C7400392EF00B392E000008004001A2008F11FC
:102C84000F112208A0000730A036890B462E200819
:102C94000139A100A10DA10DA10D0E082106F739DE
:102CA40021068E002208A0000630A036890B572E7C
:102CB40001302005A1000F082106FE3921068F00EE
:102CC4002208A0000530A036890B652E20080139A2
:102CD400A100A10D0F082106FD3921068F0022084D
:102CE400A0000430A036890B742E20080139A100FD
:102CF400A10E0E082106EF3921068E000330890B40
:102D0400812E000040018F150D30890B872E0000A5
:102D140040018F112208A0000330A036890B8F2EAA
:102D240020080139A100A10DA10DA10D0E08210655
:102D3400F73921068E002208A0000230A036890B44
:102D4400A02E01302005A1000F082106FE3921061E
:102D54008F0022360139A000A00D0F082006FD398E
:102D640020068F0022080139A000A00E0E082006BC
:102D7400EF3920068E000330890BBE2E000040017F
:102D84008F150D30890BC42E000040018F113A308D
:102D94004001A0002330890BCD2EA00BCD2E0800BE
:102DA400F20040018F110F157208F0000730F03661
:102DB400890BD92E70080139F100F10DF10DF10DD7
:102DC4000E087106F73971068E007208F00006309D
:102DD400F036890BEA2E01307005F1000F087106F8
:102DE400FE3971068F007208F0000530F036890B49
:102DF400F82E70080139F100F10D0F087106FD3944
:102E040071068F007208F0000430F036890B072F2A
:102E140070080139F100F10E0E087106EF397106E0
:102E24008E000330890B142F000040018F150D30E4
:102E3400890B1A2F000040018F117208F000033033
:102E4400F036890B222F70080139F100F10DF10DD4
:102E5400F10D0E087106F73971068E007208F00044
:102E64000230F036890B332F01307005F1000F0862
:102E74007106FE3971068F0072360139F000F00DCB
:102E84000F087006FD3970068F0072080139F000D2
:102E9400F00E0E087006EF3970068E000330890BB1
:102EA400512F000040018F150D30890B572F000062
:102EB40040018F110D30890B5D2F00003A30F00076
:102EC4002330890B632FF00B632F000008004001AF
:102ED400A2008F110F152208A0000730A036890B1D
:102EE400702F20080139A100A10DA10DA10D0E081C
:102EF4002106F73921068E002208A0000630A036EC
:102F0400890B812F01302005A1000F082106FE390D
:102F140021068F002208A0000530A036890B8F2FD0
:102F240020080139A100A10D0F082106FD39210651
:102F34008F002208A0000430A036890B9E2F2008A1
:102F44000139A100A10E0E082106EF3921068E00D9
:102F54000330890BAB2F000040018F150D30890B16
:102F6400B12F000040018F112208A0000330A036C9
:102F7400890BB92F20080139A100A10DA10DA10DC4
:102F84000E082106F73921068E002208A00002301F
:102F9400A036890BCA2F01302005A1000F08210695
:102FA400FE3921068F0022360139A000A00D0F083A
:102FB4002006FD3920068F0022080139A000A00E4A
:102FC4000E082006EF3920068E000330890BE82F07
:102FD400000040018F150D30890BEE2F00004001D9
:102FE4008F110D30890BF42F00003A304001A000FE
:102FF4002330890BFB2FA00BFB2F080000348034F7
:103004003F34CD34CC343D34D73423343C341234BF
:1030140083343A34B734D1343834C634273437346B
:10302400383486343534C034D6343334CC342B3449
:103034003234703489343034E734DB342E34E534BC
:103044003C341E344234A2340D3420342034493408
:103054006E34743465347234723475347034743448
:1030640069346F346E340034013400340034003475
:103074000A3400340034003464340034003400343E
:10308400E83403340034003410342734003400347A
:10309400A034863401340034403442340F340034D4
:1030A40080349634983400340034E134F5340534F3
:1030B4000034CA349A343B34003480343F3400340E
:1030C400203441340034C834423400347A34443433
:1030D40040341C3446345034C334473424347434B8
:1030E4004934973418344B34BC34BE344C346B34C8
:1030F4006E344E340334153450347934AD34603482
:10310400F33449347134463475346534723461347B
:103114002034643465342034723461346E3467345A
:103124006F340034443469347334743461346E3429
:103134006334693461343D342534313466340034C5
:020000040001F9
:0A000E008C3FFD3F9F3FFF3FFF3F87
:00000001FF
