:08000000803102288731DC2F5A
:10000C000034703442346A343C343D34FD01F91F01
:10001C001628F809F909F80A0319F90AFD01FD0A6D
:10002C007808F0007908F100F2018E30FB007B08B3
:10003C00F3007D08FC007C08F4008931072170086E
:10004C00F8007108F9007208FA0008004001230852
:10005C00A9002408AA002508AB0003102A0D2B0DBB
:10006C00AC002C08AD002D08031D43280030A30064
:10007C000030A4000030A50008002608A9002708BD
:10008C00AA002808AB0003102A0D2B0DAC002C087D
:10009C00B2003208031D59280030A3000030A40020
:1000AC000030A500080032087B3EA9002908AD07E6
:1000BC002308A9002408AA002508AB001030AB3691
:1000CC00AA0CA90C890B65282908AC002C08B200D5
:1000DC002608A9002708AA002808AB001030AB3668
:1000EC00AA0CA90C890B75282908AC002C08B2069F
:1000FC008030A9002908B205A417A717FF30A60560
:10010C00FF30A7050030A8050030AE000030AF006E
:10011C000030B0000730A9002908B100231C9C282E
:10012C002608AE072708AF3D2808B03D0130A5369C
:10013C00A40CA30C890B9D280130A635A70DA80D86
:10014C00890BA3280130B102031D94280930A900A2
:10015C002908B100231CB8282608AE072708AF3D94
:10016C002808B03D0130A536A40CA30C890BB92886
:10017C000130B036AF0CAE0C890BBF280130B10288
:10018C00031DB0282E08F0002F08F1003008F200F3
:10019C002D08A9002908F3003208AA002A08F40047
:1001AC008931072170084001A3007108A40072086E
:1001BC00A500080040013308B9003408BA0035081E
:1001CC00BB0003103A0D3B0DBC003C08BF003608C9
:1001DC00B9003708BA003808BB0003103A0D3B0DC4
:1001EC00BC003C08BE003F08031908293E083F022A
:1001FC0003180F293F03FF3A3E07B90019303902A3
:10020C00031C0F293608B3003708B4003808B500B2
:10021C0008003E08031908003F083E0203181E2977
:10022C003E03FF3A3F07B9001930390203180800A2
:10023C000630B9003908BD00B51BBD17B81B3D17FA
:10024C00B417FF30B305FF30B4050030B505B71750
:10025C00FF30B605FF30B7050030B8053E083F0249
:10026C0003185A290130B635B70DB80D890B392949
:10027C000130BE023E083F06031955290130BD026C
:10028C003D0807390319552938290130B536B40C06
:10029C00B30C890B4C290130B9003908BF073F0852
:1002AC003E0603197F294B293F083E0203187F297C
:1002BC000130B335B40DB50D890B5F290130BF0288
:1002CC003E083F0603197B290130BD023D08073962
:1002DC0003197B295E290130B836B70CB60C890B93
:1002EC0072290130B9003908BE073F083E06031DCC
:1002FC007129BD1F9129FF30B306FF30B406FF30C2
:10030C00B5060130B307003003180130B4070030D4
:10031C0003180130B5073D1FA329FF30B606FF3087
:10032C00B706FF30B8060130B607003003180130AD
:10033C00B707003003180130B807BD013308B60702
:10034C003408B73D3508B83DB81FBE29FF30B60696
:10035C00FF30B706FF30B8060130B607003003187F
:10036C000130B707003003180130B807BD01BD0AD2
:10037C003608F0003708F1003808F2003F08B900E1
:10038C003908F3003D08BA003A08F4008931072116
:10039C0070084001B3007108B4007208B500080081
:1003AC0041019E013530890BD929000041011314FC
:1003BC001318DE290D084001DE00DF015E08410143
:1003CC00DD0040015F084101DE005E084001DF00F6
:1003DC0041015D084001DE005E08DF00DE015E08C1
:1003EC004101DD0040015F084101DE000C085D07A2
:1003FC004001DE0041015E0803185E0A4001DF0087
:10040C005E084101DD0040015F084101DE00C030A3
:10041C004001C0007F30C1004430C2000030A30056
:10042C00A030A4004030A50041015E08F9005D0831
:10043C00F80080310C20813178084001A600790841
:10044C00A7007A08A80080312C20813140012308B4
:10045C00C3002408C4002508C5008A3185228131D7
:10046C00400140084101E100400141084101E20026
:10047C00400142084101E30001309E003530890BF8
:10048C00452A00004101131413184A2A0D08400193
:10049C00DE00DF015E084101DD0040015F08410123
:1004AC00DE005E084001DF0041015D084001DE0016
:1004BC005E08DF00DE015E084101DD0040015F08DF
:1004CC004101DE000C085D074001DE0041015E08C1
:1004DC0003185E0A4001DF005E084101DD004001A7
:1004EC005F084101DE00C0304001C0007F30C10018
:1004FC004430C2000030A300A030A4004030A5005E
:10050C0041015E08F9005D08F80080310C20813152
:10051C0078084001A6007908A7007A08A800803165
:10052C002C20813140012308C3002408C400250875
:10053C00C5008A3185228131400140084101DA0031
:10054C00400141084101DB00400142084101DC004F
:10055C0002309E003530890BB12A00004101131482
:10056C001318B62A0D084001DE00DF015E084101B8
:10057C00DD0040015F084101DE005E084001DF0044
:10058C0041015D084001DE005E08DF00DE015E080F
:10059C004101DD0040015F084101DE000C085D07F0
:1005AC004001DE0041015E0803185E0A4001DF00D5
:1005BC005E084101DD0040015F084101DE00C030F2
:1005CC004001C0007F30C1004430C2000030A300A5
:1005DC00A030A4004030A50041015E08F9005D0880
:1005EC00F80080310C20813178084001A600790890
:1005FC00A7007A08A80080312C2081314001230803
:10060C00C3002408C4002508C5008A318522813125
:10061C00400140084101D700400141084101D80088
:10062C00400142084101D90003309E003530890B4E
:10063C001D2B0000410113141318222B0D0840012F
:10064C00DE00DF015E084101DD0040015F08410171
:10065C00DE005E084001DF0041015D084001DE0064
:10066C005E08DF00DE015E084101DD0040015F082D
:10067C004101DE000C085D074001DE0041015E080F
:10068C0003185E0A4001DF005E084101DD004001F5
:10069C005F084101DE00C0304001C0007F30C10066
:1006AC004430C2000030A300A030A4004030A500AC
:1006BC0041015E08F9005D08F80080310C208131A1
:1006CC0078084001A6007908A7007A08A8008031B4
:1006DC002C20813140012308C3002408C4002508C4
:1006EC00C5008A3185228131400140084101D40086
:1006FC00400141084101D500400142084101D600AA
:10070C0004309E003530890B892B000041011314F5
:10071C0013188E2B0D084001DE00DF015E0841012D
:10072C00DD0040015F084101DE005E084001DF0092
:10073C0041015D084001DE005E08DF00DE015E085D
:10074C004101DD0040015F084101DE000C085D073E
:10075C004001DE0041015E0803185E0A4001DF0023
:10076C005E084101DD0040015F084101DE00C03040
:10077C004001C0007F30C1004430C2000030A300F3
:10078C00A030A4004030A50041015E08F9005D08CE
:10079C00F80080310C20813178084001A6007908DE
:1007AC00A7007A08A80080312C2081314001230851
:1007BC00C3002408C4002508C5008A318522813174
:1007CC00400140084101D100400141084101D200E3
:1007DC00400142084101D30005309E003530890BA1
:1007EC00F52B0000410113141318FA2B0D084001CE
:1007FC00DE00DF015E084101DD0040015F084101C0
:10080C00DE005E084001DF0041015D084001DE00B2
:10081C005E08DF00DE015E084101DD0040015F087B
:10082C004101DE000C085D074001DE0041015E085D
:10083C0003185E0A4001DF005E084101DD00400143
:10084C005F084101DE00C0304001C0007F30C100B4
:10085C004430C2000030A300A030A4004030A500FA
:10086C0041015E08F9005D08F80080310C208131EF
:10087C0078084001A6007908A7007A08A800803102
:10088C002C20813140012308C3002408C400250812
:10089C00C5008A3185228131400140084101CE00DA
:1008AC00400141084101CF00400142084101D00004
:1008BC0006309E003530890B612C00004101131469
:1008CC001318662C0D084001DE00DF015E084101A3
:1008DC00DD0040015F084101DE005E084001DF00E1
:1008EC0041015D084001DE005E08DF00DE015E08AC
:1008FC004101DD0040015F084101DE000C085D078D
:10090C004001DE0041015E0803185E0A4001DF0071
:10091C005E084101DD0040015F084101DE00C0308E
:10092C004001C0007F30C1004430C2000030A30041
:10093C00A030A4004030A50041015E08F9005D081C
:10094C00F80080310C20813178084001A60079082C
:10095C00A7007A08A80080312C208131400123089F
:10096C00C3002408C4002508C5008A3185228131C2
:10097C00400140084101CB00400141084101CC003D
:10098C00400142084101CD0007309E003530890BF3
:10099C00CD2C0000410113141318D22C0D0840016A
:1009AC00DE00DF015E084101DD0040015F0841010E
:1009BC00DE005E084001DF0041015D084001DE0001
:1009CC005E08DF00DE015E084101DD0040015F08CA
:1009DC004101DE000C085D074001DE0041015E08AC
:1009EC0003185E0A4001DF005E084101DD00400192
:1009FC005F084101DE00C0304001C0007F30C10003
:100A0C004430C2000030A300A030A4004030A50048
:100A1C0041015E08F9005D08F80080310C2081313D
:100A2C0078084001A6007908A7007A08A800803150
:100A3C002C20813140012308C3002408C400250860
:100A4C00C5008A3185228131400140084101C8002E
:100A5C00400141084101C900400142084101CA005E
:100A6C0061084001A600410162084001A700410154
:100A7C0063084001A8000030A3000030A40000303F
:100A8C00A50080312C20813140012308B6002408B8
:100A9C00B7002508B80041015A084001A6004101E1
:100AAC005B084001A70041015C084001A800003030
:100ABC00A3007A30A4004430A50080312C20813171
:100ACC0040012308B3002408B4002508B500803188
:100ADC00E0208131400133084101A000400134087D
:100AEC004101A100400135084101A200200840014C
:100AFC00B600410121084001B70041012208400124
:100B0C00B800410157084001A600410158084001B6
:100B1C00A700410159084001A8000030A300FA3099
:100B2C00A4004430A50080312C20813140012308E1
:100B3C00B3002408B4002508B5008031E0208131D1
:100B4C00400133084101A300400134084101A400D5
:100B5C00400135084101A50023084001B6004101C0
:100B6C0024084001B700410125084001B8004101AB
:100B7C0054084001A600410155084001A70041015D
:100B8C0056084001A8008030A3003B30A40045303B
:100B9C00A50080312C20813140012308B3002408AA
:100BAC00B4002508B5008031E020813140013308C4
:100BBC004101A600400134084101A700400135085D
:100BCC004101A80026084001B60041012708400158
:100BDC00B700410128084001B8004101510840010B
:100BEC00A600410152084001A700410153084001F1
:100BFC00A8000030A3007A30A4004530A500803155
:100C0C002C20813140012308B3002408B4002508AE
:100C1C00B5008031E0208131400133084101A90049
:100C2C00400134084101AA00400135084101AB00E4
:100C3C0029084001B60041012A084001B7004101D2
:100C4C002B084001B80041014E084001A6004101AB
:100C5C004F084001A700410150084001A800403056
:100C6C00A3009C30A4004530A50080312C2081319C
:100C7C0040012308B3002408B4002508B5008031D6
:100C8C00E0208131400133084101AC0040013408BF
:100C9C004101AD00400135084101AE002C08400176
:100CAC00B60041012D084001B70041012E0840015A
:100CBC00B80041014B084001A60041014C0840011D
:100CCC00A70041014D084001A8008030A300BB30B3
:100CDC00A4004530A50080312C208131400123082F
:100CEC00B3002408B4002508B5008031E020813120
:100CFC00400133084101AF00400134084101B0000C
:100D0C00400135084101B10061084001B6004101C4
:100D1C0062084001B700410163084001B80041017D
:100D2C005A084001B30041015B084001B400410185
:100D3C005C084001B5008031E0208131400133086E
:100D4C004101B200400134084101B30040013508B3
:100D5C004101B40032084001B600410133084001A2
:100D6C00B700410134084001B80041015708400167
:100D7C00B300410158084001B40041015908400139
:100D8C00B5008031E0208131400133084101B500CC
:100D9C00400134084101B600400135084101B7005B
:100DAC0035084001B600410136084001B700410149
:100DBC0037084001B800410154084001B30041011B
:100DCC0055084001B400410156084001B50080317E
:100DDC00E0208131400133084101B8004001340862
:100DEC004101B900400135084101BA003808400101
:100DFC00B600410139084001B70041013A084001F1
:100E0C00B800410151084001B300410152084001B2
:100E1C00B400410153084001B5008031E02081311C
:100E2C00400133084101BB00400134084101BC00C2
:100E3C00400135084101BD003B084001B6004101AD
:100E4C003C084001B70041013D084001B800410198
:100E5C004E084001B30041014F084001B40041016C
:100E6C0050084001B5008031E02081314001330849
:100E7C004101BE00400134084101BF00400135086A
:100E8C004101C0003E084001B60041013F0840014D
:100E9C00B700410140084001B80041014B08400136
:100EAC00B30041014C084001B40041014D08400120
:100EBC00B5008031E0208131400133084101C1008F
:100ECC00400134084101C200400135084101C30012
:100EDC002F084001B600410130084001B700410124
:100EEC0031084001B800410148084001A600410109
:100EFC0049084001A70041014A084001A800C03040
:100F0C00A300DA30A4004530A50080312C208131BB
:100F1C0040012308B3002408B4002508B500803133
:100F2C00E020813140013308C3003408C400350887
:100F3C00C500410141084001B60041014208400191
:100F4C00B700410143084001B80041014808400185
:100F5C00B300410149084001B40041014A08400175
:100F6C00B5008031E020813140013308C0003408E5
:100F7C00C1003508C2008A31852281314001400808
:100F8C00D0004108D1004208D20089316B214001C8
:100F9C0051084101E000400150084101DF005F08A9
:100FAC00543EDF00F230603DE0000800ED3084007C
:100FBC008830850068308600003087000530883125
:100FCC00F82087310630840080308500E4308600BC
:100FDC000030870006308831F8208731ED01EE01B2
:100FEC00C8308400003085001C308831F22040016C
:040FFC008931F2291C
:1011DA00CD344C343E342034033464008001013170
:1011EA00890BF3280034FE0012001E00FE0BF928BA
:1011FA000034400122082104200403190800803029
:10120A00A2060800730803190F29720871047004F2
:10121A00031D20290030F0000030F1000030F200F8
:10122A0008000130F5007508F3070130F236F10CB9
:10123A00F00C890B1B29FE3072050319392916296E
:10124A000130F5007508F3070130F0070030031884
:10125A000130F107003003180130F2070130F2368D
:10126A00F10CF00C890B3429FF3072050319462959
:10127A0025290130F3020130F035F10DF20D890B09
:10128A004129F11B4C290230730203183E297318B5
:10129A005429FF30F0057F30F105FF30F2050310C5
:1012AA00F30C7308F500F601F7011030F535F60D69
:1012BA00F70D890B5B297508F0047608F1047708A5
:1012CA00F204740803190800F217080040015008D4
:1012DA00D4005108D5005208D6000310550D560DFA
:1012EA00D7005708DD005D08031D84290030D300AC
:1012FA000030D2000030D1000030D0000800500881
:10130A00D4005108D5005208D6001730D636D50C6D
:10131A00D40C890B8B295408D7005708D800D11749
:10132A00FF30D005FF30D1050030D2055008D90072
:10133A005108DA005208DB00DC018E30DD02DD1FC5
:10134A00C2295D08803A8F3E0318B4290030D300C1
:10135A000030D2000030D1000030D0000800013047
:10136A00DC36DB0CDA0CD90C890BB5290130D40038
:10137A005408DD070319DB29B42918305D02031C60
:10138A00D8290030D3000030D2000030D10000301C
:10139A00D00008000130D935DA0DDB0DDC0D890BE0
:1013AA00D0290130DD025D08031DCF295808031931
:1013BA00E929D909DA09DB09DC09D90A0319DA0AA0
:1013CA000319DB0A0319DC0A5C08D3005B08D200A4
:1013DA005A08D1005908D000080051011308F839F9
:1013EA000638930040018C01FF307E01B800FF30BF
:1013FA00400191008E01FF307E01CE00400113149E
:10140A0041019317131313161308F3390438930081
:10141A001A12FC309A0540018D01FF307E01C3008B
:10142A00FF30400192000130450190008E17F030E4
:10143A008E050E088F3940388E00FF308D00093036
:10144A007E01980046018E170E120F308E04440159
:10145A001E08FC3901389E000A307E0199004601B7
:10146A00921712120F30920444011E08F3390438FD
:10147A009E000B307E019A004601961716120F3015
:10148A00960444011E08CF3910389E000C307E01A4
:10149A009B0046019A171A120F309A0444011E083B
:1014AA003F3940389E0040011210921412119215D1
:1014BA00003046018D00C8308C0090019101003047
:1014CA009500C83094009801990129304001E7003D
:1014DA009630E6007F30890B702AE60B702AE70BFC
:1014EA00702A8131D62189318B312E2389314101EC
:1014FA0060084001EE0041015F084001ED00762AD4
:10150A0040014308C6004408C7004508C800031044
:10151A00470D480DC9004908CE004E08031D9C2AF4
:10152A000030C0000030C1000030C200080040088E
:10153A00C6004108C7004208C8000310470D480DFD
:10154A00C9004908CF004F08031DB22A0030C00065
:10155A000030C1000030C20008000030CB0000306B
:10156A00CC000030CD0089304F07C6004608CE02B5
:10157A004308C6004408C7004508C8001030C836EA
:10158A00C70CC60C890BC42A4608C9004908CF00F3
:10159A004008C6004108C7004208C8001030C836D3
:1015AA00C70CC60C890BD42A4608C9004908CF06BD
:1015BA008030C6004608CF05C417FF30C305FF3088
:1015CA00C4050030C505C117FF30C005FF30C1058D
:1015DA000030C2051830C6004608CA000130CB35B3
:1015EA00CC0DCD0D890BF42A42084502031D032BAD
:1015FA0041084402031D032B40084302031C0C2B21
:10160A004008C3024108C43B4208C53B4B140130A1
:10161A00C335C40DC50D890B0D2B0130CA02031D3C
:10162A00F32A4B08F0004C08F1004D08F2004E086E
:10163A00C6004608F3004F08C7004708F40089317E
:10164A00072170084001C0007108C1007208C20079
:10165A00080040018D01FF30920041016008803A84
:10166A004001DE007E305E02031D3E2B0C3041013C
:10167A005F020318832C4001121092141215921162
:10168A0041016008F9005F08F80080310C208B31B5
:10169A0078084001B6007908B7007A08B8006E08E1
:1016AA00F9006D08F80080310C208B317808400170
:1016BA00A0007908A1007A08A2008831FE208B31A7
:1016CA0040012008B3002108B4002208B500803187
:1016DA00E0208B3140013308A6003408A700350802
:1016EA00A800410167084001A300410168084001C0
:1016FA00A400410169084001A50080312C208B31EA
:10170A0040012308E3002408E4002508E50041011C
:10171A006008F9005F08F80080310C208B317808E6
:10172A004001A6007908A7007A08A8006808A30063
:10173A006908A4006A08A50080312C208B31400179
:10174A002308B6002408B7002508B8006308B300C8
:10175A006408B4006508B5008031E0208B3140018F
:10176A003308E0003408E1003508E2006008A6000A
:10177A006108A7006208A8000030A3008030A40016
:10178A00BF30A50080312C208B3140012308D000C6
:10179A002408D1002508D20089316B218B31400100
:1017AA006B085007DE006C08513DDF005E084601F9
:1017BA008C0040015F0846018D009001910194015F
:1017CA00950141016008F9005F08F80080310C209A
:1017DA008B3178084001B6007908B7007A08B8005A
:1017EA006E08F9006D08F80080310C208B317808FA
:1017FA004001A0007908A1007A08A2008831FE20E1
:10180A008B3140012008B3002108B4002208B5003A
:10181A008031E0208B3140013308A6003408A7004C
:10182A003508A800410167084001A3004101680882
:10183A004001A400410169084001A50080312C2023
:10184A008B3140012308E3002408E4002508E50061
:10185A0041016008F9005F08F80080310C208B31E3
:10186A0078084001A6007908A7007A08A800680845
:10187A00A3006908A4006A08A50080312C208B31D6
:10188A0040012308B6002408B7002508B8006308F9
:10189A00B3006408B4006508B5008031E0208B31DC
:1018AA0040013308E0003408E1003508E20060082E
:1018BA00A6006108A7006208A8000030A3008030D3
:1018CA00A400BF30A50080312C208B3140012308B1
:1018DA00D0002408D1002508D20089316B214001AB
:1018EA006B085007DE006C08513DDF005E084601B8
:1018FA00980040015F08460199000800410160080C
:10190A00803A4001DE0081305E02031D8F2CF530E3
:10191A0041015F02031CA92D4001121492101211F9
:10192A00921546018C018D0141016008F9005F089A
:10193A00F80080310C208B3178084001B600790814
:10194A00B7007A08B8006E08F9006D08F80080310F
:10195A000C208B3178084001A0007908A1007A0890
:10196A00A2008831FE208B3140012008B3002108F3
:10197A00B4002208B5008031E0208B3140013308E1
:10198A00A6003408A7003508A800410167084001ED
:10199A00A300410168084001A4004101690840010F
:1019AA00A50080312C208B3140012308E300240854
:1019BA00E4002508E50041016008F9005F08F80025
:1019CA0080310C208B3178084001A6007908A700E5
:1019DA007A08A8006808A3006908A4006A08A50094
:1019EA0080312C208B3140012308B6002408B7002F
:1019FA002508B8006308B3006408B4006508B50098
:101A0A008031E0208B3140013308D0003408D10006
:101A1A003508D20089316B218B3140016B085007A0
:101A2A00DE006C08513DDF005E084601900040016F
:101A3A005F084601910041016008F9005F08F8005B
:101A4A0080310C208B3178084001B6007908B70044
:101A5A007A08B8006E08F9006D08F80080310C2089
:101A6A008B3178084001A0007908A1007A08A20009
:101A7A008831FE208B3140012008B3002108B400D0
:101A8A002208B5008031E0208B3140013308A600DE
:101A9A003408A7003508A800410167084001A300DF
:101AAA00410168084001A400410169084001A500FC
:101ABA0080312C208B3140012308E3002408E40004
:101ACA002508E50041016008F9005F08F800803147
:101ADA000C208B3178084001A6007908A7007A0803
:101AEA00A8006808A3006908A4006A08A500803154
:101AFA002C208B3140012308B6002408B7002508A2
:101B0A00B8006308B3006408B4006508B500803102
:101B1A00E0208B3140013308D0003408D100350869
:101B2A00D20089316B2140016B085007DE006C0836
:101B3A00513DDF005E084601940040015F084601FE
:101B4A009500980199010800400112109210121193
:101B5A0092114101E01FEE2E6008F9005F08F800BB
:101B6A0080310C208B3178084001B6007908B70023
:101B7A007A08B8006E08F9006D08F80080310C2068
:101B8A008B3178084001A0007908A1007A08A200E8
:101B9A008831FE208B3140012008B3002108B400AF
:101BAA002208B5008031E0208B3140013308A600BD
:101BBA003408A7003508A800410167084001A300BE
:101BCA00410168084001A400410169084001A500DB
:101BDA0080312C208B3140012308E3002408E400E3
:101BEA002508E50041016008F9005F08F800803126
:101BFA000C208B3178084001A6007908A7007A08E2
:101C0A00A8006808A3006908A4006A08A500803132
:101C1A002C208B3140012308B6002408B700250880
:101C2A00B8006308B3006408B4006508B5008031E1
:101C3A00E0208B3140013308E0003408E100350828
:101C4A00E2006008A6006108A7006208A800003048
:101C5A00A3008030A400BF30A50080312C208B3136
:101C6A0040012308D0002408D1002508D200893178
:101C7A006B218B3140016B085007DE006C08513D27
:101C8A00DF005E0846018C0040015F0846018D00B6
:101C9A009001910141016008F9005F08F800803164
:101CAA000C208B3178084001B6007908B7007A0811
:101CBA00B8006E08F9006D08F80080310C208B31ED
:101CCA0078084001A0007908A1007A08A2008831AA
:101CDA00FE208B3140012008B3002108B4002208FD
:101CEA00B5008031E0208B3140013308A60034086A
:101CFA00A7003508A800410167084001A300410177
:101D0A0068084001A400410169084001A50080312A
:101D1A002C208B3140012308E3002408E400250825
:101D2A00E50041016008F9005F08F80080310C20E5
:101D3A008B3178084001A6007908A7007A08A80024
:101D4A006808A3006908A4006A08A50080312C204D
:101D5A008B3140012308B6002408B7002508B800D3
:101D6A006308B3006408B4006508B5008031E02058
:101D7A008B3140013308E0003408E1003508E20005
:101D8A006008A6006108A7006208A8000030A30046
:101D9A008030A400BF30A50080312C208B31400157
:101DAA002308D0002408D1002508D20089316B21EC
:101DBA0040016B085007DE006C08513DDF005E08E9
:101DCA004601940040015F08460195009801990177
:101DDA00080041016008F9005F08F80080310C2012
:101DEA008B3178084001B6007908B7007A08B80044
:101DFA006E08F9006D08F80080310C208B317808E4
:101E0A004001A0007908A1007A08A2008831FE20CA
:101E1A008B3140012008B3002108B4002208B50024
:101E2A008031E0208B3140013308A6003408A70036
:101E3A003508A800410167084001A300410168086C
:101E4A004001A400410169084001A50080312C200D
:101E5A008B3140012308E3002408E4002508E5004B
:101E6A0041016008F9005F08F80080310C208B31CD
:101E7A0078084001A6007908A7007A08A80068082F
:101E8A00A3006908A4006A08A50080312C208B31C0
:101E9A0040012308B6002408B7002508B8006308E3
:101EAA00B3006408B4006508B5008031E0208B31C6
:101EBA0040013308D0003408D1003508D2008931F6
:101ECA006B218B3140016B085007DE006C08513DD5
:101EDA00DF005E0846018C0040015F0846018D0064
:101EEA009001910141016008F9005F08F800803112
:101EFA000C208B3178084001B6007908B7007A08BF
:101F0A00B8006E08F9006D08F80080310C208B319A
:101F1A0078084001A0007908A1007A08A200883157
:101F2A00FE208B3140012008B3002108B4002208AA
:101F3A00B5008031E0208B3140013308A600340817
:101F4A00A7003508A800410167084001A300410124
:101F5A0068084001A400410169084001A5008031D8
:101F6A002C208B3140012308E3002408E4002508D3
:101F7A00E50041016008F9005F08F80080310C2093
:101F8A008B3178084001A6007908A7007A08A800D2
:101F9A006808A3006908A4006A08A50080312C20FB
:101FAA008B3140012308B6002408B7002508B80081
:101FBA006308B3006408B4006508B5008031E02006
:101FCA008B3140013308D0003408D1003508D200E3
:101FDA0089316B2140016B085007DE006C08513DC6
:101FEA00DF005E084601940040015F084601950043
:061FFA00980199010800A6
:020000040001F9
:0A000E008C3FFD3F9F3FFF3FFF3F87
:00000001FF
