:10000000803102288731E12F0034C0343F3464004E
:1000100080010131890B0828003440014008C300E9
:100020004108C4004208C5000310440D450DC60038
:100030004608CB004B08031D24280030BD000030CB
:10004000BE000030BF0008003D08C3003E08C400E9
:100050003F08C5000310440D450DC6004608CC00FE
:100060004C08031D3A280030BD000030BE000030AF
:10007000BF0008000030C8000030C9000030CA00CE
:1000800089304C07C3004308CB024008C300410835
:10009000C4004208C5001030C536C40CC30C890B1F
:1000A0004C284308C6004608CC003D08C3003E0863
:1000B000C4003F08C5001030C536C40CC30C890B02
:1000C0005C284308C6004608CC068030C3004308BD
:1000D000CC05C117FF30C005FF30C1050030C20597
:1000E000BE17FF30BD05FF30BE050030BF0518301C
:1000F000C3004308C7000130C835C90DCA0D890BBC
:100100007C283F084202031D8B283E084102031D44
:100110008B283D084002031C94283D08C0023E087D
:10012000C13B3F08C23B48140130C035C10DC20D70
:10013000890B95280130C702031D7B284808F00071
:100140004908F1004A08F2004B08C3004308F300D5
:100150004C08C4004408F4008B3118237008400197
:10016000BD007108BE007208BF0008004001AF006A
:100170002230A4002408A80040012108A50020087E
:10018000A400A00A0319A10A2408840025088500F8
:100190000008A6002608B00030080319342A2530CC
:1001A00030060319DF283008A4002F0886008701D5
:1001B000240881000130A4002408AF07BC28AD0149
:1001C000AE01AC01E8282C150130A0070030A13D9C
:1001D00020088400210885000008303A0319E3282C
:1001E000F128200884002108850000088A313A227D
:1001F0008031031C2C294001AD01AE010A30F00012
:100200000030F10040012E08F3002D08F2008A3181
:100210004822803171084001AE007008AD0020080E
:100220008400210885000008D03EA400FF30031898
:100230000030A5002408AD072508AE3D0130A00719
:100240000030A13D200884002108850000088A3183
:100250003A2280310318FE2840012108A500200819
:10026000A400A00A0319A10A240884002508850017
:100270000008B000003A0319342A643A03194429EB
:100280000D3A03194429BC2840012808860087013B
:10029000403FAA00413FAB000230A4002408A80759
:1002A000AB1F5B290330A4002408AC04AA09AB09E6
:1002B000AA0A0319AB0AB001B00A053030060319C7
:1002C00080293008A400A501A435A50D003024071D
:1002D00084009030253D8500003FA600013FA70027
:1002E00027082B02031D762926082A02031C8029D1
:1002F0000130A4002408B00705303006031D612931
:100300002D082E0403198C292C08033903198C2974
:10031000FF30AD07FF30AE3D3008A400A501A41B9F
:10032000A5032508803AA6002E08803A2602031D60
:100330009B292D0824020318A82940013008A40095
:10034000A501A41BA5032408AD022508AE3BAB29DB
:100350004001AD01AE012C1DD0292C080339031931
:10036000BC292D30A4002F088600870124088100B5
:100370000130A4002408AF072D082E040319F62924
:100380003030A4002F088600870124088100013046
:10039000A4002408AF07FF30AD07FF30AE3DBC29F5
:1003A0002D082E040319E7292030A4002F08860009
:1003B0008701240881000130A4002408AF07FF3022
:1003C000AD07FF30AE3D2D082E04031DD4292C08A7
:1003D00003390319F6292D30A4002F088600870160
:1003E000240881000130A4002408AF073008A400CD
:1003F0002408A900FF30A4002408A907290A03192A
:10040000BC280A30F8000030F9002908A400A50132
:10041000A435A50D0030240784009030253D8500CB
:10042000003FF000013FF1002B08F3002A08F20022
:100430008A31AF2280317108FB007008FA008A31DE
:10044000832280317808303E4001A6002608B000A3
:100450003008A4002F08860087012408810001309D
:10046000A4002408AF07FA2940012F08860087015D
:10047000810108000F3041019E003530890B3E2A72
:100480000000410113141318432A0D084001DD0038
:10049000DE015D08EB005E08EC006C08DE006B0816
:1004A000DD005D08DE00DD015D08EB005E08EC00AC
:1004B00041010C0840016B07DD006C0803186C0A51
:1004C000DE005D08EB005E08EC00C030BD007F3050
:1004D000BE004430BF000030A000A030A10040307A
:1004E000A2006C08F9006B08F8008A31632282319F
:1004F00078084001A3007908A4007A08A5008E318D
:100500005626823140012008C0002108C10022087F
:10051000C20080310D20823140013D08ED003E08CF
:10052000EE003F08EF0068304001DD00E430890B49
:10053000972ADD0B972A00000E3041019E003530CE
:10054000890BA02A0000410113141318A52A0D08D5
:100550004001DD00DE015D08EB005E08EC006C0888
:10056000DE006B08DD005D08DE00DD015D08EB00EC
:100570005E08EC0041010C0840016B07DD006C08CF
:1005800003186C0ADE005D08EB005E08EC00C0306A
:10059000BD007F30BE004430BF000030A000A0305E
:1005A000A1004030A2006C08F9006B08F8008A3105
:1005B0006322823178084001A3007908A4007A08F8
:1005C000A5008E315626823140012008C000210846
:1005D000C1002208C20080310D20823140013D0857
:1005E0004101E50040013E084101E60040013F08AD
:1005F0004101E70068304001DD00E430890BFE2A4C
:10060000DD0BFE2A00000D3041019E003530890BC4
:10061000072B00004101131413180C2B0D08400187
:10062000DD00DE015D08EB005E08EC006C08DE001A
:100630006B08DD005D08DE00DD015D08EB005E0893
:10064000EC0041010C0840016B07DD006C08031849
:100650006C0ADE005D08EB005E08EC00C030BD00F7
:100660007F30BE004430BF000030A000A030A100A9
:100670004030A2006C08F9006B08F8008A31632250
:10068000823178084001A3007908A4007A08A50007
:100690008E315626823140012008C0002108C10059
:1006A0002208C20080310D20823140013D08410105
:1006B000E20040013E084101E30040013F084101E2
:1006C000E40068304001DD00E430890B652BDD0B70
:1006D000652B00000C3041019E003530890B6E2BDC
:1006E0000000410113141318732B0D084001DD00A5
:1006F000DE015D08EB005E08EC006C08DE006B08B4
:10070000DD005D08DE00DD015D08EB005E08EC0049
:1007100041010C0840016B07DD006C0803186C0AEE
:10072000DE005D08EB005E08EC00C030BD007F30ED
:10073000BE004430BF000030A000A030A100403017
:10074000A2006C08F9006B08F8008A31632282313C
:1007500078084001A3007908A4007A08A5008E312A
:100760005626823140012008C0002108C10022081D
:10077000C20080310D20823140013D084101DF007F
:1007800040013E084101E00040013F084101E10015
:1007900068304001DD00E430890BCC2BDD0BCC2B25
:1007A00000000B3041019E003530890BD52B000035
:1007B000410113141318DA2B0D084001DD00DE018E
:1007C0005D08EB005E08EC006C08DE006B08DD00E5
:1007D0005D08DE00DD015D08EB005E08EC00410114
:1007E0000C0840016B07DD006C0803186C0ADE0082
:1007F0005D08EB005E08EC00C030BD007F30BE003D
:100800004430BF000030A000A030A1004030A20062
:100810006C08F9006B08F8008A316322823178088D
:100820004001A3007908A4007A08A5008E3156265D
:10083000823140012008C0002108C1002208C20006
:1008400080310D20823140013D084101DC00400132
:100850003E084101DD0040013F084101DE006830F3
:100860004001DD00E430890B332CDD0B332C00001C
:100870000A3041019E003530890B3C2C00004101BB
:1008800013141318412C0D084001DD00DE015D0832
:10089000EB005E08EC006C08DE006B08DD005D0814
:1008A000DE00DD015D08EB005E08EC0041010C0894
:1008B00040016B07DD006C0803186C0ADE005D0860
:1008C000EB005E08EC00C030BD007F30BE0044305D
:1008D000BF000030A000A030A1004030A2006C0892
:1008E000F9006B08F8008A316322823178084001F0
:1008F000A3007908A4007A08A5008E31562682311B
:1009000040012008C0002108C1002208C200803137
:100910000D20823140013D084101D90040013E08CF
:100920004101DA0040013F084101DB00683040012D
:10093000DD00E430890B9A2CDD0B9A2C0000093085
:1009400041019E003530890BA32C00004101131496
:100950001318A82C0D084001DD00DE015D08EB0036
:100960005E08EC006C08DE006B08DD005D08DE0050
:10097000DD015D08EB005E08EC0041010C08400160
:100980006B07DD006C0803186C0ADE005D08EB00E5
:100990005E08EC00C030BD007F30BE004430BF00B8
:1009A0000030A000A030A1004030A2006C08F90087
:1009B0006B08F8008A316322823178084001A30075
:1009C0007908A4007A08A5008E31562682314001AC
:1009D0002008C0002108C1002208C20080310D207B
:1009E000823140013D084101D60040013E084101ED
:1009F000D70040013F084101D80008309E00353043
:100A0000890B002D0000410113141318052D0D084A
:100A10004001DD00DE015D08EB005E08EC006C08C3
:100A2000DE006B08DD005D08DE00DD015D08EB0027
:100A30005E08EC0041010C0840016B07DD006C080A
:100A400003186C0ADE005D08EB005E08EC00C030A5
:100A5000BD007F30BE004430BF000030A000A03099
:100A6000A1004030A2006C08F9006B08F8008A3140
:100A70006322823178084001A3007908A4007A0833
:100A8000A5008E315626823140012008C000210881
:100A9000C1002208C20080310D20823140013D0892
:100AA000E6003E08E7003F08E8006D08A3006E0876
:100AB000A4006F08A5000030A0000030A1000030A5
:100AC000A2008E315626823140012008B300210851
:100AD000B4002208B500410165084001A3004101AE
:100AE00066084001A400410167084001A5000030EC
:100AF000A0007A30A1004430A2008E315626823107
:100B000040012008B0002108B1002208B2008F3156
:100B10000A278231400130084101A000400131081C
:100B20004101A100400132084101A200200840011A
:100B3000B300410121084001B400410122084001F5
:100B4000B500410162084001A30041016308400172
:100B5000A400410164084001A5000030A000FA3063
:100B6000A1004430A2008E31562682314001200877
:100B7000B0002108B1002208B2008F310A2782316B
:100B8000400130084101A300400131084101A400A7
:100B9000400132084101A50023084001B300410192
:100BA00024084001B400410125084001B50041017D
:100BB0005F084001A300410160084001A400410119
:100BC00061084001A5008030A0003B30A100453005
:100BD000A2008E315626823140012008B000210843
:100BE000B1002208B2008F310A278231400130085B
:100BF0004101A600400131084101A700400132082F
:100C00004101A80026084001B30041012708400126
:100C1000B400410128084001B50041015C084001D1
:100C2000A30041015D084001A40041015E084001AC
:100C3000A5000030A0007A30A1004530A2008E311E
:100C40005626823140012008B0002108B100220858
:100C5000B2008F310A278231400130084101A900DA
:100C6000400131084101AA00400132084101AB00B6
:100C700029084001B30041012A084001B4004101A4
:100C80002B084001B500410159084001A300410172
:100C90005A084001A40041015B084001A500403012
:100CA000A0009C30A1004530A2008E315626823132
:100CB00040012008B0002108B1002208B2008F31A5
:100CC0000A278231400130084101AC00400131085F
:100CD0004101AD00400132084101AE002C08400145
:100CE000B30041012D084001B40041012E0840012C
:100CF000B5006608A3006708A4006808A500803056
:100D0000A000BB30A1004530A2008E3156268231B2
:100D100040012008B0002108B1002208B2008F3144
:100D20000A278231400130084101AF0040013108FB
:100D30004101B000400132084101B10040016D089D
:100D4000B3006E08B4006F08B500410165084001AA
:100D5000B000410166084001B1004101670840014F
:100D6000B2008F310A278231400130084101B200C0
:100D7000400131084101B300400132084101B40093
:100D800032084001B300410133084001B400410181
:100D900034084001B500410162084001B000410142
:100DA00063084001B100410164084001B2008F3185
:100DB0000A278231400130084101B5004001310865
:100DC0004101B600400132084101B7003508400139
:100DD000B300410136084001B40041013708400129
:100DE000B50041015F084001B000410160084001C9
:100DF000B100410161084001B2008F310A27823100
:100E0000400130084101B800400131084101B900FA
:100E1000400132084101BA0038084001B3004101E5
:100E200039084001B40041013A084001B5004101D0
:100E30005C084001B00041015D084001B100410182
:100E40005E084001B2008F310A278231400130082C
:100E50004101BB00400131084101BC0040013208A2
:100E60004101BD003B084001B30041013C08400185
:100E7000B40041013D084001B5004101590840015D
:100E8000B00041015A084001B10041015B08400136
:100E9000B2008F310A278231400130084101BE0083
:100EA000400131084101BF00400132084101C0004A
:100EB0003E084001B30041013F084001B400410138
:100EC00040084001B500410156084001B000410111
:100ED00057084001B100410158084001B2008F316C
:100EE0000A278231400130084101C1004001310828
:100EF0004101C200400132084101C3002F084001F6
:100F0000B300410130084001B40041013108400103
:100F1000B5006608A3006708A4006808A500C030F3
:100F2000A000DA30A1004530A2008E315626823171
:100F300040012008B0002108B1002208B2008F3122
:100F40000A27823140013008C0003108C100320850
:100F5000C200410141084001B30041014208400183
:100F6000B400410143084001B5006608B0006708BD
:100F7000B1006808B2008F310A2782314001300881
:100F8000BD003108BE003208BF0080310D20823123
:100F900040013D08CD003E08CE003F08CF008B3118
:100FA000FC2340014E08EA004D08E9006908543E60
:100FB000E900F2306A3DEA006A08DC006908DB00FB
:100FC00008004101803104208731E800803105208C
:100FD0008731E900803106208731EA0066308400DD
:100FE000003085000A30803107208731D6308400F8
:100FF0000030850012308031072040018B317C2B7E
:10147400F100F0013A3071020318462A303071024B
:10148400031C462AF001F00A700C0800F401F5016F
:10149400701C502A7208F4077308F53D0130F235C8
:1014A400F30D890B512A0130F136F00C890B562AC1
:1014B40070087104031D4A2A7508F1007408F000CD
:1014C4000800FD01F91F6D2AF809F909F80A031942
:1014D400F90AFD01FD0A7808F0007908F100F2012B
:1014E4008E30FB007B08F3007D08FC007C08F400D0
:1014F4008B3118237008F8007108F9007208FA009B
:101504000800780879040319AA2AFD01FD0AF91BC9
:10151400952A0130F835F90D890B8C2A0130FC002D
:101524007C08FD07892A79087B02031D9B2A780819
:101534007A02031CA12A7808FA027908FB3B0130DD
:10154400F936F80C890BA22A0130FD02031D952AF5
:101554007B08F9007A08F8000800F501F601700824
:1015640071040319DE2AF701F70AF11BC32A0130BB
:10157400F035F10D890BBA2A0130F4007408F7072D
:10158400B72A0130F535F60D890BC42A71087302A8
:10159400031DCE2A70087202031CD52A7008F202B9
:1015A4007108F33B75140130F136F00C890BD62A1F
:1015B4000130F702031DC32A7608F1007508F00014
:1015C4000800F600F42A7308803EF02A7308C03E2F
:1015D400F02A7308943EF02A7308D43EF500750887
:1015E400F700022B7608013A0319E52A033A031996
:1015F400E82A013A0319EB2A073A0319EE2A022BC7
:1016040077088C3183248A317408860087010108A5
:101614000319080074088600870101088D31162516
:101624008A310130F5007508F407062B7308031995
:10163400202B720871047004031D312B0030F0005C
:101644000030F1000030F20008000130F5007508A8
:10165400F3070130F236F10CF00C890B2C2BFE3021
:10166400720503194A2B272B0130F5007508F3077F
:101674000130F007003003180130F107003003187F
:101684000130F2070130F236F10CF00C890B452BD6
:10169400FF3072050319572B362B0130F30201304A
:1016A400F035F10DF20D890B522BF11B5D2B02303D
:1016B400730203184F2B7318652BFF30F0057F302E
:1016C400F105FF30F2050310F30C7308F500F60181
:1016D400F7011030F535F60DF70D890B6C2B7508F5
:1016E400F0047608F1047708F2047408031908007A
:1016F400F217080051011308F83906389300400125
:101704008E018F017E01CE01D90140019301940124
:101714008D0101307E01C30001304001920041017E
:101724009317131313161308F339043893001A127A
:10173400FC309A05D401D5018D31AD258B310130B2
:101744008C3183248B310C308C3183248B310530E4
:101754004001E5000F30E400F130890BAF2BE40BBE
:10176400AF2BE50BAF2B0F308C3183248B31293019
:101774004001E5009630E4007F30890BBF2BE40B79
:10178400BF2BE50BBF2B0C308C3183248B31823182
:101794003A228B3140015C084101D50040015B08CD
:1017A4004101D4000A304001A0009030A100410161
:1017B40055084001A300410154084001A200C4306F
:1017C4008031B6208B31F301C4304001E400640859
:1017D400F40001308A31E3228B3105304001E50009
:1017E4000F30E400F130890BF52BE40BF52BE50BFE
:1017F400F52BC92B40014D08D1004E08D2004F08EB
:10180400D3000310520D530DD4005408DA005A08C3
:10181400031D152C0030D0000030CF000030CE0066
:101824000030CD0008004D08D1004E08D2004F080A
:10183400D3001730D336D20CD10C890B1C2C510891
:10184400D4005408D500CE17FF30CD05FF30CE05A7
:101854000030CF054D08D6004E08D7004F08D800F9
:10186400D9018E30DA02DA1F532C5A08803A8F3E9F
:101874000318452C0030D0000030CF000030CE00DB
:101884000030CD0008000130D936D80CD70CD60C66
:10189400890B462C0130D1005108DA0703196C2C4E
:1018A400452C18305A02031C692C0030D00000303B
:1018B400CF000030CE000030CD0008000130D63516
:1018C400D70DD80DD90D890B612C0130DA025A08D5
:1018D400031D602C550803197A2CD609D709D80999
:1018E400D909D60A0319D70A0319D80A0319D90A38
:1018F4005908D0005808CF005708CE005608CD002C
:101904000800F20040018F110F117208F000073037
:10191400F036890B8A2C70080139F100F10DF10DB4
:10192400F10D0E087106F73971068E007208F00089
:101934000630F036890B9B2C01307005F1000F083E
:101944007106FE3971068F007208F0000530F0361A
:10195400890BA92C70080139F100F10D0F087106EB
:10196400FD3971068F007208F0000430F036890BDF
:10197400B82C70080139F100F10E0E087106EF3928
:1019840071068E000330890BC52C000040018F15B1
:101994000D30890BCB2C000040018F117208F00030
:1019A4000330F036890BD32C70080139F100F10DA6
:1019B400F10DF10D0E087106F73971068E007208EB
:1019C400F0000230F036890BE42C01307005F10090
:1019D4000F087106FE3971068F0072360139F00066
:1019E400F00D0F087006FD3970068F00720801397A
:1019F400F000F00E0E087006EF3970068E0003300A
:101A0400890B022D000040018F150D30890B082D24
:101A1400000040018F113A30F0002330890B102D63
:101A2400F00B102D00000800F20040018F110F157B
:101A34007208F0000730F036890B1D2D700801394B
:101A4400F100F10DF10DF10D0E087106F739710673
:101A54008E007208F0000630F036890B2E2D01300E
:101A64007005F1000F087106FE3971068F007208C7
:101A7400F0000530F036890B3C2D70080139F10077
:101A8400F10D0F087106FD3971068F007208F00020
:101A94000430F036890B4B2D70080139F100F10E3A
:101AA4000E087106EF3971068E000330890B582D2C
:101AB400000040018F150D30890B5E2D00004001A0
:101AC4008F117208F0000330F036890B662D700810
:101AD4000139F100F10DF10DF10D0E087106F73920
:101AE40071068E007208F0000230F036890B772DF3
:101AF40001307005F1000F087106FE3971068F0080
:101B040072360139F000F00D0F087006FD397006C9
:101B14008F0072080139F000F00E0E087006EF39DC
:101B240070068E000330890B952D000040018F153F
:101B34000D30890B9B2D000040018F110D30890B56
:101B4400A12D00003A30F0002330890BA72DF00BB3
:101B5400A72D0000080040019311141094101312D3
:101B6400941114118E110F108F100E128F110F116A
:101B74003A30F3002330890BBD2DF30BBD2D00004B
:101B84003A30F3002330890BC52DF30BC52D00002B
:101B94003A30F3002330890BCD2DF30BCD2D00000B
:101BA4003A30F3002330890BD52DF30BD52D0000EB
:101BB4003A30F3002330890BDD2DF30BDD2D0000CB
:101BC4003A30F3002330890BE52DF30BE52D0000AB
:101BD400F401F40A043074020318182E40018E1123
:101BE4000F108F140E168F110F118E110F108F14EA
:101BF4000E168F150F110D30890BFE2D00004001BC
:101C04008E110F108F140E168F110F113A30F3002E
:101C14002330890B0B2EF30B0B2E00000130F30045
:101C24007308F40704307402031CF02D40018E1174
:101C34000F108F140E128F110F118E110F108F149D
:101C44000E128F150F110D30890B262E0000400146
:101C54008E110F108F140E128F110F113A30F300E2
:101C64002330890B332EF30B332E00002830F3007E
:101C74007308F40074088C3183248D311030F30020
:101C84007308F40074088C3183248D31F401F40A50
:101C940074088C3183248D310F30F3007308F40001
:101CA40074088C318324080040012008A600210810
:101CB400A7002208A8000310270D280DA900290851
:101CC400AA002A08031D6D2E0030A0000030A100D8
:101CD4000030A20008002308A6002408A700250855
:101CE400A8000310270D280DA9002908AF002F080C
:101CF400031D832E0030A0000030A1000030A2009C
:101D040008002F087B3EA6002608AA072008A60084
:101D14002108A7002208A8001030A836A70CA60C9A
:101D2400890B8F2E2608A9002908AF002308A600D6
:101D34002408A7002508A8001030A836A70CA60C74
:101D4400890B9F2E2608A9002908AF068030A6001B
:101D54002608AF05A117A417FF30A305FF30A4057B
:101D64000030A5050030AB000030AC000030AD0001
:101D74000730A6002608AE00201CC62E2308AB0799
:101D84002408AC3D2508AD3D0130A236A10CA00CC1
:101D9400890BC72E0130A335A40DA50D890BCD2EBB
:101DA4000130AE02031DBE2E0930A6002608AE0087
:101DB400201CE22E2308AB072408AC3D2508AD3DCA
:101DC4000130A236A10CA00C890BE32E0130AD36F4
:101DD400AC0CAB0C890BE92E0130AE02031DDA2EDC
:101DE4002B08F0002C08F1002D08F2002A08A600A8
:101DF4002608F3002F08A7002708F4008B311823C6
:101E040070084001A0007108A1007208A200080037
:101E140040013008B6003108B7003208B80003109A
:101E2400370D380DB9003908BC003308B600340842
:101E3400B7003508B8000310370D380DB90039085C
:101E4400BB003C080319322F3B083C020318392F0E
:101E54003C03FF3A3B07B60019303602031C392F06
:101E64003308B0003408B1003508B20008003B085C
:101E7400031908003C083B020318482F3B03FF3AB0
:101E84003C07B60019303602031808000630B600C5
:101E94003608BA00B21BBA17B51B3A17B117FF3090
:101EA400B005FF30B1050030B205B417FF30B305FB
:101EB400FF30B4050030B5053B083C020318842FFD
:101EC4000130B335B40DB50D890B632F0130BB025E
:101ED4003B083C0603197F2F0130BA023A08073940
:101EE40003197F2F622F0130B236B10CB00C890B6D
:101EF400762F0130B6003608BC073C083B060319B0
:101F0400A92F752F3C083B020318A92F0130B035C7
:101F1400B10DB20D890B892F0130BC023B083C0680
:101F24000319A52F0130BA023A0807390319A52F5E
:101F3400882F0130B536B40CB30C890B9C2F0130BB
:101F4400B6003608BB073C083B06031D9B2FBA1F8F
:101F5400BB2FFF30B006FF30B106FF30B2060130B0
:101F6400B007003003180130B10700300318013006
:101F7400B2073A1FCD2FFF30B306FF30B406FF304F
:101F8400B5060130B307003003180130B407003040
:101F940003180130B507BA013008B3073108B43D5E
:101FA4003208B53DB51FE82FFF30B306FF30B40645
:101FB400FF30B5060130B307003003180130B40711
:101FC400003003180130B507BA01BA0A3308F0002B
:101FD4003408F1003508F2003C08B6003608F30076
:101FE4003A08B7003708F4008B3118237008400111
:101FF400B0007108B1007208B20008000134003466
:102004000A34003464340034E8340334103427349C
:102014004C346534633474347534723461343D340F
:0C2024002034253430343234643400346D
:020000040001F9
:0A000E008C3FFD3F9F3FFF3FFF3F87
:00000001FF
