:08000000803102288731CC2F6A
:1007A8000134003400340034013400346400800122
:1007B80001310130FE020030FF3B7F087E0403193F
:1007C8000034DB2BFE0012001E000130FE02003058
:1007D800FF3B7F087E0403190034E72B7F34003485
:1007E800BF340034DF340034EF340034F7340034DD
:1007F800FB340034FD340034FE340034013400345A
:100808000234003404340034083400341034003422
:100818002034003440340034803400340030FB008D
:100828000030FA000030F9000030F800701C242C69
:100838007408F8077508F93D7608FA3D7708FB3D16
:100848000130F435F50DF60DF70D890B252C013027
:10085800F336F20CF10CF00C890B2C2C7308720493
:1008680071047004031D1A2C7B08F3007A08F20047
:100878007908F1007808F000080040015B08F300EF
:100888005A08F2005908F1005808F0004130F70002
:10089800C630F6004E30F5006D30F4008431122475
:1008A800843173084001DB007208DA007108D9004E
:1008B8007008D8003930D8073030D93D0030DA3DDB
:1008C8000030DB3D5808A0005908A1005A08A200D2
:1008D8005B08A3001030A400A337A20CA10CA00C45
:1008E800A40B702CFF302005FC007F302105FD0093
:1008F80008004001AB01A81F882CA709A809A70A6E
:100908000319A80AAB01AB0AA61F8F2CA509A609D3
:10091800A50A0319A60A250826040319B62CAA0154
:10092800AA0AA61BA12C0130A535A60D890B982C67
:100938000130A9002908AA07952C26082802031DBA
:10094800A72C25082702031CAD2C2508A70226087A
:10095800A83B0130A636A50C890BAE2C0130AA02A3
:10096800031DA12C2B080319BE2CA709A809A70A47
:100978000319A80A2808A6002708A5000800F200FD
:10098800F301F4017408803AF10080307102031D0C
:10099800CF2C0530730203180800F501F60176081C
:1009A800803AF10080307102031DDC2C3230750270
:1009B8000318202DF701F8017808803AF1008030FB
:1009C80071020830031977020318112D7735720761
:1009D800F100710886008701010840018C00773515
:1009E8007007F10071088600870101088E000B303E
:1009F800F1006230890BFE2CF10BFE2C0032013025
:100A0800F7070030F83D7808803AF100803071022D
:100A1800083003197702031CEA2C0130F50700306F
:100A2800F63D7608803AF10080307102031D1E2DD4
:100A380032307502031CDE2C6830F100E430890B7B
:100A4800232DF10B232D00320130F3070030F43D44
:100A5800C62C51011308F8390638930040018E015D
:100A68008F018C017E01B801D901CE0140019101AD
:100A78009301F03094007E01DA175A17DA165A16E5
:100A880007304001A5000030A6008431412485319B
:100A98007D084001A8007C08A70084317D248531A9
:100AA80040012608E1002508E0000730A5000030D5
:100AB800A6008431412485317D084001A8007C08C6
:100AC800A70084317D24853140012608DF002508F0
:100AD800DE0001304001C6070030C73D8F1A8C2D5B
:100AE8000B304001B1002630B0005D30890B7A2D03
:100AF800B00B7A2DB10B7A2D003240013E033F0432
:100B0800031D882D0130892D0230BE000030BF0042
:100B18000F1BA72D0B304001B1002630B0005D300F
:100B2800890B942DB00B942DB10B942D003202300B
:100B380040013E063F04031DA32D0230A42D0130C1
:100B4800BE000030BF000F1AC22D0B304001B100AB
:100B58002630B0005D30890BAF2DB00BAF2DB10B37
:100B6800AF2D0032033040013E063F04031DBE2D69
:100B78000330BF2D0430BE000030BF008F1BDD2DB9
:100B88000B304001B1002630B0005D30890BCA2D12
:100B9800B00BCA2DB10BCA2D0032043040013E06FD
:100BA8003F04031DD92D0430DA2D0330BE00003078
:100BB800BF004235A03E86008701703084002F3088
:100BC80085000231403F803F413F813F4035B03E84
:100BD80086008701F03084002E3085000231403FC6
:100BE800803F413F813F5D08BD005C08BC00BD1BE4
:100BF800212F3C083D04031D552E6035A03E86007C
:100C0800870101088E005E35B03E86008701010825
:100C18008C0043086106031D132E42086006031D5D
:100C28004B2E43085F06031D1B2E42085E06031D5C
:100C38004B2E5C08013EDC0000305D3DDD000730D6
:100C4800A5000030A6008431412485317D0840018B
:100C5800A8007C08A70084317D248531400126083E
:100C6800E1002508E0000730A5000030A600843127
:100C7800412485317D084001A8007C08A700843103
:100C88007D24853140012608DF002508DE000B3071
:100C98004001B0006230890B4F2EB00B4F2E000080
:100CA800012F3D08B1003C08B000B035B10D300847
:100CB800023EB2000030313DB3007030B4002F3036
:100CC800B5003208340786003308353D8700403FB9
:100CD800B600413FB7004235A03E86008701403F3D
:100CE800B800413FB90037083906031D7D2E360884
:100CF8003806031DD02E3D08B1003C08B000B035C1
:100D0800B10D3008023EB2000030313DB300F03082
:100D1800B4002E30B5003208340786003308353D5C
:100D28008700403FB600413FB7004035B03E8600DF
:100D38008701403FB800413FB90037083906031D15
:100D4800A72E36083806031DD02EC801C9017E30EB
:100D5800CA000030CB007E30CC000030CD004E30D1
:100D6800CE000030CF006E30D0000030D1006E30A1
:100D7800D2000030D3006E30D4000030D5000C30E3
:100D8800D6000030D700B030B0003008F00048304E
:100D98008431C3248531CA2F40013D08B1003C0885
:100DA800B000B035B10D7030B2002F30B30030084C
:100DB800320786003108333D870001088E003D0860
:100DC800B1003C08B000B035B10DF030B2002E30A3
:100DD800B3003008320786003108333D8700010828
:100DE8008C0029304001B1009630B0007F30890B6B
:100DF800FB2EB00BFB2EB10BFB2EFF3040018E00FB
:100E0800FF30BC07FF30BD3DFB2D4008013EC00050
:100E18000030122F4008FF3EC000FF30413DC100A6
:100E2800342F4208FF3EC200FF301E2F4208013E09
:100E3800C2000030433DC300342F3F08003A031975
:100E4800262F342F3E08013A0319092F033A0319B4
:100E58000E2F013A0319152F073A03191A2F342FA9
:100E68000A3046064704031D6D2D4308803AB0003A
:100E780080303002083003194202031C462F40011B
:100E8800C201C3014001C31F4D2F0730C20000300B
:100E9800C3004108803AB00080303002083003199E
:100EA8004002031C5A2F4001C001C1014001C11F6B
:100EB800612F0730C0000030C1005D08BB005C082E
:100EC800BA003B08803AB00080303002031D6E2F14
:100ED80002303A02031C6D2D40013B08B1003A086C
:100EE800B000B035B10D3008FE3EB200FF30313DE4
:100EF800B3007030B4002F30B500320834078600D4
:100F08003308353D87003B08B7003A08B600B635C8
:100F1800B70D7030B8002F30B90036083807840094
:100F28003708393D8500403F803F413F813F3B08BE
:100F3800B1003A08B000B035B10D3008FE3EB2003D
:100F4800FF30313DB300F030B4002E30B500320828
:100F5800340786003308353D87003B08B7003A0858
:100F6800B600B635B70DF030B8002E30B9003608E7
:100F7800380784003708393D8500403F803F413FAE
:100F8800813FFF30BA07FF30BB3D652F8031022813
:100F9800D4308400833085005830860000308700C4
:100FA8000030FF0006308331E6238731F2308400B9
:100FB80083308500A0308600003087000030FF00B5
:100FC80020308331E6238731F03084002E308500CD
:100FD8000030FE000130FF008331DA2387313E30D4
:100FE8008400003085001A30FE000030FF00833195
:080FF800DA23400185312D2DA3
:020000040001F9
:0A000E008C3FFD3F9F3FFF3FFF3F87
:00000001FF
